:020000040800F2
:1000000018170020DD010008E5260008C7210008B8
:1000100071250008D1090008012E00080000000029
:100020000000000000000000000000004501000882
:10003000D309000800000000890100081D280008FD
:10004000F7010008F7010008F7010008F7010008B0
:10005000F7010008F7010008F7010008F7010008A0
:10006000F7010008F7010008F7010008F701000890
:10007000F7010008F7010008F7010008F701000880
:10008000F7010008F7010008F7010008F701000870
:10009000F7010008F7010008F7010008F701000860
:1000A000F7010008F7010008F7010008F701000850
:1000B000F7010008F7010008F7010008F701000840
:1000C000F7010008F7010008F7010008F701000830
:1000D000F7010008F7010008F7010008F701000820
:1000E000F7010008F7010008F7010008F701000810
:1000F000B5280008F7010008F7010008F70100081B
:10010000F7010008F7010008F7010008F7010008EF
:10011000692B0008752B0008A9280008F7010008C2
:10012000F7010008F7010008F7010008F7010008CF
:10013000DFF80CD000F03AFC0048004765310008B9
:1001400018170020224B19680868B0E8F00F80F3F8
:100150000988BFF36F8F4FF0000080F311884EF0D5
:100160000D0E70470000000006480068006880F32C
:10017000088862B661B6BFF34F8FBFF36F8F00DFA1
:1001800000BF00BF08ED00E0EFF30980BFF36F8F01
:100190000F4B1A6820E9F00F106008B54FF05000BF
:1001A00080F31188BFF34F8FBFF36F8F03F0BEFB57
:1001B0004FF0000080F31188BDE808401968086816
:1001C000B0E8F00F80F30988BFF36F8F704700BF6E
:1001D00028000020EFF305807047000006488047A4
:1001E00006480047FEE7FEE7FEE7FEE7FEE7FEE71C
:1001F000FEE7FEE7FEE7FEE7A7280008310100085A
:10020000202A04DB203A21FA02F00021704721FA6B
:1002100002F3D040C2F120029140084319467047D2
:1002200040EA01039B0703D009E008C9121F08C078
:10023000042AFAD203E011F8013B00F8013B521EF8
:10024000F9D27047D2B201E000F8012B491EFBD26F
:1002500070470022F6E710B513460A4604461946D1
:10026000FFF7F0FF204610BDF0B480EA0102D40F82
:100270004200B2EB410F02D20246084611464A0044
:1002800042D0C30DDDB2C1F3C752AD1A202D35DA0D
:10029000C1F3160141F4000204B15242C5F1200637
:1002A00002FA06F12A411044B3EBD05F23D0C4B167
:1002B000012DA0EBC35009DCF0BC4FF0004202EA74
:1002C000C352DBB200F5000000F0E4BA400000F1D8
:1002D000807000EBC350A0F1807040EAD1704900FB
:1002E00009E0490841EAC071A0EBC35000F50000E5
:1002F000400800EBC350F0BC00F0C3BA61420122D9
:1003000002EB4101001BF6E7F0BC704781F00041B1
:10031000AAE780F00040A7E780EA010210B502F0EA
:100320000043400022D04A001FD0010E01EB1261B1
:10033000C0F35600C2F3560240F4000042F400023B
:10034000A0FB022000047F39140400D0401C50EAB6
:10035000124001D44000491EC2B20C0604EBD0107A
:10036000401C4008802A02D003E0002010BD20F08D
:100370000100002900DA0020184310BD30B480EAE3
:10038000010202F0004530F0004221F0004013D09D
:1003900090B1C30DD40DC2F31601C0F31600E41AD8
:1003A00041F4000140F400027D34914201D3641C09
:1003B00000E04900002C02DA30BC002070474FF406
:1003C00000000023914201D3891A034340084FEAF9
:1003D0004101F7D151B1914202D14FF0004105E006
:1003E00002D24FF0010101E06FF0010103EBC450B4
:1003F000284430BC00F045BA420005D0C0F3C752D3
:100400005242914201DC0020704700EBC15070471E
:100410002DE9FE4F804681EA0300C00F0C46009094
:1004200021F0004123F00045B8EB0200A94105D2BC
:100430004046214690461C460B46024623F00040AB
:10044000104347D0270DC7F30A00C3F30A510290A7
:10045000401A019040286BDAC3F3130040F4801B6C
:100460000098924620B10023D2EB030A63EB0B0BFA
:1004700001985946C0F14002504600F0E1F90646A5
:100480000D4650465946019A00F0E9F910EB080074
:100490006141002487EA115284EAE7731A4340D08D
:1004A000009A62B3019A012A4FEA075215DC001B39
:1004B00061EB02014FF0004202EA0752CDE900422F
:1004C000001C41F5801132462B4600F020FA03B0A3
:1004D000BDE8F08F40462146F9E7001B61EB0201C1
:1004E000001C41F5801300185B412018A2F500178D
:1004F00047EB030140EAD570B6196D4111E06D0874
:100500004FEA360645EAC0754FEA0752001B61EB19
:100510000201001C41F5801149084FEA3000001922
:10052000514132462B4603B0BDE8F04F00F0E0B930
:100530000098012240000023D0EB020263EBE0733D
:10054000009821464FEAE074B8EB000061EB04012B
:10055000E9E783F000435BE781F0004158E72DE9CC
:10056000FE4F81EA030404F0004421F000410094AE
:100570004FF0000B23F0004350EA01045ED052EA32
:1005800003045BD0C3F30A54C1F30A552C44A4F20C
:10059000F3340194A0FB0254C1F3130141F4801120
:1005A000C3F3130343F4801301FB024400FB034E27
:1005B000840A970A44EA815447EA8357A4FB0768F0
:1005C00002958D0A05FB07854FEA932C04FB0C541A
:1005D0002705029D4FEA065847EA1637B5EB08058E
:1005E0006EEB070C870E920E47EA811742EA8312E0
:1005F000A7FB0201B6EB0B0164EB00042B0D43EAF1
:100600000C335E1844EB1C50DA465146E7FB0201FE
:10061000C5F313044FEA0B3343EA14534FEA043291
:10062000019C43EA0603A4F10C040294009CCDE96A
:1006300000B400F06CF903B0BDE8F08F0020014673
:10064000F9E72DE9F04D81EA030404F0004B21F0B5
:10065000004514464FF0000A23F0004150EA05021D
:1006600020D054EA01021DD0C5F30A570246C5F353
:100670001303C1F31300C1F30A5640F4801543F489
:100680008013A7EB0608101BD64608F2FD3873EB63
:10069000050002D308F1010801E092185B41B8F1AE
:1006A000000F03DA00200146BDE8F08D00204FF472
:1006B0008011064684460EE0171B73EB050705D331
:1006C000121B63EB050306434CEA010C49084FEA91
:1006D000300092185B4150EA0107EDD152EA030065
:1006E00012D082EA040083EA0501084305D0101BFA
:1006F000AB4106D20122002306E000224FF0004366
:1007000002E06FF0010253101AEB06004CEB0851A7
:1007100010EB0A0041EB0B01BDE8F04D00F0E8B82A
:10072000C10F80EAE0700844CA079623002100F058
:10073000B1B80EB5C10F80EAE0700844CA070021C5
:1007400040F233438DE80E000A460B4600F0DFF816
:1007500003B000BD20F00040C10DC0F3160040F40E
:1007600000007F2901DA00207047962903DCC1F1DF
:100770009601C840704796398840704770B5C1F3FC
:100780000A5201F000450024C1F3130140F2FF3387
:1007900041F480119A4201DA002070BD40F23343E7
:1007A0009A42A2F2334203DC5242FFF729FD00E0F5
:1007B00090402C43F1D0404270BD00F0004230F038
:1007C00000400AD0C10D01F56071C0F3160042EA85
:1007D0000151C2084007114370470020014670478D
:1007E00001F0004330B421F0004150EA010206D08C
:1007F0000A0DA2F56072C1F31301002A02DC30BCBD
:1008000000207047440F44EAC104C100E01830BC26
:1008100000EBC25000F035B8002801DBC0F1004009
:10082000002901DBC1F1004181427047002801DB52
:10083000C0F10040002901DBC1F10041884270474E
:10084000202A04DB203A00FA02F100207047914090
:10085000C2F1200320FA03F3194390407047202A85
:1008600006DBCB17203A41FA02F043EAE07306E0D8
:1008700041FA02F3D040C2F12002914008431946E8
:1008800070470029A8BF7047401C490008BF20F0EE
:100890000100704710B4B0FA80FC00FA0CF050EA86
:1008A000010404BF10BC704749B1CCF1200421FA07
:1008B00004F411FA0CF118BF012121430843A3EB02
:1008C0000C01CB1D4FEA00614FEA102042BF00200F
:1008D00010BC704700EBC35010440029A4BF10BCEB
:1008E0007047401C490008BF20F0010010BC704751
:1008F00010B5141E73F1000408DA401C41F1000128
:1009000092185B411A4301D120F0010010BD2DE97E
:10091000F04D92469B4611B1B1FA81F202E0B0FA75
:1009200080F220329046FFF78BFF04460F4640EAE4
:100930000A0041EA0B0153465A46084313D01146B8
:1009400053EA010019D0C8F140025046FFF758FCA5
:1009500005460E46504659464246FFF771FF08438A
:1009600005D0012004E020463946BDE8F08D002086
:10097000054346EAE0762C4337430A986305E40AC8
:10098000A0EB08000022FD0A44EA47540A3002D5D1
:1009900000200146E9E7010510196941DDE9084534
:1009A00000196941BDE8F04DA2E70000064C074D73
:1009B00006E0E06840F0010394E80700984710342F
:1009C000AC42F6D3FFF7B8FB3C3D00085C3D0008A5
:1009D000FEE7704772B6FEE710B590F821100022CE
:1009E000022905D00421816380F82020012010BD58
:1009F00001680B6823F00E030B6001680B6823F09D
:100A000001030B6090F84030C46B012101FA03F33D
:100A1000636080F8211080F82020104610BD00008F
:100A20002DE9F05F90F821100024022903D0042161
:100A30008163012485E001680A6822F00E020A60E1
:100A400001680A6822F001020A603F4E3E4FB2156B
:100A5000DFF8F4C0DFF8F090DFF8ECA0DFF8E8B0E2
:100A6000DFF8E4E00168783F13011502ACF1640C93
:100A7000A9F15009AAF13C0AABF1280BAEF1140E12
:100A80004FF48018B14227D9B9420ED0614512D037
:100A900049451DD0514518D0594518D0714501D14F
:100AA000424615E0294EB14201D1012210E0274E05
:100AB0001436B14201D110220AE0244E2836B14248
:100AC00006D0224A3C32914201D11A4600E02A4621
:100AD0001E49091F0A602BE0B94213D0614517D0A7
:100AE000494522D051451DD059451DD0714501D1F0
:100AF00042461AE0B14202D14FF0807215E0134E27
:100B0000B14201D1012210E0104E1436B14201D1A0
:100B100010220AE00D4E2836B14206D00B4A3C3274
:100B2000914201D11A4600E02A46074980394A60BD
:100B3000012180F82110002180F82010416B01B1C3
:100B400088472046BDE8F09F80000240080402402C
:100B50002DE9F84FDFF8C8910024A9F1040B2346D2
:100B60000F2709F1040AABF1040ED1E00125A540DD
:100B700006EA0502AA4276D1DFF8A8C14E68A6EBC4
:100B80000C0866452BD00DDC032E34D005DC36B3C3
:100B9000012E19D0022E2FD11BE0112E16D0122EAD
:100BA0002AD119E0B8F5881F19D006DCB8F5803FC6
:100BB00015D0B8F5801F1FD111E0B8F5001F0ED079
:100BC000B8F5041F18D10AE0CB6815E0CB681B1DEF
:100BD00012E0CB6808330FE0CB680C330CE08B6875
:100BE0002BB1012B4FF0080303D0456104E004232F
:100BF00002E0056100E00023FF2A01D8064601E07B
:100C000000F104064FEA840501D9A5F12005D6F8C4
:100C1000008007FA05FC28EA0C0803FA05F548EA03
:100C20000508C6F800804D68ED0070D53E4DAE69F0
:100C300046F00106AE61AD6924F0030605F001053A
:100C400000953A4D06EB050CDCF80850A607360F68
:100C500007FA06F825EA0805DFF8D480404503D1F5
:100C60004FF0000825E052E0DFF8C880404502D18F
:100C70004FF001081DE0DFF8C080404502D14FF081
:100C8000020816E0DFF8B480404502D14FF00308B7
:100C90000FE0DFF8AC80404502D14FF0040808E0D7
:100CA000DFF8A080404502D14FF0050801E04FF089
:100CB000060808FA06F848EA0508CCF808804D68E6
:100CC000D9F80060ED024D4601D5164300E0964389
:100CD0002E604D68DAF80060AD02554601D5164326
:100CE00000E096432E604D68DBF80060AD035D4682
:100CF00001D5164300E096432E604D68DEF8006093
:100D0000ED03754601D5164300E096432E60641C42
:100D10000A681646E2407FF429AFBDE8F88F00006C
:100D200008040140000011100010024000000140C2
:100D300000080140000C0140001001400014014077
:100D400000180140001C0140C26821EA02030A4069
:100D500043EA0241016170470AB101617047090429
:100D6000FBE7000001488068704700001800002081
:100D700002488168027811448160704718000020A1
:100D8000074810B5016841F010010160032000F030
:100D9000A1F80F2000F006F800F04AF8002010BD7E
:100DA0000020024030B505461C4887B0816941F4F7
:100DB00000518161806906A900F40050009001A8EB
:100DC00000F030F900F05EF91549164AB0FBF1F178
:100DD0001548491E0260416040F2E7320021C0E937
:100DE00003218160816100F053FB040012D10E48A1
:100DF00000F0A6FB04000DD12C2000F03DF8102DD2
:100E000007D2002229462C2000F044F8074805604C
:100E100000E0012407B0204630BD00000010024071
:100E200040420F0000340140BC0400201C000020A0
:100E30000F4808B5816941F001018161816901F0C4
:100E400001010091C16941F08051C161C069002276
:100E500000F0805000900F21901E00F01BF8054814
:100E6000416821F0E06141F00071416008BD00007F
:100E70000010024000000140002809DB00F01F02C2
:100E8000012191404009800000F1E020C0F80011EC
:100E900070470000F0B40E4B1B680C46C3F30223EE
:100EA000C3F10705042D00D90425191D072901D216
:100EB000002300E0DB1E012606FA05F1491E214051
:100EC00099409E40761E16403143F0BC01F099BF18
:100ED0000CED00E0064900F0070208684FF6FF033A
:100EE000184040EA0220034A10430860704700009F
:100EF0000CED00E00000FA052DE9F0470F46050073
:100F000061D0434E306800F00700B84209D2306823
:100F100020F0070038433060306800F00700B84226
:100F200051D128683B4C810712D5400703D5606832
:100F300040F4E06060602878000703D5606840F402
:100F4000605060606068A96820F0F000084360604D
:100F50002878C00728D06868012810D021680228A6
:100F600010D0890700292EDA616821F003010143BE
:100F70006160FFF7F7FE804641F288390DE0216895
:100F80008903EFE78901EDE7FFF7ECFEA0EB08012D
:100F9000494502D90320BDE8F0876068696800F020
:100FA0000C00B0EB810FEFD1306800F00700B842C1
:100FB0000BD9306820F0070038433060306800F00B
:100FC0000700B84201D00120E5E72878400705D5A1
:100FD0006068E96820F4E0600843606028780007F2
:100FE00006D56068296920F4605040EAC10060605D
:100FF00000F058F86168084AC1F30311515CC84019
:101000000649086006480068FFF7CCFE0020C2E7EA
:101010000020024000100240F23C000824000020A2
:101020001C0000200F2202600C4A536803F00303E7
:101030004360536803F0F0038360536803F4E06394
:10104000C36052684FF4E06303EAD20202610448CD
:10105000006800F0070008607047000000100240C0
:10106000002002400448054900684968044AC1F369
:101070000221515CC840704724000020001002404B
:10108000023D00080448054900684968044AC1F364
:10109000C221515CC840704724000020001002406B
:1010A000023D00080E4A51680E4801F00C03042B63
:1010B00011D0082B0FD10C48C1F38343C903C05C86
:1010C0000AD55168084AC1F34041921E515C054A55
:1010D0005043B0FBF1F070470449484370470000AB
:1010E0000010024000127A00E23C000800093D00B6
:1010F0002DE9F84F040070D02078C04DC00749D0CA
:101100006868C0F38100012807D06868C0F38100D7
:10111000022809D16868C00306D52868800339D53C
:1011200060680028E7D035E06068B0F5803F0BD0FC
:1011300010B1B0F5A02F11D0286820F480302860BD
:10114000286820F4802002E0286840F4803028607D
:10115000606890B1FFF706FE06460AE0286840F492
:1011600080202860F0E700BFFFF7FCFD801B6428AB
:1011700073D828688003F7D50CE0FFF7F3FD064627
:1011800005E000BFFFF7EEFD801B6428F0D828685B
:101190008003F7D420789A4E80074FF001094FF072
:1011A000000839D5686810F00C0F07D06868C0F3E4
:1011B0008100022809D16868C00306D42868800726
:1011C00014D52069012808D110E02069B0B1C6F813
:1011D0000090FFF7C7FD074605E00AE1FFF7C2FDF3
:1011E000C01B0228C4D828688007F7D52868616921
:1011F00020F0F80040EAC10028600DE0C6F8008049
:10120000FFF7B0FD074604E0FFF7ACFDC01B022866
:1012100023D828688007F7D4207800072CD5794890
:10122000A169D9B1C0F80090FFF79CFD074604E022
:10123000FFF798FDC01B02280FD8686A8007F7D512
:1012400071484FF4FA510068B0FBF1F0009000BF14
:101250000098411E0091FAD20EE080E0C0F80080B4
:10126000FFF780FD074604E0FFF77CFDC01B022866
:1012700075D8686A8007F7D42078400760D5E86998
:101280000027C00008D4E86940F08050E861E869B0
:10129000012700F0805000905C480168C90513D414
:1012A0000168834641F480710160FFF75BFD82466F
:1012B00006E000BFFFF756FDA0EB0A0064284ED8F9
:1012C000DBF80000C005F5D5E06801280AD008B1B8
:1012D000052813D0286A20F001002862286A20F02F
:1012E000040002E0286A40F001002862E06841F250
:1012F000883B98B1FFF736FD82460BE0286A40F044
:1013000004002862EEE700BFFFF72CFDA0EB0A0106
:1013100059455AD8286A8007F6D50CE0FFF722FD18
:10132000824605E0FFF71EFDA0EB0A0159454CD8A7
:10133000286A8007F6D41FB1E86920F08050E86180
:10134000E06988B36968C1F38101022944D00228A9
:10135000C6F8608004D0FFF705FD044638E034E0AD
:10136000FFF700FD074604E0FFF7FCFCC01B022866
:101370002BD828688001F7D4206AB0F5803F05D1CA
:101380006868A16820F4003008436860D4E9080167
:101390000843696821F4741108436860C6F86090D6
:1013A000FFF7E0FC044606E025E000BFFFF7DAFCAB
:1013B000001B022809D828688001F7D51BE000BF70
:1013C000FFF7D0FC001B022802D90320BDE8F88FEC
:1013D00028688001F4D40EE00128F7D06868226AFA
:1013E00000F48031914204D1616A00F470108842A7
:1013F00001D00120EAE70020E8E7000000100240E9
:10140000000042428004424224000020007000405C
:101410007047704770B590F83C20012A2CD0012409
:1014200080F83C40022280F83D2003685A689D689D
:1014300022F070060A6832435A60104B02689A42E2
:101440000ED00F4B9A420BD0B2F1804F08D00D4B0B
:101450009A4205D00C4B9A4202D00C4B9A4204D1CE
:10146000496825F080031943916080F83D400021D0
:1014700080F83C10084670BD022070BD002C014071
:10148000003401400004004000080040000C00400F
:1014900010B5040003D094F83D0010B107E001201E
:1014A00010BD002084F83C00204600F01FF8022008
:1014B00084F83D00211D206801F002FA012084F823
:1014C000460084F83E0084F83F0084F8400084F829
:1014D000410084F8420084F8430084F8440084F812
:1014E000450084F83D00002010BD000008B5114AF9
:1014F00001681148914208D1C16941F00201C161FE
:10150000C06900F00200009008BD0C4A9142FBD176
:10151000C16941F01001C161C069002200F01000F2
:10152000009005213620FFF7B5FCBDE808403620C5
:10153000FFF7A2BC00040040001002400010004071
:1015400090F83D10012901D001207047022180F858
:101550003D100168CA6842F00102CA6000680E4985
:1015600088420ED00D4988420BD0B0F1804F08D090
:101570000B49884205D00B49884202D00A4988426B
:1015800004D1816801F00701062903D0016841F008
:101590000101016000207047002C0140003401402F
:1015A0000004004000080040000C004070B50446F4
:1015B00090F83C000025012817D0012684F83C60F3
:1015C000022084F83D002068826822F0770222F42D
:1015D0007F4282600868502838D00DDC20284FD028
:1015E00005DC90B3102811D14AE0022070BD3028EC
:1015F00046D040280AD13BE060282FD070280DD07B
:10160000B0F5805F03D0B0F5005F12D0012584F8FB
:101610003D60002084F83C00284670BDCB68D1E9CD
:101620000121206801F0A7F92068816841F0770165
:1016300009E0CB68D1E90121206801F09CF920681C
:10164000816841F480418160E1E719E0CA68496836
:10165000206801F065FA5021206806E0CA684968F0
:10166000206801F06EFA6021206801F08EF9CEE763
:10167000CA684968206801F053FA40212068F4E7FD
:10168000226801461046F0E72DE9F0410D460400BE
:1016900003D094F83D0018B108E00120BDE8F081C6
:1016A000002084F83C00204600F040F8022084F836
:1016B0003D002068816844F2070291438160211D4A
:1016C000206801F0FDF8226890689169166A2B681D
:1016D000AF69034340F20330814341EA0721A86820
:1016E000EF6908434FF6FC418843E96840EA072068
:1016F000014328692F6A000140EA073008436968FE
:101700006D6926F0220646EA051529439360226892
:10171000906154F8460B0162012004F81F09E0753E
:101720002076E0762077A0750020B7E700B585B079
:1017300000210091019102910391194B026819490E
:1017400019489A4212D18A6942F400628A618A6910
:1017500002F4006204928A6942F004028A61896993
:1017600001F0040104914FF4407113E0B2F1804F95
:1017700014D1CA6942F00102CA61CA6902F00102C9
:1017800004928A6942F004028A61896901F00401C5
:101790000491032100916946FFF7DAF905B000BD15
:1017A000002C0140001002400008014070B590F884
:1017B0003E60044690F83F5090F8423090F8432045
:1017C000022021B1042914D0012E25D11EE0012EC2
:1017D00022D1012B20D184F83E0084F8420001225E
:1017E0000021206801F0BAF82068C16841F00201C8
:1017F0002FE0012D10D1012A0ED184F83F0084F88A
:1018000043000421206801F0A9F81EE0012D03D156
:10181000012B01D1012A01D0012070BD84F83E00C6
:1018200084F83F0084F8420084F84300012200213C
:10183000206801F093F801220421206801F08EF85D
:101840002068C16841F00201C1602068C16841F0B0
:101850000401C1602068016841F0010101600020BD
:1018600070BD70472DE9F04104460068C6680569FF
:101870004FF00007A90713D5B10711D5F91E016173
:1018800001202077206880698007204602D0FFF77A
:10189000E8FF04E000F0B6F8204600F048F92777AA
:1018A000680716D5700714D521686FF00400086129
:1018B000022020772068806910F4407F204602D003
:1018C000FFF7CFFF04E000F09DF8204600F02FF96D
:1018D0002777280715D5300713D521686FF0080042
:1018E0000861042020772068C0698007204602D064
:1018F000FFF7B7FF04E000F085F8204600F017F985
:101900002777E80616D5F00614D521686FF0100089
:101910000861082020772068C06910F4407F2046C5
:1019200002D0FFF79EFF04E000F06CF8204600F0C4
:10193000FEF82777E80708D0F00706D021686FF097
:1019400001000861204600F04DF9280608D5300650
:1019500006D521686FF0800008612046FFF758FD2A
:10196000680608D5700606D521686FF0400008614A
:10197000204600F0D5F9A8060AD5B00608D521689A
:101980006FF0200008612046BDE8F041FFF741BD3F
:10199000BDE8F08130B585B0002100910191029140
:1019A000039100681349884221D11348816941F0AD
:1019B00004018161816901F004010491816941F0B0
:1019C000080181618069022500F008000490C020B0
:1019D000CDE900050324694603940848FFF7B8F8E9
:1019E000CDE90045694606480394FFF7B1F805B014
:1019F00030BD00000004004000100240000801401B
:101A0000000C0140704770B5044690F83C00002679
:101A10000D4601280FD0012084F83C006AB1042A49
:101A20001DD0082A2FD00C2A3FD00126002084F890
:101A30003C00304670BD022070BD206800F0AEFF53
:101A40002068816941F0080181612068816921F085
:101A500004018161206881692A69114311E02068CD
:101A600000F0CCFF2068816941F400618161206849
:101A7000816921F480618161206881692A6941EA74
:101A800002218161D2E7206800F0EEFF2068C16981
:101A900041F00801C1612068C16921F00401C16100
:101AA0002068C1692A69114311E0206801F010F82B
:101AB0002068C16941F40061C1612068C16921F4F5
:101AC0008061C1612068C1692A6941EA0221C1615E
:101AD000ACE710B5040003D094F83D0010B107E066
:101AE000012010BD002084F83C00204600F01EF8C4
:101AF000022084F83D00211D206800F0E1FE012055
:101B000084F8460084F83E0084F83F0084F84000E2
:101B100084F8410084F8420084F8430084F84400CB
:101B200084F8450084F83D00002010BD70477047E0
:101B300010B50446022249B104290ED0082913D059
:101B400094F84100012816D0012010BD94F83E0001
:101B50000128F9D184F83E200FE094F83F000128D5
:101B6000F2D184F83F2008E094F840000128EBD13E
:101B700084F8402001E084F841200122206800F030
:101B8000EDFE13492068134A884201D0904203D1E8
:101B9000436C43F400434364206888420DD0904274
:101BA0000BD0B0F1804F08D00B49884205D00B49CB
:101BB000884202D00A49884204D1816801F00701B5
:101BC000062903D0016841F001010160002010BD29
:101BD000002C014000340140000400400008004097
:101BE000000C00402DE9F05F044600683E49884241
:101BF00001D1FFF7BDF83D48844272D13C480188CD
:101C0000491C01803B480168486A00254D624EF638
:101C10006026B04207DDFEF78CFD0022364BFEF752
:101C200098FCFEF7ABFD4042FEF77AFD334CDFF83F
:101C3000D08041462060FEF7A1FBFEF7BEFD314A91
:101C4000314BFEF78CFCDFF8C4904FF0333A52462C
:101C50004B46FEF784FCFEF7C3FD07463946606835
:101C6000FEF702FB60603846FEF7A7FD284FDFF85D
:101C7000A4B03A465B46FEF7E4FCFEF7B1FDA06077
:101C800025480168486A4D62B04207DDFEF751FD04
:101C90000022194BFEF75DFCFEF770FDFEF740FDDC
:101CA0001E4C41462060FEF769FBFEF786FD154A93
:101CB000154BFEF754FC52464B46FEF750FCFEF720
:101CC0008FFD054629466068FEF7CEFA606028461B
:101CD000FEF773FD3A465B46FEF7B3FCFEF780FD68
:101CE000A060BDE8F09F000000340140E403002044
:101CF000000000200C0300200800F040000300203A
:101D00000000AF444AD8124DFB2109403333114043
:101D10007B14AE47E17A843F54030020F402002094
:101D20007047704770470000F8B5016804460868BE
:101D3000CA684B6910F00F0F4FF0000559D003F03F
:101D4000010602F49077374365D0C10705D0D1056D
:101D500003D5616C41F001016164410705D5D907E4
:101D600003D0616C41F002016164810705D5D90798
:101D700003D0616C41F004016164010707D502F0F2
:101D80002001314303D0616C41F008016164616C52
:101D900000293AD0800604D5900602D5204600F0EE
:101DA0001EFF20684069616CC0F38010090700D4F1
:101DB00060B3204600F0ECFE20684069400621D563
:101DC0002068143050E8001F21F0400140E8001264
:101DD000002AF5D1E06BA8B16D494163E06BFEF7D5
:101DE0001FFE002811D0E06B416B01B0BDE8F04050
:101DF000084783060FD593060DD52046BDE8F84069
:101E000000F0EDBE2046FFF78DFFF8BD2046FFF73E
:101E100089FF6564F8BD266B2023012E7CD1C606A0
:101E20007AD5D60678D508684868009048694FF09A
:101E30000206400640D5E16B086840680004000CCB
:101E4000E8D0A28D8242E5D9E085886920282DD08E
:101E500020680C3050E8001F21F4807140E8001227
:101E6000002AF5D12068143050E8001F21F001014C
:101E700040E80012002AF5D12068143050E8001F15
:101E800021F0400140E80012002AF5D184F84230E8
:101E9000256320680C3050E8001F21F0100140E855
:101EA0000012002AF5D1E06BFEF796FD6663A08D67
:101EB000E18D401A81B22AE0A08DE18D401A81B2F5
:101EC000E08D0028A6D00029A4D022680C3252E868
:101ED000000F20F4907042E80007002FF5D1206831
:101EE000143050E8002F22F0010240E80027002FB4
:101EF000F5D184F84230256320680C3050E8002F7B
:101F000022F0100240E80023002BF5D16663204642
:101F1000FFF707FFF8BDFFE705062BD5150629D506
:101F200094F841002128F5D1A068B0F5805F01D177
:101F30002069B0B1206A411C2162216800784860A4
:101F4000E08C401E0004000CE084E3D12068C168EE
:101F500021F08001C1602068C16841F04001C1608A
:101F6000D8E7206A0088C0F308004860206A801C17
:101F70002062E5E74006CDD55006CBD5CA6820469D
:101F800022F04002CA6084F8413000F01BF9C1E73A
:101F9000812B000870B5040004D094F8410000259E
:101FA00010B106E0012070BD84F84050204600F0DA
:101FB00023F8242084F841002068C16821F40051EE
:101FC000C160204600F06CFE2068016921F4904158
:101FD00001612068416921F02A0141612068C168DE
:101FE00041F40051C1606564202084F8410084F808
:101FF00042006563002070BD70B586B00024009477
:10200000019402940394314E05683149022203235E
:102010003048B54226D1CD6945F40025CD61CD6962
:1020200005F4002504958D6945F010058D618969D9
:10203000039301F0100104910115CDE900126946E6
:102040000546FEF785FDF014CDE9000469462846F3
:102050000294FEF77DFD002205213420FEF71AFFD1
:1020600034202FE01C4EB5422ED1CD6945F48015A9
:10207000CD61CD6905F4801504958D6945F0100595
:102080008D618D6905F0100504958D6945F0200579
:102090008D618969039301F020010491B114CDE9A8
:1020A00000126946FEF754FD0420CDE9000469469C
:1020B0000A480294FEF74CFD002205213520FEF768
:1020C000E9FE3520FEF7D8FE06B070BD004C00409A
:1020D0000010024000100140005000400014014078
:1020E00090F84230202B01D00220704721B11AB164
:1020F0000023036300F030BE01207047074910B58C
:1021000088420AD10121064800F0F6FFBDE81040E0
:10211000012203490148FFF7E3BF10BD2C04002052
:10212000140000202DE9F843044690F84100984639
:1021300016460D46202802D00220BDE8F88385B15E
:102140007EB100206064212084F84100FEF70AFE81
:10215000A6848146E684A0682027B0F5805F02D07F
:1021600003E00120E9E7206910B12E4600250EE0CA
:1021700000260CE08021204600F009FEA8B9C6B177
:1021800016F8010B21684860E08C401EE084E08C6A
:102190004B464FF00002CDF800800028EAD14FF006
:1021A0004001204600F0F3FD40B184F84170032067
:1021B000C3E735F8020BC0F30800E3E784F8417089
:1021C0000020BAE77047FEE72DE9F0410446416080
:1021D0000068FEF79BF8A061E569064601212846E4
:1021E000FEF70AF93146FEF794F8216AFEF73CF84B
:1021F000E16AFEF791F807463146A06AFEF78CF8CF
:10220000804629463046FEF781F8216BFEF784F8B8
:102210004146FEF729F83946FEF726F8A168FEF791
:1022200023F8A060C4E90765BDE8F08110B59CB053
:102230001C2216496846FDF7F3FF0021684600F0AE
:10224000E9FF134C11491C2220601C3107A8FDF73F
:10225000E7FF002107A800F0DDFF0C4960601C22A9
:1022600038310EA8FDF7DCFF00210EA800F0D2FFE8
:102270000649A0601C22543115A8FDF7D1FF0021AA
:1022800015A800F0C7FFE0601CB010BD703C00084E
:102290000400002070B586B000241C48009401940E
:1022A00002940394816941F020018161816901F008
:1022B00020010491816941F004018161816901F08B
:1022C00004010491816941F008018161816901F093
:1022D00008010491816941F01001816180690C4E0F
:1022E00000F010004FF4805504900022294630463B
:1022F000FEF732FD01200095CDE901040220039094
:1023000069463046FEF724FC06B070BD001002405E
:10231000000C014010B58CB024216846FDF799FFF0
:1023200000241748099415490A94C0E900144FF68F
:10233000FF71C0E902410461446184610320CDE979
:1023400000040120CDE9020405210491CDE90540F6
:10235000CDE9074169460A48FFF796F908B1FEF74B
:1023600039FB099409A906480A94FFF753F8002895
:1023700001D0FEF72FFB0CB010BD0000002C014077
:102380000C03002010B58CB024216846FDF761FFD6
:102390000024164809944FF080410A94C0E90014C3
:1023A0004FF6FF71C0E90241046184610320CDE969
:1023B00000040120CDE9020405210491CDE9054086
:1023C000CDE9074169460948FFF75EF908B1FEF714
:1023D00001FB099409A905480A94FFF71BF8002896
:1023E00001D0FEF7F7FA0CB010BD00005403002036
:1023F00010B58EB000240794089409940A940B94A5
:102400001C2168460C94FDF724FF2A4828490160E6
:102410004721C0E901144FF47A71C0E903148461C3
:10242000FFF736F808B1FEF7D5FA4FF48050079061
:1024300007A92048FFF7BAF808B1FEF7CBFA1D4804
:10244000FFF747FB08B1FEF7C5FA0B940BA9194833
:102450000C94FEF7DFFF08B1FEF7BCFA6020CDE96F
:10246000000402940022694612480494FFF7CBFA54
:1024700008B1FEF7AFFA042269460E48FFF7C3FA27
:1024800008B1FEF7A7FA082269460A48FFF7BBFA27
:1024900008B1FEF79FFA0C2269460648FFF7B3FA27
:1024A00008B1FEF797FA0348FFF774FA0EB010BDB3
:1024B000000400409C0300201CB500240F48009439
:1024C0000D49019401604721C0E9011442F20F71E6
:1024D000C16080218161FEF7DBFF08B1FEF77AFA67
:1024E0000094694605480194FEF794FF002801D046
:1024F000FEF770FA1CBD000000100040E40300204D
:102500000C4810B50A4901604FF4E13141600021E7
:1025100081600C22C160C0E904128161C161FFF7D2
:1025200039FD002803D0BDE81040FEF753BA10BDB6
:10253000004C00402C0400200C4810B50A490160F2
:102540004FF4E1314160002181600C22C160C0E99B
:1025500004128161C161FFF71DFD002803D0BDE8B1
:102560001040FEF737BA10BD005000407404002040
:10257000FEE700002DE9F05F4FF40008DFF8B4B08B
:10258000DFF8B4A02D4EDFF8B8900C4605464FF4A6
:102590007A77404512DA30680764554501D95546C7
:1025A00002E05D4500D2002549462846FDF75CFE65
:1025B000FEF7D0F83168C863454511DB3068C76362
:1025C00049468D4201DD4D4603E01E48854200DC50
:1025D00000252846FDF79DFEFEF7BCF8316808642B
:1025E0004546AC4212DA30684763544501D9544637
:1025F00002E05C4500D2002449462046FDF734FE47
:10260000FEF7A8F831688863AC4211DB3068876355
:102610004846844201DD4C4603E00A498C4200DC16
:1026200000242146FDF772FEFEF794F831684863F6
:10263000BDE8F09F0000B4C200007AC49C030020F3
:1026400000007A440000B44270B50C461349C860DB
:102650001348416813484068FDF706FE4FF0FF310C
:10266000FDF7CAFE01460D4800F08AF805462146EE
:10267000FEF7DCF803D2B4F5000F00DB2546214657
:102680002846FEF7C9F803D214F1FF4F00D32546C0
:102690002946BDE87040084600F006B87C120020CC
:1026A00000030020F40200200B4A10B5106002F174
:1026B00034000160094881681046FFF785FD044633
:1026C0000748816804483430FFF77EFD0146204604
:1026D000BDE81040FFF74EBFB0120020F40200200A
:1026E00000030020FEE70000044C054D214628466B
:1026F000FFF7AAFF142000F081FDF7E70000A041DA
:102700000000A04010B51A49002001F12404C8605F
:102710000861486188614FF07E52164BC86184E8B9
:102720000D004FF082430B633431134B486041F886
:10273000080B124C41F8100B41F8180B41F8140C1F
:1027400041F8100C41F80C2981E81900084968315A
:10275000486041F8080B41F8100B41F8180B41F89C
:10276000140C41F8100C41F80C2981E8190010BD37
:102770007C12002017B7D1380000A0400AD7233CB4
:102780002DE9F04104460161C068FDF7BFFD054633
:10279000A0612946606AFDF767FD6062074628462A
:1027A000E169FDF7B3FD216BFDF7B6FD064639463D
:1027B000E06AFDF7B1FD07462946A06AFDF7ACFDCA
:1027C0003946FDF751FD3146FDF74EFDE56160618B
:1027D0004FF07A520021A0F50000904200D26161D2
:1027E000606900F1FF40904200D261616069BDE81C
:1027F000F081000000F0FEFB10B1642000F0FEFC50
:102800006421034800F01CFB642000F0F7FCF1E7B2
:1028100094000020642000F0F1FCFBE710B550208C
:1028200080F31188BFF34F8FBFF36F8F01F058F91A
:1028300018B104494FF080500860002080F31188DF
:1028400010BD000004ED00E030B58FB028216846CF
:10285000FDF7FFFC14210AA8FDF7FBFC0121080489
:10286000CDE900100024029402250491CDE907501F
:102870004FF4E01009906846FEF73AFC08B172B6D2
:10288000FEE70F20CDE90A054FF48060CDE90C404A
:1028900002210AA80E94FEF72FFB002801D072B681
:1028A000FEE70FB030BD70470148FEF7DBBF000008
:1028B000E40300200148FEF7D5BF0000BC0400205F
:1028C000F0B50268204C214D214E224F224B4FF093
:1028D000804CA04209D0984207D0604505D0A8425C
:1028E00003D0B04201D0B84204D122F0700E4A6841
:1028F00042EA0E02A04209D0984207D0604505D0B6
:10290000A84203D0B04201D0B84203D122F44075AE
:10291000CA682A434D6922F080022A4302608A680D
:10292000C2620A688262A04201D0984201D109695C
:102930000163012141610169C90703D0016921F0E7
:1029400001010161F0BD0000002C014000040040C5
:1029500000080040000C00400034014010B501F0B8
:102960001F030121046A99408C430462016A9A4062
:102970001143016210BD10B5846842EA032224F4B9
:102980007F440A432243826010BD826822F07002B5
:102990000A4342F00701816070470000F0B5036A06
:1029A000026A22F00102026242688469124E24F037
:1029B00073050C682C4323F002058B682B430D4DE7
:1029C000A84201D0B04205D123F00807CB683B43B1
:1029D00023F00403A84201D0B04205D14D6922F48E
:1029E000407215438A692A434260846149684163A1
:1029F0000362F0BD002C014000340140F0B5026AD2
:102A0000036A23F010030362436884690D6824F4A9
:102A1000E64444EA05248D6822F0200242EA0512C9
:102A20000F4D104EA84201D0B04206D1CF6822F01F
:102A3000800242EA071222F04002A84201D0B042CE
:102A400007D14D6923F4406343EA85038D6943EA66
:102A5000850343608461496881630262F0BD0000C0
:102A6000002C014000340140F0B5026A036A23F4EF
:102A7000807303624368C46922F4007224F0730512
:102A80000C68124E2C438D6842EA05220E4DA84276
:102A900001D0B04206D1CF6822F4006242EA072298
:102AA00022F48062A84201D0B04207D14D6923F4DC
:102AB000405343EA05138D6943EA05134360C4613B
:102AC0004968C1630262F0BD002C0140003401403E
:102AD00030B5046A026A22F4805202624268C36915
:102AE0000D6823F4E64343EA05238D6824F400547B
:102AF00044EA0534084DA84202D0084DA84204D14A
:102B00004D6922F4804242EA85124260C3614968FD
:102B10000164046230BD0000002C0140003401401B
:102B200010B5036A046A24F001040462846924F085
:102B3000F00444EA021423F00A020A4384610262A8
:102B400010BD10B5036A046A24F01004046284699D
:102B500023F0A00324F4704444EA023243EA011152
:102B60008261016210BD00000148FFF7DDB800007E
:102B70002C0400200148FFF7D7B80000740400209F
:102B800010B5406A0021C185C184FFF7CBF810BDA4
:102B900001680C3151E8002F22F4907241E80023C3
:102BA000002BF5D10168143151E8002F22F0010209
:102BB00041E80023002BF5D1016B012909D10168FF
:102BC0000C3151E8002F22F0100241E80023002BC5
:102BD000F5D1202180F8421000210163704708B52B
:102BE00090F84210222901D0022008BD82684FF4DB
:102BF00080539A4201D1016921B1816A9A421BD066
:102C00004AB10AE00268816A5268C2F308020A8087
:102C1000816A891C08E0026972B10268526802F098
:102C20007F020A70816A491C8162C18D491E0904B4
:102C3000090CC18503D01BE002685268F1E7016806
:102C4000CA6822F02002CA600168CA6822F4807251
:102C5000CA6001684A6922F001024A61202180F8B5
:102C6000421000214163026B012A03D0FFF746FAAC
:102C7000002008BD016301680C3151E8002F22F0EB
:102C8000100241E80023002BF5D101680A68D20642
:102C900002D50A6849680091818DFFF742F8E7E79D
:102CA00070B5044600680169E26821F4405111439F
:102CB00001612169A0680843616908432168CA6805
:102CC00041F20C639A430243CA6020684169A269D9
:102CD00021F44071114341611E492068884202D1AC
:102CE000FEF7D0F901E0FEF7BDF900EBC00101EB02
:102CF0000012606864218000B2FBF0F3B3FBF1F3D3
:102D00006FF018067343B2FBF0F5B2FBF0F605EB7B
:102D10008305322303EB0515B5FBF1F5B6FBF1F6A0
:102D200005F0F00505EB0615B2FBF0F6B2FBF0F08E
:102D3000B0FBF1F06FF01802504306EB800003EB9C
:102D40000010B0FBF1F0216800F00F00284488600B
:102D500070BD00000038014081628285C28500217B
:102D60004164222180F84210016921B10168CA68DA
:102D700042F48072CA6001684A6942F001024A6105
:102D80000068C16841F02001C160002070472DE952
:102D9000F843984617460D460446089E24E0701CEA
:102DA00022D0FDF7DFFFA0EB0800B0421AD8CEB169
:102DB0002068C168490717D5802D15D0402D13D044
:102DC0000168C94309070FD40168002540680090D5
:102DD0002046FFF7DDFE0820606484F840500120A3
:102DE000BDE8F8830320FBE72068006835EA0000AF
:102DF00004D00020B842D2D00020F1E70120F9E74A
:102E0000FEE70907090E002804DB00F1E02080F846
:102E10000014704700F00F0000F1E02080F8141D4E
:102E2000704702E008C8121F08C1002AFAD1704793
:102E30007047002001E001C1121F002AFBD170473A
:102E400070B58AB00D46044624216846FDF701FAA4
:102E500034B12B4600220121684600F03BF810B146
:102E600001200AB070BD9DF805009DF80410000215
:102E700000B20843FDF754FC6FF00E052946FDF73C
:102E8000BBFA134E3146FDF747FA20609DF8070064
:102E90009DF80610000200B20843FDF741FC2946E8
:102EA000FDF7AAFA3146FDF737FA60609DF8090090
:102EB0009DF80810000200B20843FDF731FC2946D6
:102EC000FDF79AFA3146FDF727FAA0600020C8E71F
:102ED000000034432DE9F84F00241F4692468B46EC
:102EE0008146264625464FF47A786FB1012168461F
:102EF00000F0D8F8C0B3042C44D008DC64B1012C35
:102F000014D0022C42D130E00320BDE8F88F082C09
:102F10004AD0162C3AD159E09DF80000552835D1F9
:102F200089F8000089F82000012457E05FEA0A00D0
:102F300004D0BAF1010F0BD00220E6E79DF80000A3
:102F4000552823D189F8010099F82000553008E070
:102F50009DF80000AF2819D189F8010099F82000E8
:102F6000AF3089F82000022438E09DF80000584571
:102F70000CD189F8020099F820100424084489F83B
:102F800020002BE09DF800001C2801D9002425E03A
:102F900089F8030099F82010014489F8201008B13D
:102FA00008241BE0162419E009EB06019DF8000037
:102FB000087199F82010761C084489F8200099F8C7
:102FC0000300F6B2B04209D10026EBE799F82000E1
:102FD0009DF800108842D9D1002096E7012000F02A
:102FE000B1F86D1CADB245457FF47FAF00257F1E63
:102FF0007BE7000010B500F04BF86422074903207E
:1030000000F00EF840B105496422491C042000F08C
:1030100007F808B1002010BD012010BD900000206D
:10302000F0B58BB00E460546174624216846FDF7DD
:1030300010F955208DF82400AF208DF8250045F0BB
:1030400080048DF8264001208DF8270000208DF89F
:103050002800641D8DF82940062109A800F068F8B1
:103060003B46012229466846FFF734FF00284FF00F
:1030700000000BD1694604E00A1812793254401C52
:10308000C0B29DF803208242F6D8D0B20BB0F0BD9A
:103090000348802120F8801F0021418081807047F3
:1030A000F411002070B5054612480446B0F884209B
:1030B000B0F88230B4F880409A4201D3D21A01E0CD
:1030C000E31A1A4492B2914200D9114600220CE050
:1030D000B0F88230C65CAE545B1CB3FBF4F604FB64
:1030E0001633521CA0F8823092B28A42F0D30846BE
:1030F00070BD0000F411002070B500220B4B10E0F1
:10310000B3F88450845C5C55B3F88440B3F88050C5
:10311000641CB4FBF5F605FB1644521CA3F884406E
:1031200092B28A42ECD3002070BD0000F41100205E
:103130000A4601464FF0FF330148FEF7F3BF000097
:103140002C0400200CB500210B22009107E0114651
:103150000192491E0191FCD10099491C00918142C4
:10316000F5D30CBDFDF70CFEFFF76EFBFFF792F8F1
:10317000FFF7D0F8FFF706F9FFF73AF9FFF7C0F9C4
:10318000FFF7DAF9FFF798F9012213491348FEF720
:10319000A7FF3C211248FEF709FB3C211148FEF72E
:1031A00005FB1148FEF7CCF900211048FEF7C0FCE2
:1031B00004210E48FEF7BCFC08210C48FEF7B8FCC1
:1031C0000C210A48FEF7B4FCFFF79CFAFFF72EF833
:1031D00000F01BF8FEE70000140000202C04002083
:1031E0000C03002054030020E40300209C03002073
:1031F00001460020842900D0C81C704710B500B9D2
:10320000012000F02FFB002010BD10B500F050FB96
:10321000002010BD7FB50D4604464169B0F9080095
:1032200081B1A16971B1FFF7E3FFD4E905128DE81F
:103230000700D4E900102B46226900F026FC039019
:1032400004B070BDFFF7D4FF03A9CDE90001208AC7
:103250002B4682B2D4E9001000F0EAFB012801D02D
:103260000020EDE70398EBE72DE9F041184C0F46FD
:103270000546E6682068001D00F02CFA38B9206881
:1032800090F82C1001208840216981432161681C3D
:1032900007D137B12168BDE8F0410E48091D00F0A3
:1032A0005DBA20683544B5424560216805D2A06BFF
:1032B000BDE8F041091D00F039BA606B091D00F04E
:1032C00035FAA06A854200D2A562BDE8F08100000F
:1032D00028000020E00500202DE9F041054600F01F
:1032E00049FA2E4CA068401CA06020682C4F10B1F9
:1032F000606940B32DE02560A068012829D100262F
:1033000006EB860007EB800000F002FA761C072E21
:10331000F6D323488C3000F0FBF92148A03000F0B0
:10332000F7F91F48B43000F0F3F91D48C83000F039
:10333000EFF91B48DC3000F0EBF919488C30606382
:103340001430A06305E02068E96AC06A884200D8AA
:103350002560606A401C6062E96A01202269884039
:103360001043206101EB810007EB8000291D00F074
:10337000F5F900F01FFA606900280CD02068E96AAE
:10338000C06A884207D207494FF080500860BFF3F7
:103390004F8FBFF36F8FBDE8F08100002800002041
:1033A0000405002004ED00E010B5044690F851003B
:1033B00058B101280CD002280FD0502080F311887A
:1033C000BFF34F8FBFF36F8FFEE7206B00F006FA5D
:1033D0002046BDE8104000F001BA10BD10484FF47F
:1033E0004061420706D0C01D0D4920F00700411A78
:1033F000C1F540610B4A00230144C2E900030839CA
:10340000183A21F0070111604B600B600B1AC0E9FC
:10341000001393604FF0004053605061704700000C
:10342000F40500207C000020144E154CA6F1C807BE
:103430004FF08058DFF84C9012E000BF00F09AF98E
:10344000F068C568281D00F045F9A068401EA0601E
:103450006068401E606000F0ADF92846FFF7A4FFE9
:1034600060680028EAD138680128F9D9C9F80080D5
:10347000BFF34F8FBFF36F8FF2E70000CC05002042
:103480002800002004ED00E02DE9F0479A46DDE930
:10349000098481466FF00303206B03EB8202104422
:1034A000089E20F00707780707D0502080F3118886
:1034B000BFF34F8FBFF36F8FFEE7002561B1002090
:1034C00023180A5C83F834200A5C12B1401C1028CF
:1034D000F6D384F8435001E084F83450072E00D32B
:1034E0000626E662C4E91165201D00F01CF904F10E
:1034F000180000F018F92461C6F107006462A061A9
:10350000E56484F8505052464946384600F0C0F809
:103510002060B8F1000F01D0C8F80040BDE8F08786
:1035200030B5114900E011460A688242FBD34B686E
:103530005C18844203D140681844486008464368D8
:103540001C18944209D1084C183C2468A24209D0A6
:1035500052681A4442600A6812680260814200D0D0
:10356000086030BD0460F9E77C0000200648416B2C
:10357000096829B1416BC968C968496881627047A7
:103580004FF0FF31FAE700002800002008484068AB
:10359000401C4FF0500080F3118804D0BFF34F8FD0
:1035A000BFF36F8FFEE7BFF34F8FBFF36F8FFEE761
:1035B000840000202DE9F0410546002700F0AEF917
:1035C000324E306808B9FFF709FF706905424ED1E5
:1035D000C5B3083568070ED005F00700C0F1080034
:1035E0000544680707D0502080F31188BFF34F8F40
:1035F000BFF36F8FFEE72DB37068854237D823483D
:10360000183001460C6801E020460C466168A9426A
:1036100002D221680029F7D131688C4227D007688F
:103620002168016060680837411B10290FD96019B3
:10363000420708D0502080F31188BFF34F8FBFF3AB
:103640006F8FFEE713E041606560FFF769FF616817
:103650007068401A7060B268904200D2B0607069C1
:1036600001430020C4E90001F068401CF06000F054
:103670009DFA780707D0502080F31188BFF34F8F51
:10368000BFF36F8FFEE73846BDE8F081640000208D
:1036900010B5031F4FF080741C601B1F21F0010147
:1036A0001960191F024B0B60143940380A6010BDB5
:1036B0008D350008064D4FF480544FF47A7621463C
:1036C0002846FDF741FB3046FFF798FDF7E700007D
:1036D000000C0140D0E9013201699A60D0E9012370
:1036E0005A604A68824201D182684A6000220261BF
:1036F0000868401E0860086870470000034B0360BC
:1037000003F154000860802010607047A000002082
:1037100000F108014FF0FF32C0E90112C160016100
:1037200000210160704700210161704730B50B68CE
:103730005A1C02D000F1080202E0026904E02246AD
:10374000546825689D42FAD953684B6099608A6035
:10375000516008610168491C016030BD42684A60DF
:1037600093688B6093685960916008610168491C97
:1037700001607047502080F31188BFF34F8FBFF373
:103780006F8F0A494868401C486001280CD10848DE
:10379000006810F0FF0F07D0502080F31188BFF3AE
:1037A0004F8FBFF36F8FFEE770470000840000204B
:1037B00004ED00E00849486828B1401E486001D186
:1037C00080F311887047502080F31188BFF34F8F2A
:1037D000BFF36F8FFEE700008400002070B5002863
:1037E0002AD0164DA0F1080460686969084207D123
:1037F000502080F31188BFF34F8FBFF36F8FFEE728
:1038000022683AB1502080F31188BFF34F8FBFF385
:103810006F8FFEE78843606000F080F86068696839
:10382000084468602046FFF77BFE2869401C286139
:10383000BDE8704000F0BAB970BD0000640000201F
:103840004FF0E02000210161816105494FF47A7257
:103850000968B1FBF2F1491E41610721016170471E
:103860002400002010B5020014D00F48006B38B1BE
:10387000502080F31188BFF34F8FBFF36F8FFEE7A7
:1038800000F04CF800211046FFF7EEFC00F08EF936
:10389000002807D105494FF080500860BFF34F8FD3
:1038A000BFF36F8F10BD00002800002004ED00E082
:1038B00010B586B00024039405AA04A903A80494B3
:1038C000FFF71CFFDDE903010094CDE9011000239F
:1038D0000EA11048059A00F0D8F80F490028C862D8
:1038E00011D0502080F31188BFF34F8FBFF36F8F3B
:1038F0004FF0FF30886201204861CC6006B0BDE81F
:10390000104000F041B806B010BD000049444C45DD
:103910000000000029340008280000200248016B44
:10392000491C016370470000280000201448016B07
:1039300011B10121C16170470021C1610169B1FA72
:1039400081F1C1F11F0101EB81020E4951F82230D2
:103950006BB101EB820101F108034A6852684A60C9
:103960009A4201D152684A60D16801607047502084
:1039700080F31188BFF34F8FBFF36F8FFEE7000016
:1039800028000020040500201CB526490878019075
:10399000FF20087008788DF800009DF800009DF861
:1039A000002000F0F000904207D0502080F31188F2
:1039B000BFF34F8FBFF36F8FFEE79DF800001A4CE7
:1039C00000F0500020700720A06005E09DF8002066
:1039D00052008DF80020401E9DF800201206F5D4FC
:1039E000A060032807D0502080F31188BFF34F8FC9
:1039F000BFF36F8FFEE74FF44070A060019808702E
:103A00000A48016841F470010160016841F07041A9
:103A10000160FFF715FF00206060FCF7A5FB0020A8
:103A20001CBD000000E400E08400002020ED00E068
:103A30002DE9FF5F8346DDE90E87994616468A46E3
:103A40009000FFF7B7FD05001CD05420FFF7B2FD32
:103A5000040014D00020256384F85100CDE9024011
:103A6000CDE900874B46324651465846FFF70CFDDC
:103A70002046FFF731FC012004B0BDE8F09F284646
:103A8000FFF7ACFE4FF0FF30F6E7F0B585B0DDE9AB
:103A90000B640A9DA6B1DCB1542700972663022669
:103AA00084F85160002604AFCDE90246CDE9005705
:103AB000FFF7EAFC2046FFF70FFC049805B0F0BDC5
:103AC000502080F31188BFF34F8FBFF36F8FFEE755
:103AD000502080F31188BFF34F8FBFF36F8FFEE745
:103AE0002DE9F0412F4C0026206B28B1A069401C25
:103AF000A0613046BDE8F081E5686D1CE56013D13A
:103B0000606B006838B1502080F31188BFF34F8F8D
:103B1000BFF36F8FFEE7606BA16B6163A063206AE8
:103B2000401C2062FFF722FDA06ADFF87C808542FE
:103B300009D3606B0068A0B1606BC068C768786823
:103B4000854211D2A0622068C06A00EB800158F85B
:103B50002100012800D90126E0690028C9D00126EA
:103B6000C7E74FF0FF30EDE7381DFFF7B3FDB86A48
:103B700018B107F11800FFF7ADFDF96A01202269BD
:103B800088401043206101EB810108EB8100391D61
:103B9000FFF7E4FDF86A2168C96A8842C9D30126A3
:103BA000C7E7000028000020040500202DE9F047A9
:103BB0002C4D00242746286B38B1FFF7DBFD286B1E
:103BC000401E2863286B40B146E0502080F31188E6
:103BD000BFF34F8FBFF36F8FFEE7A968224E01201E
:103BE000D1B3A6F1B40980463068E8B1F068C46882
:103BF00004F11800FFF76EFD201DFFF76BFDE06A72
:103C00002A6908FA00F11143296100EB800109EBF0
:103C10008100211DFFF7A2FDE06A2968C96A884278
:103C2000E2D3C5F81C80DFE70CB1FFF79FFCAC695D
:103C300044B14646FFF754FF00B1EE61641EF9D16E
:103C40000020A861E86938B10849012738070860F1
:103C5000BFF34F8FBFF36F8FFFF7ACFD3846BDE862
:103C6000F087000028000020B805002004ED00E0E7
:103C7000303D0008F52700080000000000000000AB
:103C8000800000000000000000000000183D000857
:103C900015280008FDFF0000000000008000000063
:103CA0000000000000000000243D0008B5360008B8
:103CB000FDFF000000000000800000000000000088
:103CC000000000000C3D0008E9260008020000008A
:103CD0000000000080000000000000000000000064
:103CE000010202030405060708090A0B0C0D0E0F5A
:103CF000101000000000000000000102030406078D
:103D00000809000000000102030400005049445F5C
:103D10005441534B0000000053455249414C5F54FD
:103D200041534B00544553545F5441534B000000E2
:103D30004D50555F5441534B000000005C3D00085E
:103D40000000002094000000222E0008F03D000832
:103D50009400002084160000322E000800000000AD
:103D60000000000000000000000000000000000053
:103D70000000000001000000100000000000000032
:103D800000127A00000000000000000000000000A7
:103D90000000000000000000000000000000000023
:103DA0000000000000000000000000000000000013
:103DB0000000000000000000000000000000000003
:103DC00000000000000000000000000000000000F3
:103DD00000000000000000000000000000000000E3
:103DE00000000000AAAAAAAA00000000000000002B
:0400000508000131BD
:00000001FF
