:020000040800F2
:10000000B85400205D020008DB240008AF2100087E
:10001000D924000835090008492C00080000000018
:100020000000000000000000000000009D0100082A
:100030003709000800000000F901000895250008B4
:1000400077020008770200087702000877020008AC
:10005000770200087702000877020008770200089C
:10006000770200087702000877020008770200088C
:10007000770200087702000877020008770200087C
:10008000770200087702000877020008770200086C
:10009000770200087702000877020008770200085C
:1000A000770200085526000877020008770200084A
:1000B00077020008612600086D2600087702000814
:1000C000770200087702000877020008770200082C
:1000D000770200083D2C000877020008770200082C
:1000E000770200087702000877020008770200080C
:1000F00077020008770200087702000877020008FC
:1001000077020008770200087926000877020008C5
:1001100077020008770200087702000877020008DB
:1001200077020008770200087702000877020008CB
:1001300077020008770200087702000877020008BB
:1001400077020008770200087702000877020008AB
:10015000770200087702000877020008770200089B
:10016000770200087702000877020008770200088B
:1001700077020008770200087702000800000000FC
:100180007702000877020008DFF80CD000F0C0FB0F
:1001900000480047A9380008B85400202C4B1968C3
:1001A0000868B0E8F04F80F30988BFF36F8F4FF015
:1001B000000080F3118870470000000008480068C4
:1001C000006880F308884FF0000080F3148862B65E
:1001D00061B6BFF34F8FBFF36F8F00DF00BF00BF6B
:1001E00008ED00E0DFF80C00016841F470010160E7
:1001F000704700BF88ED00E0EFF30980BFF36F8F19
:10020000134B1A681EF0100F08BF20ED108A20E96A
:10021000F04F106009B44FF0500080F31188BFF325
:100220004F8FBFF36F8F04F03FFA4FF0000080F361
:10023000118809BC19680868B0E8F04F1EF0100F6B
:1002400008BFB0EC108A80F30988BFF36F8F704746
:1002500020000020EFF3058070470000064880472B
:1002600006480047FEE7FEE7FEE7FEE7FEE7FEE79B
:10027000FEE7FEE7FEE7FEE74526000889010008E5
:100280002DE9F05F0546002092469B4688460646CB
:10029000814640241BE0284641464746224600F05E
:1002A00050FA53465A46C01A914110D31146184687
:1002B000224600F037FA2D1A67EB01084F46224616
:1002C0000120002100F02EFA17EB00094E41201EFC
:1002D000A4F10104DFDC484631462A464346BDE826
:1002E000F09F40EA01039B0703D009E008C9121FF1
:1002F00008C0042AFAD203E011F8013B00F8013BE0
:10030000521EF9D27047D2B201E000F8012B491E0B
:10031000FBD270470022F6E710B513460A460446A2
:100320001946FFF7F0FF204610BD2DE9FE4F80462D
:1003300081EA0300C00F0C46009021F0004123F039
:100340000045B8EB0200A94105D24046214690463F
:100350001C460B46024623F00040104347D0270DB1
:10036000C7F30A00C3F30A510290401A01904028D3
:100370006BDAC3F3130040F4801B0098924620B15F
:100380000023D2EB030A63EB0B0B01985946C0F133
:100390004002504600F0C6F906460D465046594602
:1003A000019A00F0DEF910EB08006141002487EAB1
:1003B000115284EAE7731A4340D0009A62B3019A5B
:1003C000012A4FEA075215DC001B61EB02014FF0D6
:1003D000004202EA0752CDE90042001C41F58011BB
:1003E00032462B4600F015FA03B0BDE8F08F4046C8
:1003F0002146F9E7001B61EB0201001C41F5801367
:1004000000185B412018A2F5001747EB030140EAF2
:10041000D570B6196D4111E06D084FEA360645EA10
:10042000C0754FEA0752001B61EB0201001C41F549
:10043000801149084FEA30000019514132462B46DD
:1004400003B0BDE8F04F00F0D5B90098012240009C
:100450000023D0EB020263EBE073009821464FEAE1
:10046000E074B8EB000061EB0401E9E783F00043BE
:100470005BE781F0004158E72DE9FE4F81EA030474
:1004800004F0004421F0004100944FF0000B23F0F1
:10049000004350EA01045ED052EA03045BD0C3F388
:1004A0000A54C1F30A552C44A4F2F3340194A0FB7E
:1004B0000254C1F3130141F48011C3F3130343F455
:1004C000801301FB024400FB034E840A970A44EAAE
:1004D000815447EA8357A4FB076802958D0A05FB00
:1004E00007854FEA932C04FB0C542705029D4FEA25
:1004F000065847EA1637B5EB08056EEB070C870E72
:10050000920E47EA811742EA8312A7FB0201B6EB7B
:100510000B0164EB00042B0D43EA0C335E1844EB33
:100520001C50DA465146E7FB0201C5F313044FEABB
:100530000B3343EA14534FEA0432019C43EA0603A7
:10054000A4F10C040294009CCDE900B400F061F920
:1005500003B0BDE8F08F00200146F9E72DE9F04D2A
:1005600081EA030404F0004B21F0004514464FF0EB
:10057000000A23F0004150EA050220D054EA0102AB
:100580001DD0C5F30A570246C5F31303C1F3130088
:10059000C1F30A5640F4801543F48013A7EB060814
:1005A000101BD64608F2FD3873EB050002D308F1A4
:1005B000010801E092185B41B8F1000F03DA002056
:1005C0000146BDE8F08D00204FF4801106468446B8
:1005D0000EE0171B73EB050705D3121B63EB050336
:1005E00006434CEA010C49084FEA300092185B417F
:1005F00050EA0107EDD152EA030012D082EA04006A
:1006000083EA0501084305D0101BAB4106D2012245
:10061000002306E000224FF0004302E06FF00102E9
:1006200053101AEB06004CEB085110EB0A0041EB9B
:100630000B01BDE8F04D00F0DDB80EB5C10F80EA4A
:10064000E0700844CA07002140F233438DE80E00F1
:100650000A460B4600F0DDF803B000BD70B5C1F3EB
:100660000A5201F000450024C1F3130140F2FF33A8
:1006700041F480119A4201DA002070BD40F2334308
:100680009A42A2F2334203DC524200F05AF800E0F0
:1006900090402C43F1D0404270BD00F0004230F059
:1006A00000400AD0C10D01F56071C0F3160042EAA6
:1006B0000151C208400711437047002001467047AE
:1006C00001F0004330B421F0004150EA010206D0AD
:1006D0000A0DA2F56072C1F31301002A02DC30BCDE
:1006E00000207047440F44EAC104C100E01830BC48
:1006F00000EBC25000F047B830B50B460146002071
:100700002022012409E021FA02F59D4205D303FAD3
:1007100002F5491B04FA02F52844151EA2F1010254
:10072000F1DC30BD202A04DB203A00FA02F100207F
:1007300070479140C2F1200320FA03F3194390401F
:100740007047202A04DB203A21FA02F0002170478A
:1007500021FA02F3D040C2F1200291400843194629
:100760007047202A06DBCB17203A41FA02F043EA11
:10077000E07306E041FA02F3D040C2F1200291405A
:100780000843194670470029A8BF7047401C49001C
:1007900008BF20F00100704710B4B0FA80FC00FAE6
:1007A0000CF050EA010404BF10BC704749B1CCF111
:1007B000200421FA04F411FA0CF118BF012121439D
:1007C0000843A3EB0C01CB1D4FEA00614FEA102058
:1007D00042BF002010BC704700EBC35010440029FA
:1007E000A4BF10BC7047401C490008BF20F00100A6
:1007F00010BC704710B5141E73F1000408DA401CD9
:1008000041F1000192185B411A4301D120F001002F
:1008100010BD2DE9F04D92469B4611B1B1FA81F21F
:1008200002E0B0FA80F220329046FFF77BFF0446E8
:100830000F4640EA0A0041EA0B0153465A46084374
:1008400013D0114653EA010019D0C8F140025046B6
:10085000FFF777FF05460E46504659464246FFF7DA
:1008600061FF084305D0012004E020463946BDE879
:10087000F08D0020054346EAE0762C4337430A9882
:100880006305E40AA0EB08000022FD0A44EA47548D
:100890000A3002D500200146E9E701051019694137
:1008A000DDE9084500196941BDE8F04DA2E7C1F353
:1008B0000A52C1F3130140F2FF3341F480119A420E
:1008C00002DA00200146704740F233439A42A2F216
:1008D000334202DC5242FFF734BFFFF723BF000070
:1008E00030B5041E71F1000404DB4FF000444042B7
:1008F00064EB0101141E73F1000405DB1C464FF08C
:100900000043524263EB0403994208BF904230BD5A
:10091000064C074D06E0E06840F0010394E807004C
:1009200098471034AC42F6D3FFF732FC4C51000824
:100930006C510008FEE7704772B6FEE72DE9F04102
:100940000446876D00F054F9064694F835000025FA
:10095000022806D08020606584F834500120BDE86C
:10096000F0812068016821F016010160206841696A
:1009700021F080014161206C08B9A06C20B1206891
:10098000016821F0080101602068016821F001017F
:1009900001600CE000F02CF9801B052807D920200D
:1009A0006065032084F8350084F83450D7E7206868
:1009B0000068C007EED194F85C103F208840B86012
:1009C000012084F8350084F834500020C7E790F8FF
:1009D0003510022903D0802141650120704705218F
:1009E00080F835100068016821F0010101600020E5
:1009F000704700002DE9F84FDFF8BCA10022012567
:100A000003264FF00F090AF1040BAAF1040E00BFF0
:100A10000B6805FA02F42340A34270D10F7907F066
:100A20000307012F01D0022F16D187684FEA420831
:100A300006FA08FC27EA0C07D1F80CC00CFA08FCEF
:100A40004CEA070CC0F808C04768A7430C79C4F308
:100A5000001494403C4344600C79E443A4070AD05A
:100A6000C4684FEA420C06FA0CF7BC438F6807FAD9
:100A70000CF72743C7600C7904F00304022C12D151
:100A8000D40800EB840CDCF820405707FF0E09FA6D
:100A900007F824EA0804D1F8108008FA07F848EAB1
:100AA0000408CCF8208004684FEA420C06FA0CF7E0
:100AB000BC430F7907F0030707FA0CF727430760D9
:100AC0004C6814F4403F70D03C4C276847F4804792
:100AD0002760246822F0030704F480440094384C13
:100AE00007EB040CDCF8084897074FEA177809FA77
:100AF00008F7BC43334FB84202D1002724E054E04A
:100B0000314FB84201D101271EE0304FB84201D128
:100B1000022719E02E4FB84201D1032714E02D4FD0
:100B2000B84201D104270FE02B4FB84201D105276D
:100B30000AE02A4FB84201D1062705E0284FB84203
:100B400001D1072700E0082707FA08F72743CCF868
:100B50000878DAF800405746D1F804C09C435FEAB1
:100B6000CC2C00D51C433C60DBF800405F46D1F83C
:100B700004C09C435FEA8C2C00D51C433C60DEF82B
:100B800000407746D1F804C09C435FEA8C3C00D516
:100B90001C433C60084F083F3C68D1F804C09C43AC
:100BA0005FEACC3C00D51C433C60521C102AFFF489
:100BB0002FAFBDE8F88F0000083C014044380240E8
:100BC00000300140000002400004024000080240E2
:100BD000000C0240001002400014024000180240C5
:100BE000001C02400AB1816170470904FBE7000064
:100BF00001488068704700000C00002002488168AE
:100C000002781144816070470C0000200B4810B539
:100C1000016841F400710160016841F48061016084
:100C2000016841F480710160032000F099F80F2001
:100C300000F006F800F04AF8002010BD003C024029
:100C400030B505461C4887B00024016841F0010119
:100C50000160006806A900F00100009001A800F002
:100C60002BF900F059F915494000B0FBF1F1154896
:100C7000134A491E026040F2E732C0E90324C0E98A
:100C80000114846100F088FB040012D10D4800F0CB
:100C9000D9FB04000DD1192000F034F8102D07D233
:100CA00000222946192000F03BF80748056000E0C3
:100CB000012407B0204630BD4438024040420F00B6
:100CC0000000014078020020100000200C4882B093
:100CD000016841F480410160006800F480400090A8
:100CE0000748001F016841F0805101600068002240
:100CF00000F0805000900F21901E02B000F010B85C
:100D000044380240002809DB00F01F020121914015
:100D10004009800000F1E020C0F800117047000099
:100D2000F0B40E4B1B680C46C3F30223C3F1070556
:100D3000042D00D90425191D072901D2002300E044
:100D4000DB1E012606FA05F1491E214099409E400E
:100D5000761E16403143F0BC01F088BF0CED00E078
:100D6000064900F0070208684FF6FF03184040EA02
:100D70000220034A10430860704700000CED00E0B9
:100D80000000FA052DE9F0470E46050065D0DFF8B2
:100D90001481D8F80000F7B200F00700B04207D283
:100DA00088F80070D8F8000000F00700B04254D175
:100DB00028683D4C810712D5400703D5206840F4D0
:100DC000E05020602878000703D5206840F4604098
:100DD00020602068A96820F0F0000843206028788F
:100DE000C0072DD0304968680839012812D0022880
:100DF00013D0032811D00968890700292DDA21684A
:100E000021F0030101432160FFF7F2FE814641F228
:100E1000883A0EE009688903EFE709688901ECE781
:100E2000FFF7E6FEA0EB0901514502D90320BDE81A
:100E3000F0872068696800F00C00B0EB810FEFD1FB
:100E4000D8F80010404601F00701B14207D90770F9
:100E5000006800F00700B04201D00120E7E72878E1
:100E6000400705D52068E96820F4E0500843206079
:100E70002878000706D52068296920F4604040EAF8
:100E8000C100206000F058F82168084AC1F303113E
:100E9000515CC8400649086006480068FFF7D0FE6C
:100EA0000020C4E7003C02400838024028510008F6
:100EB00018000020100000200F2202600C4A136866
:100EC00003F003034360136803F0F00383601368C7
:100ED00003F4E053C36012684FF4E05303EAD20214
:100EE00002610448006800F00700086070470000D5
:100EF00008380240003C024004480549006809687F
:100F0000044AC1F38221515CC84070471800002098
:100F1000083802403851000804480549006809684B
:100F2000044AC1F34231515CC840704718000020A8
:100F30000838024038510008154810B5006810F014
:100F40000C02144813D04110042A0FD0082A0ED1E5
:100F50000F4C241F2268236802F03F025B0207D572
:100F60002068C0F38810A0FB010106E0084610BD10
:100F70002168C1F38811A1FB00010023FFF780F96C
:100F80002168C1F30141491C4900B0FBF1F010BDDB
:100F9000083802400024F4002DE9F84F04006ED018
:100FA0002078DFF84C93C007A9F104054AD009F175
:100FB00004000168C1F38101012908D00068C0F371
:100FC000810002280AD1D9F80000400206D528681D
:100FD000800337D560680028E1D033E06068B0F561
:100FE000803F10D0B0F5A02F286810D020F48030BA
:100FF0002860286820F4802028606068A8B1FFF786
:10100000F7FD06460DE0286840F48030F4E740F430
:1010100080202860F7E700BFFFF7EAFD801B642807
:1010200073D828688003F7D50CE0FFF7E1FD06468A
:1010300005E000BFFFF7DCFD801B6428F0D82868BE
:101040008003F7D42078DFF8AC8280074FF0000AE5
:101050003ED5A748001D016811F00C0F08D00068AC
:10106000C0F3810002280BD1D9F80000400207D458
:101070002868800716D5E068012800D112E033E126
:10108000E068B8B10120C8F80000FFF7B1FD0646DE
:1010900005E000BFFFF7ACFD801B0228C0D8286820
:1010A0008007F7D52868216920F0F80040EAC100E0
:1010B00028600DE0C8F800A0FFF79AFD064604E09E
:1010C000FFF796FD801B02281FD828688007F7D4F9
:1010D0002078000722D5864F87486169703771B143
:1010E00001210160FFF784FD064604E0FFF780FD63
:1010F000801B022809D838688007F7D50EE0C0F8B1
:1011000000A0FFF775FD064605E082E0FFF770FDE1
:10111000801B02287DD838688007F7D420784007E4
:1011200068D5DFF8CCB100270BF13C0BDBF80000F1
:10113000C0000BD4DBF8001041F08051CBF8001058
:10114000DBF80000012700F0805000906B4E306803
:10115000C00510D4306840F480703060FFF748FD5F
:10116000009005E0FFF744FD0099401A022850D88E
:101170003068C005F6D55E4EA0686C3601280FD0E9
:101180000528306810D020F001003060306820F071
:1011900004003060A068B8B1FFF72AFD00900FE0AE
:1011A000306840F00100F4E740F004003060F7E7F9
:1011B000FFF71EFD0099411A41F28830814266D83E
:1011C00030688007F4D50EE0FFF712FD009007E0CD
:1011D000FFF70EFD0099411A41F28830814256D83E
:1011E00030688007F4D42FB1DBF8001021F0805173
:1011F000CBF80010A069C8B33D49091D0968C1F3C7
:10120000810102294AD00228504607D0C8F8600060
:1012100000E03CE0FFF7ECFC04463BE04746C8F842
:101220006000FFF7E5FC064605E000BFFFF7E0FCC5
:10123000801B02282BD828688001F7D4D4E9070145
:101240000843A16A2E4A490802EB0141626A41EA59
:101250008211084394F82C1040EA0161C9F800108B
:1012600001203866FFF7C4FC044606E03EE000BFFC
:10127000FFF7BEFC001B022809D828688001F7D5BB
:1012800034E000BFFFF7B4FC001B022802D90320A2
:10129000BDE8F88F28688001F4D427E00128F7D052
:1012A000D9F80000E26900F4800191421CD1226A61
:1012B00000F03F01914217D147F6C071626A0140C8
:1012C000B1EB821F10D1A26A4FF0FF3300F440311E
:1012D00003EB5202B1EB024F06D194F82C1000F050
:1012E0007060B0EB016F01D00120D1E70020CFE7A3
:1012F0000438024000004742800E47420070004020
:101300000000FFFF7047704770B590F83C20012A3D
:1013100032D0012480F83C40022280F83D2003684E
:101320005A689D6822F070060A6832435A60134B6F
:1013300002689A4214D0B2F1804F11D0104B9A42F9
:101340000ED0104B9A420BD00F4B9A4208D00F4B45
:101350009A4205D00E4B9A4202D00E4B9A4204D1CB
:10136000496825F080031943916080F83D400021D1
:1013700080F83C10084670BD022070BD000001409E
:101380000004004000080040000C00400004014040
:10139000004001400018004010B5040003D094F84C
:1013A0003D0010B107E0012010BD002084F83C0092
:1013B000204600F01FF8022084F83D00211D20681F
:1013C00001F060F9012084F8460084F83E0084F8BA
:1013D0003F0084F8400084F8410084F8420084F81B
:1013E000430084F8440084F8450084F83D00002060
:1013F00010BD000008B501681048B1F1804F14D04D
:101400000F4A914219D1016841F00801016000685A
:10141000002200F00800009005213220FFF780FC38
:10142000BDE808403220FFF76DBC016841F00101C2
:101430000160006800F00100009008BD40380240E3
:10144000000C004090F83D10012901D001207047A8
:10145000022180F83D100168CA6842F00102CA60AA
:1014600000681149884214D0B0F1804F11D00F4963
:1014700088420ED00E4988420BD00E49884208D0CF
:101480000D49884205D00D49884202D00C49884256
:1014900004D1816801F00701062903D0016841F0F9
:1014A000010101600020704700000140000400407D
:1014B00000080040000C00400004014000400140D2
:1014C0000018004070B5044690F83C000025012843
:1014D00017D0012684F83C60022084F83D00206883
:1014E000826822F0770222F47F42826008685028E6
:1014F00038D00DDC20284FD005DC90B3102811D156
:101500004AE0022070BD302846D040280AD13BE096
:1015100060282FD070280DD0B0F5805F03D0B0F5D3
:10152000005F12D0012584F83D60002084F83C0063
:10153000284670BDCB68D1E90121206801F01BF974
:101540002068816841F0770109E0CB68D1E9012189
:10155000206801F010F92068816841F480418160C1
:10156000E1E719E0CA684968206801F0D9F950211B
:10157000206806E0CA684968206801F0E2F9602145
:10158000206801F002F9CEE7CA684968206801F0D6
:10159000C7F940212068F4E7226801461046F0E7C9
:1015A0002DE9F0410D46040003D094F83D0018B138
:1015B00008E00120BDE8F081002084F83C002046CE
:1015C00000F040F8022084F83D002068816844F271
:1015D000070291438160211D206801F053F82268C1
:1015E00090689169166A2B68AF69034340F2033033
:1015F000814341EA0721A868EF6908434FF6FC419F
:101600008843E96840EA0720014328692F6A0001FE
:1016100040EA0730084369686D6926F0AA0646EA81
:101620000515294393602268906154F8460B0162C6
:10163000012004F81F09E0752076E0762077A07578
:101640000020B7E770B586B0044614216846FEF75F
:1016500061FE2848264E25680023264910380222BC
:101660000324B5421ED10D6845F002050D600968DE
:1016700001F002010591016841F00101016000687B
:10168000694600F001000590C0208DE81D001A4851
:101690000492FFF7AFF9002205211D20FFF740FB60
:1016A0001D2021E0154EB54220D10D6845F00405FE
:1016B0000D60096801F004010591016841F008011D
:1016C00001600068694600F0080005904FF4405042
:1016D0008DE81D000A480492FFF78CF900220521CD
:1016E0001E20FFF71DFB1E20FFF70CFB06B070BD90
:1016F0000004004040380240000002400008004062
:10170000000C024070B590F83E60044690F83F50DF
:1017100090F8423090F84320022021B1042914D0DF
:10172000012E25D11EE0012E22D1012B20D184F8DB
:101730003E0084F8420001220021206801F00EF8EA
:101740002068C16841F002012FE0012D10D1012A6B
:101750000ED184F83F0084F843000421206800F093
:10176000FDFF1EE0012D03D1012B01D1012A01D083
:10177000012070BD84F83E0084F83F0084F84200E8
:1017800084F8430001220021206800F0E7FF0122D5
:101790000421206800F0E2FF2068C16841F00201E6
:1017A000C1602068C16841F00401C160206801681F
:1017B00041F001010160002070BD70472DE9F0414A
:1017C00004460068C66805694FF00007A90713D5ED
:1017D000B10711D5F91E01610120207720688069C9
:1017E0008007204602D0FFF7E8FF04E000F0BAF8D7
:1017F000204600F04CF92777680716D5700714D5F6
:1018000021686FF004000861022020772068806959
:1018100010F4407F204602D0FFF7CFFF04E000F035
:10182000A1F8204600F033F92777280715D53007AF
:1018300013D521686FF00800086104202077206824
:10184000C0698007204602D0FFF7B7FF04E000F030
:1018500089F8204600F01BF92777E80616D5F00630
:1018600014D521686FF010000861082020772068E7
:10187000C06910F4407F204602D0FFF79EFF04E0CD
:1018800000F070F8204600F002F92777E80708D04A
:10189000F00706D021686FF001000861204600F0D3
:1018A0005BF9280608D5300606D521686FF0800060
:1018B00008612046FFF726FD680608D5700606D5A4
:1018C00021686FF040000861204600F031FAA80658
:1018D0000AD5B00608D521686FF0200008612046BF
:1018E000BDE8F041FFF70FBDBDE8F081F0B587B06E
:1018F000044614216846FEF70DFD2068B0F1804FC4
:1019000027D115480025016841F0010101600168F7
:1019100001F001010591016841F0020101600068D8
:1019200003240226CDE9004600F002000127CDE99C
:101930000470CDE9025469460848FFF75BF8A0023D
:10194000CDE90006CDE90254694604970448FFF743
:1019500051F807B0F0BD00003038024000000240EE
:1019600000040240704770B5044690F83C00002621
:101970000D4601280FD0012084F83C006AB1042AEA
:101980001DD0082A2FD00C2A3FD00126002084F831
:101990003C00304670BD022070BD206800F0FEFEA5
:1019A0002068816941F0080181612068816921F026
:1019B00004018161206881692A69114311E020686E
:1019C00000F01CFF2068816941F40061816120689A
:1019D000816921F480618161206881692A6941EA15
:1019E00002218161D2E7206800F03EFF2068C169D2
:1019F00041F00801C1612068C16921F00401C161A1
:101A00002068C1692A69114311E0206800F060FF75
:101A10002068C16941F40061C1612068C16921F495
:101A20008061C1612068C1692A6941EA0221C161FE
:101A3000ACE710B5040003D094F83D0010B107E006
:101A4000012010BD002084F83C00204600F01EF864
:101A5000022084F83D00211D206800F013FE0120C3
:101A600084F8460084F83E0084F83F0084F8400083
:101A700084F8410084F8420084F8430084F844006C
:101A800084F8450084F83D00002010BD7047704781
:101A900010B50446022249B104290ED0082913D0FA
:101AA00094F84100012816D0012010BD94F83E00A2
:101AB0000128F9D184F83E200FE094F83F00012876
:101AC000F2D184F83F2008E094F840000128EBD1DF
:101AD00084F8402001E084F841200122206800F0D1
:101AE0003DFE16492068164A884201D0904203D133
:101AF000436C43F4004343642068884213D0B0F140
:101B0000804F10D00F4988420DD00F4988420AD02B
:101B10000E49884207D0904205D00D49884202D034
:101B20000C49884204D1816801F00701062903D0DD
:101B3000016841F001010160002010BD000001407A
:101B4000000401400004004000080040000C004078
:101B500000400140001800402DE9F04F2DED0C8BA6
:101B6000044687B000685849884201D1FFF746F81B
:101B7000564884427ED156490888401C0880554802
:101B80000168486A4FF0000AC1F824A04EF6602BA5
:101B90009FED51AB584507DDFEF74FFD53EC1A2B77
:101BA000FEF764FCFEF75AFD00EE100A4C4CF8EE0E
:101BB000C08AC4ED008ADFED4BDA88EEAD0A10EE84
:101BC000100AFEF76AFD9FED48BB53EC1B2BFEF796
:101BD00053FC9FED47CB53EC1C2BFEF74DFCFEF75F
:101BE0006FFD08EE100A94ED010A18EE100A30EEAF
:101BF00008DA84ED01DAFEF750FD9FED3F9B53ECD0
:101C0000192BFEF7ABFCFEF75BFDA060FEF745FD70
:101C1000804689461DEE100AFEF73FFD06460F4638
:101C200018EE100AFEF739FD04460D4618EE900A2C
:101C3000FEF733FD8DE8F00341EC100B30A053ECC0
:101C4000102B01F003F838480168486AC1F824A055
:101C5000584507DDFEF7F1FC53EC1A2BFEF706FCA6
:101C6000FEF7FCFC00EE100A304CF8EEC00AC4EDA2
:101C7000000A00E022E080EEAD0A10EE100AFEF746
:101C80000CFD53EC1B2BFEF7F7FB53EC1C2BFEF764
:101C9000F3FBFEF715FD00EE100AD4ED010A10EE7D
:101CA000100A70EE800AC4ED010AFEF7F6FC53EC50
:101CB000192BFEF753FCFEF703FDA06007B0BDEC47
:101CC0000C8BBDE8F08F000000000140A001002057
:101CD0000000002010010020333333330B00F040AC
:101CE000B00000200000AF444AD8124DFB2109404B
:101CF00033333333333311407B14AE47E17A843FBF
:101D0000252E306620200909090909252E32662072
:101D100020090909252E32660909090909252E32EB
:101D20006620200A0000000058010020BC000020AE
:101D30007047704770470000F8B5016804460868AE
:101D4000CA684B6910F00F0F4FF0000559D003F02F
:101D5000010602F49077374365D0C10705D0D1055D
:101D600003D5616C41F001016164410705D5D907D4
:101D700003D0616C41F002016164810705D5D90788
:101D800003D0616C41F004016164010707D502F0E2
:101D90002001314303D0616C41F008016164616C42
:101DA00000293AD0800604D5900602D5204600F0DE
:101DB00009FE20684069616CC0F38010090700D4F7
:101DC00060B3204600F0D7FD20684069400621D569
:101DD0002068143050E8001F21F0400140E8001254
:101DE000002AF5D1E06BA8B16E490165E06BFEF702
:101DF000EEFD002811D0E06B016D01B0BDE8F040B0
:101E0000084783060FD593060DD52046BDE8F84058
:101E100000F0D8BD2046FFF78DFFF8BD2046FFF744
:101E200089FF6564F8BD266B2023012E7DD1C6068F
:101E30007BD5D60679D508684868009048694FF088
:101E40000206400641D5E16B086840680004000CBA
:101E5000E8D0A28D8242E5D9E085C869B0F5807FDF
:101E60002DD020680C3050E8001F21F4807140E82C
:101E70000012002AF5D12068143050E8001F21F02C
:101E8000010140E80012002AF5D12068143050E822
:101E9000001F21F0400140E80012002AF5D184F82B
:101EA0004230256320680C3050E8001F21F01001FB
:101EB00040E80012002AF5D1E06BFEF73FFD6663B3
:101EC000A08DE18D401A81B22AE0A08DE18D401AEB
:101ED00081B2E08D0028A5D00029A3D022680C3261
:101EE00052E8000F20F4907042E80007002FF5D16F
:101EF0002068143050E8002F22F0010240E800274B
:101F0000002FF5D184F84230256320680C3050E86A
:101F1000002F22F0100240E80023002BF5D1666369
:101F20002046FFF706FFF8BDFFE705062BD515068F
:101F300029D594F841002128F5D1A068B0F5805F3B
:101F400001D12069B0B1206A411C2162216800786A
:101F50004860E08C401E0004000CE084E3D120685F
:101F6000C16821F08001C1602068C16841F0400172
:101F7000C160D8E7206A0088C0F308004860206A82
:101F8000801C2062E5E74006CDD55006CBD5CA6857
:101F9000204622F04002CA6084F8413000F006F981
:101FA000C1E700006729000870B5040004D094F868
:101FB0004100002510B106E0012070BD84F84050BA
:101FC000204600F023F8242084F841002068C168EE
:101FD00021F40051C160204600F056FD20680169DF
:101FE00021F4904101612068416921F02A01416199
:101FF0002068C16841F40051C1606564202084F804
:10200000410084F842006563002070BDF0B587B0E0
:10201000044614216846FEF77DF9274F2368002205
:1020200026490224032507262548BB4224D1234BF9
:1020300014331F6847F010071F601B6803F010037C
:1020400005930B6843F001030B60096802AB01F0D4
:10205000010105916902CDE9001483E86400694635
:10206000FEF7C8FC002205212520FEF759FE252099
:10207000FEF748FE07B0F0BD124FBB42FAD10F4B3E
:1020800010331F6847F400371F601B6803F40033E8
:1020900005930B6843F001030B60096802AB01F084
:1020A000010105910C21CDE9001483E86400694623
:1020B000FEF7A0FCDEE700000010014030380240CF
:1020C000000002400044004090F84230202B01D034
:1020D0000220704721B11AB10023036300F05ABDFA
:1020E00001207047074910B5884203D101210648F5
:1020F00001F098FBBDE81040012203490148FFF7B9
:10210000E3BF0000E8010020080000202DE9F843AB
:10211000044690F84100984616460D46202802D005
:102120000220BDE8F88385B17EB1002060642120E3
:1021300084F84100FEF75CFDA6848146E684A06831
:102140002027B0F5805F02D003E00120E9E7206995
:1021500010B12E4600250EE000260CE0802120461E
:1021600000F033FDA8B9C6B116F8010B216848602C
:10217000E08C401EE084E08C4B464FF00002CDF82E
:1021800000800028EAD14FF04001204600F01DFDFC
:1021900040B184F841700320C3E735F8020BC0F367
:1021A0000800E3E784F841700020BAE77047FEE7D3
:1021B00010B5044A0021044801F0FAFB0349086005
:1021C00010BD00000451000875250008040000201F
:1021D00070B586B014216846FEF79CF81E480024AE
:1021E000016841F004010160016801F004010591FA
:1021F000016841F080010160016801F080010591F2
:10220000016841F001010160016801F001010591DF
:10221000016841F002010160016801F002010591CD
:10222000016841F00801016000680C4E00F00800F0
:102230004FF400550590002229463046FEF7D2FCA7
:1022400001200095CDE90104694630460394FEF76C
:10225000D1FB06B070BD00003038024000080240DB
:1022600010B58EB000240794089409940A940B9436
:102270001C2168460C94FEF74DF82A484FF0804127
:1022800001602921C0E9011440F2E731C0E90314DB
:102290008461FFF781F808B1FEF74EFB4FF48050E0
:1022A000079007A91F48FFF70DF908B1FEF744FB97
:1022B0001C48FFF7BEFB08B1FEF73EFB0B940BA9D1
:1022C00018480C94FFF720F808B1FEF735FB6020A2
:1022D000CDE9000402940022694612480494FFF7F5
:1022E00042FB08B1FEF728FB042269460D48FFF7C0
:1022F0003AFB08B1FEF720FB082269460948FFF7C0
:1023000032FB08B1FEF718FB0C2269460548FFF7BF
:102310002AFB08B1FEF710FB0248FFF7E7FA0EB000
:1023200010BD0000C800002010B58CB02421684604
:10233000FDF7F0FF00241648099414490A94C0E9F7
:1023400000144FF6FF71C0E902410461846103206B
:10235000CDE900040120CDE902040F210491CDE96B
:102360000540CDE9074169460948FFF719F908B169
:10237000FEF7E2FA099409A905480A94FEF7C4FF9A
:10238000002801D0FEF7D8FA0CB010BD00040040C0
:102390001001002010B58CB024216846FDF7BAFF6B
:1023A00000241648099414490A94C0E900144FF611
:1023B000FF71C0E90241046184610320CDE900049A
:1023C0000120CDE9020404210491CDE90540CDE9C5
:1023D000074169460948FFF7E3F808B1FEF7ACFA90
:1023E000099409A905480A94FEF78EFF002801D038
:1023F000FEF7A2FA0CB010BD000800405801002002
:1024000010B586B0002417480094019402940394F8
:1024100004941349059401605321C0E9011442F268
:102420000F71C0E9031480218161FEF7B5FF08B187
:10243000FEF782FA4FF48050009069460948FFF792
:1024400041F808B1FEF778FA049404A90548059408
:10245000FEF75AFF002801D0FEF76EFA06B010BD55
:10246000000C0040A00100200C4810B50A49016092
:102470004FF4E1314160002181600C22C160C0E96C
:1024800004128161C161FFF78FFD002803D0BDE810
:102490001040FEF751BA10BD00100140E8010020C5
:1024A0000C4810B50A4901604FF4E1314160002148
:1024B00081600C22C160C0E904128161C161FFF733
:1024C00073FD002803D0BDE81040FEF735BA10BDFB
:1024D0000044004030020020FEE7FEE721489FED67
:1024E000200AF7EE080A80ED030A9FED1F0A9FED10
:1024F000201A80ED040A80ED050A80ED060A80EDC1
:10250000070A80ED090AC0ED0A0ADFED180AF7EEA6
:10251000001AC0ED0B0AF1EE040AC0ED0C0A3430CB
:1025200080ED010A80ED000A80ED020A80ED060AC6
:1025300080ED070A80ED080A243080EC040A103090
:1025400080ED010A80ED000A80ED020A80ED060AA6
:1025500080ED070A80ED080A243080EC040A7047F9
:1025600000008C42480300200000000017B7D1385B
:102570000AD7233C01F0D4F810B1642001F0DCF953
:102580006421034800F0ECFF642001F0D5F9F1E785
:10259000A400002010B54FF0E020006902F0FCFB21
:1025A000012803D0BDE8104002F02AB910BD000098
:1025B00030B593B030216846FDF7ACFE14210CA86D
:1025C000FDF7A8FE1D480025016841F0805101601B
:1025D000006800F0805011901948016841F4804172
:1025E00001600068022400F48040119001200090F6
:1025F000000401908001CDE9064008AA0420A8212A
:1026000082E813000B906846FEF7C6FC08B172B66C
:10261000FEE70CA90F2081E831004FF4A0500F9085
:102620004FF48050109005210CA8FEF7ABFB00285A
:1026300001D072B6FEE713B030BD00004038024052
:10264000007000400248016841F470010160704769
:1026500088ED00E00148FFF7B1B8000078020020E3
:102660000148FFF7ABB80000100100200148FFF758
:10267000A5B80000580100200148FFF79FB80000EE
:10268000A0010020F0B50268294C2A4D2A4E2B4F9C
:102690002B4B4FF0804CA04209D0604507D0A84298
:1026A00005D0B04203D0B84201D0984204D122F004
:1026B000700E4A6842EA0E02A0421BD0604519D053
:1026C000A84217D0B04215D0B84213D0984211D0CA
:1026D0001C4DA8420ED01C4DA8420BD01B4DA84249
:1026E00008D01B4DA84205D01A4DA84202D01A4D61
:1026F000A84203D122F44075CA682A434D6922F0EA
:1027000080022A4302608A68C2620A688262A0422A
:1027100001D0984201D10969016301214161016938
:10272000C90703D0016921F001010161F0BD00007A
:10273000000001400004004000080040000C004080
:1027400000040140004001400044014000480140B5
:1027500000180040001C00400020004010B501F0AF
:102760001F030121046A99408C430462016A9A4064
:102770001143016210BD10B5846842EA032224F4BB
:102780007F440A432243826010BD826822F07002B7
:102790000A4342F00701816070470000F0B5036A08
:1027A000026A22F00102026242688469124E24F039
:1027B00073050C682C4323F002058B682B430D4DE9
:1027C000A84201D0B04205D123F00807CB683B43B3
:1027D00023F00403A84201D0B04205D14D6922F490
:1027E000407215438A692A434260846149684163A3
:1027F0000362F0BD0000014000040140F0B5026A30
:10280000036A23F010030362436884690D6824F4AB
:10281000E64444EA05248D6822F0200242EA0512CB
:102820000F4D104EA84201D0B04206D1CF6822F021
:10283000800242EA071222F04002A84201D0B042D0
:1028400007D14D6923F4406343EA85038D6943EA68
:10285000850343608461496881630262F0BD0000C2
:102860000000014000040140F0B5026A036A23F44D
:10287000807303624368C46922F4007224F0730514
:102880000C68124E2C438D6842EA05220E4DA84278
:1028900001D0B04206D1CF6822F4006242EA07229A
:1028A00022F48062A84201D0B04207D14D6923F4DE
:1028B000405343EA05138D6943EA05134360C4613D
:1028C0004968C1630262F0BD00000140000401409C
:1028D00030B5046A026A22F4805202624268C36917
:1028E0000D6823F4E64343EA05238D6824F400547D
:1028F00044EA0534084DA84202D0084DA84204D14C
:102900004D6922F4804242EA85124260C3614968FF
:102910000164046230BD0000000001400004014079
:1029200010B5036A046A24F001040462846924F087
:10293000F00444EA021423F00A020A4384610262AA
:1029400010BD10B5036A046A24F01004046284699F
:1029500023F0A00324F4704444EA023243EA011154
:102960008261016210BD10B5806B0021C185C184F8
:10297000FFF7E0F910BD01680C3151E8002F22F497
:10298000907241E80023002BF5D10168143151E821
:10299000002F22F0010241E80023002BF5D1016B4A
:1029A000012909D101680C3151E8002F22F01002F1
:1029B00041E80023002BF5D1202180F842100021AE
:1029C0000163704708B590F84210222901D0022017
:1029D00008BD82684FF480539A4201D1016921B148
:1029E000816A9A421BD04AB10AE00268816A526841
:1029F000C2F308020A80816A891C08E0026972B188
:102A00000268526802F07F020A70816A491C816282
:102A1000C18D491E0904090CC18503D01BE0026861
:102A20005268F1E70168CA6822F02002CA600168B2
:102A3000CA6822F48072CA6001684A6922F0010201
:102A40004A61202180F8421000214163026B012A73
:102A500003D0FFF747FB002008BD016301680C317C
:102A600051E8002F22F0100241E80023002BF5D19D
:102A700001680A68D20602D50A6849680091818D0A
:102A8000FFF757F9E7E7000070B5044600680169F1
:102A9000E26821F44051114301612169A068E269B3
:102AA00008436169114308432168CA6849F20C630D
:102AB0009A430243CA6020684169A26921F44071C7
:102AC0001143416131492068884202D0304988422F
:102AD00002D1FEF721FA01E0FEF70EFAE2690023C7
:102AE000192164253226B2F5004F626828D0A0FB78
:102AF0000101930F9200FDF7C3FB0146B0FBF5F017
:102B00006FF01802504301EB800006EB0010B0FBA1
:102B1000F5F000F0F002B1FBF5F002EB0012B1FBB2
:102B2000F5F06FF01803584301EB800006EB00103E
:102B3000B0FBF5F000F00F0021681044886070BD14
:102B4000A0FB010192185B41FDF79AFB0146B0FB27
:102B5000F5F00201B1FBF5F06FF01803584301EBFB
:102B6000800006EBC000B0FBF5F000F0F80002EBCF
:102B70004002B1FBF5F0584301EB800006EBC000CA
:102B8000B0FBF5F000F00700D6E7000000100140B0
:102B90000014014081628285C285002141642221A6
:102BA00080F84210016921B10168CA6842F480725C
:102BB000CA6001684A6942F001024A610068C1685E
:102BC00041F02001C160002070472DE9F84398468C
:102BD00017460D460446089E24E0701C22D0FEF7DE
:102BE00007F8A0EB0800B0421AD8CEB12068C1683F
:102BF000490717D5802D15D0402D13D00168C94342
:102C000009070FD401680025406800902046FFF7AF
:102C1000B2FE0820606484F840500120BDE8F883CB
:102C20000320FBE72068006835EA000004D000209C
:102C3000B842D2D00020F1E70120F9E70148FFF7C0
:102C40007BB80000E8010020FEE700000FB4054B50
:102C500010B503A9044A029800F0EAF810BC5DF828
:102C600014FB000091380008A00000200907090E9D
:102C7000002804DB00F1E02080F80014704700F029
:102C80000F0000F1E02080F8141D704702E008C832
:102C9000121F08C1002AFAD170477047002001E0D6
:102CA00001C1121F002AFBD1704700002DE9FF5F10
:102CB00082B00021DDE90430020DDDF840B00343AD
:102CC00018D044F61050A2F2FF3242431514119866
:102CD00001281FD0A5EB0B00401C5FEA000A4FF053
:102CE00000064E4FDFF83891B046504615D5CAF170
:102CF000000413E0119801244AA3012801D16FEACE
:102D00000B010298119AC0E90031C0E9024206B0F5
:102D1000BDE8F09FCBF10000DFE704460021404A08
:102D2000491842EB0450CDE9001012E0E00707D04B
:102D300032463B4640464946FDF79EFB8046894663
:102D400032463B4610461946FDF796FB06460F46AF
:102D50006410002CEAD1DDE90401DDE90023BAF1B9
:102D6000000F06DAFDF788FB42464B46FDF784FB71
:102D700005E0FDF7F3FB42464B46FDF7EFFB04464B
:102D80000E460022284BFDF7ABFD03D84FF0FF3075
:102D9000014607E00022254B20463146FDF7C5FAE3
:102DA000FDF785FD102409E0002C0ADB0A22002330
:102DB000FDF766FA039B30321A55641E50EA010291
:102DC000F2D1641C039AC4F111031444119A012A2C
:102DD00003D0012208430DD10AE0084304D00020AB
:102DE0004FF0110B119072E7A3EB0B056D1E0DE078
:102DF0005B4504DD4FF0000205F1010504E003DA54
:102E00004FF00002A5F10105002AECD002981199BB
:102E1000C0E90231C0E9004579E700000000144034
:102E20000000F03F300000000000F0430000E03FF1
:102E30002DE9FF4F95B09B468946064600250FE2D7
:102E4000252877D100242746F84A0121059400E07F
:102E5000044316F8013F203B01FA03F01042F7D17A
:102E600030782A2811D06FF02F033078A0F130028B
:102E7000092A16D8059A44F0020402EB820203EBF9
:102E800042021044761C0590EFE759F8042B059296
:102E9000002A03DA504244F40054059044F002043E
:102EA000761C30782E2816D116F8010F44F0040451
:102EB0002A280DD06FF02F023078A0F13003092BB3
:102EC00009D807EB870302EB4303C718761CF3E727
:102ED00059F8047B761C30786C280FD006DC4C281F
:102EE00017D068280DD06A2814D104E0742810D0B7
:102EF0007A280FD10DE044F400140AE044F4801461
:102F000001E044F440147278824202D104F5801446
:102F1000761C761C307866280BD013DC582877D0C6
:102F200009DC002875D04528F6D04628F4D047287B
:102F30001AD19DE118E0632835D0642879D065283E
:102F400012D195E1702873D008DC6728F1D0692888
:102F50006FD06E280DD06F2806D1B5E073282CD025
:102F6000752875D0782874D05A46179990476D1CEB
:102F700075E1C4F30250022809D003280DD0D9F816
:102F8000001004280DD00D6009F1040967E1D9F89B
:102F90000010EA17C1E90052F6E7D9F800100D80D9
:102FA000F2E70D70F0E719F8041B8DF8001000200F
:102FB0008DF80100EA46012003E059F804AB4FF018
:102FC000FF3061074FF0000102D40DE008F101016C
:102FD0008846B9420FDA8045F8DB1AF80810002954
:102FE000F4D108E008F1010188468142FADB1AF8C1
:102FF00008100029F6D105985B46A0EB080721468A
:103000003846179A00F094FA284400EB080507E0C8
:103010004DE029E10DE01AF8010B5A461799904747
:10302000B8F10108F7D25B4621463846179A13E1FA
:1030300042E00A220092C4F302524FF0000A022A30
:1030400008D059F804CB032A4FEAEC710AD00DE0FE
:1030500029E02AE009F1070121F00702F2E802C1A4
:10306000914609E00FFA8CFC4FEAEC71042A03D177
:103070004FFA8CFC4FEAEC71002907DA0A4600216E
:10308000DCF1000C61EB02012D2202E0220504D5E7
:103090002B228DF80420012203E0E20701D0202238
:1030A000F7E7904659E00A2102E010220DE01021D6
:1030B0004FF0000A00910BE010224FF0000A44F09C
:1030C00004040827009203E008224FF0000A00924F
:1030D000C4F30252022A05D059F804CB0021032A76
:1030E00008D009E009F1070121F00702F2E802C166
:1030F000914605E01FFA8CFC042A01D10CF0FF0C6C
:103100004FF00008220728D5702806D0009B83F0D6
:10311000100353EA0A0305D00EE040228DF8042084
:10312000012208E05CEA010206D030228DF804207A
:103130008DF8050002229046009B83F0080353EAB5
:103140000A030AD15CEA010201D1620705D53022E7
:103150008DF804204FF001087F1E582804D034A0B9
:1031600003900EA802900DE036A0F9E753466046A2
:10317000009AFDF785F884460398825C0298401E09
:10318000029002705CEA0100F0D1029806A9081AC8
:1031900000F1200A600702D524F4803400E0012702
:1031A000574502DDA7EB0A0000E0002000EB0A0112
:1031B000009005984144401A0590E00306D45B4610
:1031C0002146179A059800F0B3F90544002706E058
:1031D00001A85A46C05D179990476D1C7F1C474552
:1031E000F6DBE0030CD55B462146179A059800F004
:1031F0009FF9054404E030205A46179990476D1C0A
:103200000099481E00900029F5DC08E00298029918
:103210005A460078491C0291179990476D1CBAF1E3
:103220000001AAF1010AF1DC65E1000009280100B2
:10323000303132333435363738396162636465662C
:1032400000000000303132333435363738394142EE
:10325000434445460000000000F058F90544761C40
:10326000307800287FF4ECAD19B02846BDE8F08F27
:10327000620700D4062709F1070222F0070CFCE8D8
:103280000223E14603F000485FEA080C02D00FF287
:10329000702C0DE05FEA045C02D50FF2682C07E0A9
:1032A0005FEAC47C02D00FF2602C01E0AFF2700C38
:1032B0004FF0FF3823F00043CDF850C065280CD004
:1032C00006DC452809D046281DD047283DD13DE0E1
:1032D000662818D067287ED138E00021112F01DB45
:1032E000112000E0781CCDE9000106A90EA8FFF727
:1032F000DDFCDDE90F010E9A03910021009207F138
:10330000010A04914DE04FF000400097CDE9011013
:1033100006A90EA8FFF7CAFCDDE90F0203920E9B77
:1033200011990022DDF80CA00093049211B9791CC8
:1033300000EB010AB7EB0A0004D4C0F1FF3007F13B
:10334000010A0490AAEB0700019044E0012F00DA83
:1033500001270021112F01DD112000E03846CDE9C1
:10336000000106A90EA8FFF7A1FCDDE90F010E9AE6
:103370000391002104910092BA4621070CD40399CD
:10338000514500DA8A46BAF1010F05DD009AAAF12B
:103390000101515C302908D0B84202DA10F1040F63
:1033A00006DA0121CDE9011015E0AAF10101E9E7F2
:1033B000002805DC049901440491AAEB000102E015
:1033C000411C514500DD8A460499401A401C019079
:1033D0004FF000400290200704D40198504501DBD3
:1033E000CDF8048000208DF84F0002980DF14F07B2
:1033F000B0F1004F25D02B200E9002984FF002081C
:1034000000280CDA404202902D200E9007E00A219D
:103410000298FDF771F93031029007F8011DB8F1FB
:103420000001A8F10108F2DC02980028EFD1791E12
:103430000E980870307800F0200040F0450007F842
:10344000020D12A8C01B00F107081498007800B103
:10345000012000EB0A01019801EBE071059841445D
:10346000401A401E0590E00306D45B462146179A99
:10347000059800F05DF805441498007818B15A4694
:10348000179990476D1CE00324D55B462146179A97
:10349000059800F04DF805441CE00498002807DB6F
:1034A000DDE90301884203DD0098405C179901E0E3
:1034B000179930205A469047049805F10105401CA1
:1034C00004900198401E019004D12E205A4617996D
:1034D00090476D1CBAF10001AAF1010ADDDC05E09C
:1034E00017F8010B5A46179990476D1CB8F1000167
:1034F000A8F10108F4DC5B462146179A0598ABE673
:103500002D0000002B000000200000002DE9F041FC
:10351000044600251E461746880404D405E03946B3
:103520002020B0476D1C641EF9D52846BDE8F08107
:103530002DE9F041044600251E469046C80301D5FA
:10354000302700E02027880404D505E041463846AE
:10355000B0476D1C641EF9D52846BDE8F081000017
:1035600030B589B00D46044624216846FCF7D2FEEA
:1035700034B12B4600220121684600F041F810B119
:10358000012009B030BD9DF805009DF8041000022F
:1035900000B2084300EE100AF8EEC00A9FED160ACA
:1035A00020EE801ADFED150A21EE201A84ED001AB4
:1035B0009DF807009DF80610000200B2084301EED6
:1035C000100AB8EEC11A21EE001A21EE201A84ED7D
:1035D000011A9DF809009DF80810000200B2084386
:1035E00001EE100A0020B8EEC11A21EE000A20EE0A
:1035F000200A84ED020AC4E70000003800003443CA
:103600002DE9F84F00241F4692468B4681462646F8
:1036100025464FF47A786FB10121684600F0D8F85A
:10362000C0B3042C44D008DC64B1012C14D0022CAB
:1036300042D130E00320BDE8F88F082C4AD0162C88
:103640003AD159E09DF80000552835D189F800009D
:1036500089F82000012457E05FEA0A0004D0BAF19B
:10366000010F0BD00220E6E79DF80000552823D17A
:1036700089F8010099F82000553008E09DF8000015
:10368000AF2819D189F8010099F82000AF3089F8E6
:103690002000022438E09DF8000058450CD189F83C
:1036A000020099F820100424084489F820002BE037
:1036B0009DF800001C2801D9002425E089F80300AA
:1036C00099F82010014489F8201008B108241BE063
:1036D000162419E009EB06019DF80000087199F81D
:1036E0002010761C084489F8200099F80300F6B2EF
:1036F000B04209D10026EBE799F820009DF80010B0
:103700008842D9D1002096E7012000F0B1F86D1C65
:10371000ADB245457FF47FAF00257F1E7BE70000FB
:1037200010B500F04BF864220749032000F00EF8B2
:1037300040B105496422491C042000F007F808B193
:10374000002010BD012010BD1C000020F0B58BB082
:103750000E460546174624216846FCF7DBFD55203A
:103760008DF82400AF208DF8250045F080048DF8F9
:10377000264001208DF8270000208DF82800641DC8
:103780008DF82940062109A800F068F83B4601227F
:1037900029466846FFF734FF00284FF000000BD1A0
:1037A000694604E00A1812793254401CC0B29DF8F0
:1037B00003208242F6D8D0B20BB0F0BD034880217E
:1037C00020F8801F0021418081807047C0020020C6
:1037D00070B5054612480446B0F88420B0F882302F
:1037E000B4F880409A4201D3D21A01E0E31A1A4495
:1037F00092B2914200D9114600220CE0B0F882301A
:10380000C65CAE545B1CB3FBF4F604FB1633521CCF
:10381000A0F8823092B28A42F0D3084670BD000010
:10382000C002002070B500220B4B10E0B3F88450AA
:10383000845C5C55B3F88440B3F88050641CB4FBDE
:10384000F5F605FB1644521CA3F8844092B28A4256
:10385000ECD3002070BD0000C00200200A460146E3
:103860004FF0FF330148FEF751BC0000E801002093
:103870000CB500210B22009107E011460192491E70
:103880000191FCD10099491C00918142F5D30CBDF6
:1038900013B54FF6FF73012269460248FEF736FC66
:1038A00000981CBD30020020FDF7B0F9FEF780FE45
:1038B000FEF78EFCFEF7D8FDFEF7D2FCFEF734FDD6
:1038C000FEF768FDFEF7ECFDFEF79AFD01221449B4
:1038D0001448FEF7F9FB3C211348FDF713FF3C2188
:1038E0001248FDF70FFF1248FDF7ACFD002111480B
:1038F000FEF7CEF804210F48FEF7CAF808210D485C
:10390000FEF7C6F80C210B48FEF7C2F8FEF7E6FDFD
:1039100000F020F8FEF74CFC00F02EF8FEE7000067
:1039200008000020E80100201001002058010020BC
:10393000A0010020C800002010B5EFF3058111B1EF
:103940006FF0050403E0002408B100F0F9FD204603
:1039500010BD0000EFF3058010B16FF00500704757
:103960000448016811B14FF0FF3070470121016038
:10397000002070477000002010B5EFF3058010B1F3
:103980006FF0050010BD08480168012902D04FF012
:10399000FF3010BD054A002182F8141D022101608C
:1039A00000F036FE002010BD700000200BE000E0AB
:1039B0002DE9FF414FEA01034FF00005EFF30581C8
:1039C000039549BB40B38027182100244AB31668E9
:1039D00006B1344696691EB13146761E382E02D2A3
:1039E0001679F60703D0002004B0BDE8F0815669CF
:1039F00006B1B708D2F808C0BCF1000F0DD0D568E9
:103A00005C2D18D312693AB136B18DE806103A46EA
:103A1000214601F096F903900DE0D6685EB912696F
:103A20004AB903AACDE90012BAB2214601F05CF905
:103A3000012800D003950398D6E700002DE9F04156
:103A4000134C0F460546E6682068001D00F044FC54
:103A5000681C07D137B12168BDE8F0410D48091D48
:103A600000F08ABC20683544B5424560216805D223
:103A7000A06BBDE8F041091D00F066BC606B091D3C
:103A800000F062FCA06A854200D2A562BDE8F08128
:103A900020000020D40800202DE9F041054600F068
:103AA00077FC2D4CA068401CA06020682B4F10B103
:103AB000606930B32BE02560A068012827D100267B
:103AC00006EB860007EB800000F030FC761C382EF9
:103AD000F6D3234800F02AFC2148143000F026FCDD
:103AE0001F48283000F022FC1D483C3000F01EFC2E
:103AF0001B48503000F01AFC194860631430A06372
:103B000005E02068E96AC06A884200D82560606ADA
:103B1000401C60626864E86A2169884200D92061BB
:103B200000EB800007EB8000291D00F025FC00F071
:103B30004FFC606900280CD02068E96AC06A88429E
:103B400007D208494FF080500860BFF34F8FBFF392
:103B50006F8FBDE8F08100002000002024040020C9
:103B60008408002004ED00E038B500F011FC104C92
:103B70002068C8B90F4800F0D9FB0E48143000F097
:103B8000D5FB0C48E060143020610A4B0020F03B6C
:103B9000009003F1500210210A2000F047FE20603F
:103BA00010B105A100F096FCBDE8384000F010BC53
:103BB0005C000020D8090020546D72510000000004
:103BC00030B4026C0B46002A0BD0C1681144C160AE
:103BD0008468A14201D30168C16030BC1846FCF77B
:103BE00080BB30BC70472DE9F041856B1746044619
:103BF0000026026C82B1C7B1E068FCF772FBE16895
:103C0000206C091AE1602268914202D2A168081A68
:103C1000E060022F16D017E02068A8B9A06801F074
:103C200033F906460020A0600EE06068FCF759FBFF
:103C3000216C606808446060A168884204D32068F1
:103C4000606001E005B16D1E6D1CA5633046BDE8E6
:103C5000F08110B5044690F8590058B101280CD0F5
:103C600002280FD0502080F31188BFF34F8FBFF38D
:103C70006F8FFEE7206B00F0BFFB2046BDE81040D1
:103C800000F0BABB10BD000010484FF4705142075D
:103C900006D0C01D0D4920F00700411AC1F5705132
:103CA0000B4A00230144C2E900030839183A21F005
:103CB000070111604B600B600B1AC0E900139360A1
:103CC0004FF000405360506170470000B810002072
:103CD0008C000020144E154CA6F29C474FF08058E3
:103CE000DFF84C9012E000BF00F052FBF068C568AE
:103CF000281D00F0F1FAA068401EA0606068401E18
:103D0000606000F065FB2846FFF7A3FF60680028AD
:103D1000EAD138680128F9D9C9F80080BFF34F8F7C
:103D2000BFF36F8FF2E70000C008002020000020E2
:103D300004ED00E070B51D46049C51B1C4F80020AC
:103D4000C4E90F010121204600F0A4FD84F84C5085
:103D500070BD2460F4E700002DE9F05F8846DDE9DE
:103D60000B941546834691009A460A9EA522206B25
:103D7000FCF7C9FA6FF00301206B01EB85010844E1
:103D800020F00707780707D0502080F31188BFF391
:103D90004F8FBFF36F8FFEE70025B8F1000F0FD0F4
:103DA0005FF00000221818F8001082F8341018F89C
:103DB000001011B1401C1028F4D384F8435001E0E6
:103DC00084F83450382E00D33726E662C4E91365F0
:103DD000201D00F0B6FA04F1180000F0B2FA2461D8
:103DE000C6F138006462A061656584F85850524697
:103DF0005946384600F05AFA2060B9F1000F01D058
:103E0000C9F80040BDE8F09F30B5114900E0114607
:103E10000A688242FBD34B685C18844203D1406835
:103E200018444860084643681C18944209D1084C5D
:103E3000183C2468A24209D052681A4442600A68B9
:103E400012680260814200D0086030BD0460F9E76A
:103E50008C00002070B5002441600B4D0061914240
:103E600006D8D11A8269914206D2011D286907E05D
:103E70009A4203D2994201D3012403E0011DE8686C
:103E800000F062FA204670BD5C00002010B50446C8
:103E900000F07EFAA06B28B15FF0000400F098FA01
:103EA000204610BD0124F9E730B589B03C4D6EE0E5
:103EB0000498002806DADDE90601059A904704987F
:103EC000002864DB069C606910B1201D00F004FA34
:103ED00003A800F0D7F8024604980A2857D2DFE872
:103EE00000F00505052D334A05052D3394F828000B
:103EF00040F0010084F828000599A069059B014461
:103F00002046FFF7A7FF68B3216A2046884794F848
:103F1000280040073BD5002000900598A1690023A8
:103F200042181946204601F0B9F8D8B9502080F35C
:103F30001188BFF34F8FBFF36F8FFEE714F8280F80
:103F400020F00100207022E094F8280040F00100E9
:103F500084F828000598A06128B1811813462046EE
:103F6000FFF778FF13E0502080F31188BFF34F8FE5
:103F7000BFF36F8FFEE794F82800810703D4204633
:103F800000F03AFA03E020F0010084F82800002253
:103F900004A9286800F0D2FD002889D109B030BDFD
:103FA0005C0000202DE9FC410F46054600F074FB43
:103FB00001A800F067F80446019818B100F0DCFF92
:103FC000BDE8FC81254EAFB130690068D0B3002751
:103FD000291B3A46306800F091FA00F0CDFF002826
:103FE000EED11F494FF080500860BFF34F8FBFF3F1
:103FF0006F8FE5E7A542EBD800F0BEFFF0682746DB
:10400000C068C468201D00F067F994F828004107D3
:1040100019D5A0692B4641193A462046FFF71AFFE9
:10402000A8B100200346014600902A46204601F030
:1040300035F860B9502080F31188BFF34F8FBFF37C
:104040006F8FFEE707E020F0010084F82800216A66
:1040500020468847B4E70127BAE700005C0000204B
:1040600004ED00E00648416B096829B1416BC9685D
:10407000C9684968816270474FF0FF31FAE7000074
:104080002000002070B5054600F094FE064E044660
:10409000B068844203D200F009F8012000E000205B
:1040A00028602046B46070BD5C000020F8B5194D52
:1040B00020E0C068C4680668201D00F00DF9216A80
:1040C0002046884794F82800400713D5A06930445B
:1040D000B04206D924616060211DE86800F034F91F
:1040E00008E000200346014600903246204600F0DA
:1040F000D5FF38B1E86801680029DAD12969C5E936
:104100000310F8BD502080F31188BFF34F8FBFF329
:104110006F8FFEE75C00002008484068401C4FF0AD
:10412000500080F3118804D0BFF34F8FBFF36F8F1F
:10413000FEE7BFF34F8FBFF36F8FFEE794000020C1
:10414000074CE068016841B1C0680021D0F8000068
:10415000FFF728FFFFF7A8FEF3E701210020F7E7AC
:104160005C0000202DE9F041044600F011F994F9BB
:10417000455004F1240609E0606A48B1304600F079
:10418000C3FE08B100F00AFA6D1E6DB2002DF3DC1B
:104190004FF0FF3684F8456000F01AF900F0F8F8A7
:1041A00094F9445004F1100709E0206948B13846F9
:1041B00000F0AAFE08B100F0F1F96D1E6DB2002DFD
:1041C000F3DC84F84460BDE8F04100F001B9000080
:1041D0002DE9F0410546002700F05EFA324E3068C6
:1041E00008B9FFF751FD706905424ED1C5B30835D6
:1041F00068070ED005F00700C0F108000544680705
:1042000007D0502080F31188BFF34F8FBFF36F8F1B
:10421000FEE72DB37068854237D823481830014631
:104220000C6801E020460C466168A94202D2216870
:104230000029F7D131688C4227D0076821680160D6
:1042400060680837411B10290FD96019420708D050
:10425000502080F31188BFF34F8FBFF36F8FFEE7BD
:1042600013E041606560FFF7CFFD61687068401A38
:104270007060B268904200D2B06070690143002063
:10428000C4E90001F068401CF06000F075FE78079A
:1042900007D0502080F31188BFF34F8FBFF36F8F8B
:1042A000FEE73846BDE8F0817400002010B5031F1A
:1042B0004FF080741C601B1F21F001011960191F51
:1042C000044B0B6014390A60091F6FF00202443876
:1042D0000A6010BD19410008D0E9013201699A60F5
:1042E000D0E901235A604A68824201D182684A605B
:1042F000002202610868401E0860086870470000DC
:10430000034B036003F15C0008608020106070477D
:10431000000A0020044B036003F15C0008604FF4C6
:1043200080701060704700005C0C002000F10801F4
:104330004FF0FF32C0E90112C1600161002101604C
:10434000704700210161704730B50B685A1C02D0DC
:1043500000F1080202E0026904E022465468256880
:104360009D42FAD953684B6099608A605160086138
:104370000168491C016030BD42684A6093688B60E7
:1043800093685960916008610168491C0160704739
:10439000502080F31188BFF34F8FBFF36F8F0A490E
:1043A0004868401C486001280CD10848006810F09B
:1043B000FF0F07D0502080F31188BFF34F8FBFF35A
:1043C0006F8FFEE7704700009400002004ED00E0CE
:1043D0000849486828B1401E486001D180F311881F
:1043E0007047502080F31188BFF34F8FBFF36F8F5A
:1043F000FEE700009400002070B500282AD0164D7A
:10440000A0F1080460686969084207D1502080F370
:104410001188BFF34F8FBFF36F8FFEE722683AB169
:10442000502080F31188BFF34F8FBFF36F8FFEE7EB
:104430008843606000F030F960686968084468602B
:104440002046FFF7E1FC2869401C2861BDE8704068
:1044500000F092BD70BD0000740000204FF0E0201D
:1044600000210161816105494FF47A720968B1FB4D
:10447000F2F1491E416107210161704718000020D7
:1044800010B5FBF7E7FE114910280ED300F1E0202C
:1044900090F8F0030A78904207D2502080F31188F8
:1044A000BFF34F8FBFF36F8FFEE70948006889683D
:1044B00000F4E060884207D9502080F31188BFF3F0
:1044C0004F8FBFF36F8FFEE710BD000094000020F8
:1044D0000CED00E010B5084B002200BF53F832404D
:1044E0001CB1521C082AF9D310BD43F8321003EB5B
:1044F000C201486010BD0000E403002070B51546FD
:104500000E460446FFF744FF94F944100020491C6E
:1045100001D184F8440094F94510491C01D184F874
:104520004500FFF755FFA06B28B92A46314604F134
:10453000240000F051F82046BDE87040FFF712BE9D
:1045400010B5020014D00F48006B38B1502080F332
:104550001188BFF34F8FBFF36F8FFEE700F09CF819
:1045600000211046FFF76AFA00F006FD002807D187
:1045700005494FF080500860BFF34F8FBFF36F8F36
:1045800010BD00002000002004ED00E002490A6A8E
:104590000260C96841607047200000200149012085
:1045A000C86170472000002010B50C4650B1094981
:1045B00009681831FFF7C8FE2046BDE81040012108
:1045C000FFF73CBA502080F31188BFF34F8FBFF341
:1045D0006F8FFEE72000002070B514460D4668B1CD
:1045E0000A4909681831FFF7C7FE0CB14FF0FF35D3
:1045F00021462846BDE87040FFF720BA502080F3DE
:104600001188BFF34F8FBFF36F8FFEE720000020AC
:1046100030B587B00024039405AA04A903A8049424
:10462000FFF76EFEDDE903010094CDE901100023E0
:1046300015A11748059A00F084FB164D0028E86282
:104640001FD000F0FBFC012809D0401C19D15020DC
:1046500080F31188BFF34F8FBFF36F8FFEE75020B9
:1046600080F31188BFF34F8FBFF36F8F4FF0FF3090
:10467000A86201206861EC6007B0BDE8304000F03E
:1046800045B807B030BD000049444C45000000006B
:10469000D53C0008200000200248016B491C016342
:1046A0007047000020000020164810B5016B11B1C2
:1046B0000121C16110BD0021C1610169124A01E0FF
:1046C000B9B1491E01EB810352F82330002BF7D01A
:1046D00001EB810302EB830202F1080453685B687B
:1046E0005360A34201D15B685360DA6802600161E4
:1046F00010BD502080F31188BFF34F8FBFF36F8F31
:10470000FEE7000020000020240400201CB53748EC
:104710000168374A914207D1502080F31188BFF3D6
:104720004F8FBFF36F8FFEE700683149491E884203
:1047300007D1502080F31188BFF34F8FBFF36F8FE5
:10474000FEE72C4908780190FF20087008788DF862
:1047500000009DF800009DF8002000F0F00090425D
:1047600007D0502080F31188BFF34F8FBFF36F8FB6
:10477000FEE79DF80000204C00F05000207007205C
:10478000A06005E09DF8002052008DF80020401E3A
:104790009DF800201206F5D4A060032807D0502011
:1047A00080F31188BFF34F8FBFF36F8FFEE74FF495
:1047B0004070A060019808700C482030016841F4F6
:1047C00070010160016841F070410160FFF746FE31
:1047D00000206060FBF706FD0848016841F0404199
:1047E0000160FBF7EBFC00201CBD000000ED00E0C9
:1047F00071C20F4100E400E09400002034EF00E0BB
:1048000010B5502080F31188BFF34F8FBFF36F8F27
:1048100000F0D6FA18B104494FF08050086000202B
:1048200080F3118810BD000004ED00E038B5049D50
:1048300018B153B1CAB181B120E0502080F3118882
:10484000BFF34F8FBFF36F8FFEE7502080F31188C7
:10485000BFF34F8FBFF36F8FFEE7502080F31188B7
:10486000BFF34F8FBFF36F8FFEE739B1502080F356
:104870001188BFF34F8FBFF36F8FFEE750241C46A4
:10488000012384F846302B460094FFF753FA204664
:1048900038BD000070B50D46040025D0FFF778FD47
:1048A000D4E90F20216802FB0011A1600021A1635F
:1048B000216861600A46D4E90F01401E00FB012116
:1048C000E16021464FF0FF3001F8440F487004F1D9
:1048D00010008DB1FFF72AFD04F12400FFF726FD3B
:1048E000FFF776FD012070BD502080F31188BFF3E3
:1048F0004F8FBFF36F8FFEE721690029F0D000F0E2
:1049000003FB0028ECD004494FF080500860BFF34F
:104910004F8FBFF36F8FE3E704ED00E02DE9FF4712
:1049200082B01D468A464FF00008040003D0BAF159
:10493000000F08D011E0502080F31188BFF34F8F93
:10494000BFF36F8FFEE7206C38B1502080F31188E1
:10495000BFF34F8FBFF36F8FFEE7022D0AD1E06BDD
:10496000012807D0502080F31188BFF34F8FBFF389
:104970006F8FFEE700F010FA3F4F4FF000094FF045
:10498000805648B9049838B1502080F31188BFF39D
:104990004F8FBFF36F8FFEE7FFF7FAFCA06BE16B61
:1049A000884207D3022D05D00498D0B1B8F1000F8A
:1049B0001AD01EE02A4651462046FFF714F9616AD4
:1049C00019B104F1240000F09FFA20B13E60BFF35A
:1049D0004F8FBFF36F8FFFF7FBFC012006B0BDE8E0
:1049E000F087FFF7F5FC22E06846FFF7CFFD4FF0B8
:1049F0000108FFF7EDFCFFF74FFEFFF7C9FC94F944
:104A00004400401C01D184F8449094F94500401CB6
:104A100001D184F84590FFF7DBFC04A9684600F05B
:104A200029F930B12046FFF79DFB00F0A5FA0020E0
:104A3000D4E7FFF7ADFCA06BE16B884213D1FFF721
:104A4000C7FC04F110000499FFF7AEFD2046FFF704
:104A500089FB00F091FA00289ED13E60BFF34F8F92
:104A6000BFF36F8F98E7FFF7B3FC2046FFF77AFBA1
:104A700000F082FA90E7000004ED00E02DE9F04735
:104A80001F4690468946040003D0B9F1000F08D0B4
:104A900011E0502080F31188BFF34F8FBFF36F8F69
:104AA000FEE7206C38B1502080F31188BFF34F8FA0
:104AB000BFF36F8FFEE7022F0AD1E06B012807D00A
:104AC000502080F31188BFF34F8FBFF36F8FFEE745
:104AD000FFF7D6FC5020EFF3118680F31188BFF367
:104AE0004F8FBFF36F8FA06BE16B884206D3022F0D
:104AF00004D0002086F31188BDE8F08794F9455072
:104B0000A06B3A4649462046FFF76DF8681C04D072
:104B10006D1C84F845500120ECE7606A0028FAD04B
:104B200004F1240000F0F0F90028F4D0B8F1000FEF
:104B3000F1D00121C8F80010EDE700002DE9F7479A
:104B4000002683B08A46040003D0BAF1000F08D0D3
:104B500011E0502080F31188BFF34F8FBFF36F8FA8
:104B6000FEE7206C38B1502080F31188BFF34F8FDF
:104B7000BFF36F8FFEE700F00FF9DFF8F4804FF01E
:104B800000094FF0805748B9059838B1502080F39C
:104B90001188BFF34F8FBFF36F8FFEE7FFF7F8FB6E
:104BA000A56BC5B151462046FFF70AF86D1EA563F7
:104BB000206950B104F1100000F0A6F928B1C8F83E
:104BC0000070BFF34F8FBFF36F8FFFF701FC012021
:104BD00006B0BDE8F087059808B11EB106E0FFF702
:104BE000F7FB27E06846FFF7D1FC0126FFF7F0FB53
:104BF000FFF752FDFFF7CCFB94F94400401C01D1B4
:104C000084F8449094F94500401C01D184F8459003
:104C1000FFF7DEFB05A9684600F02CF800282046C7
:104C20000AD0FFF79FFA00F0A7F92046FFF72EF908
:104C30000028B3D00020CBE7FFF728F990B104F1AA
:104C400024000599FFF7B0FC2046FFF78BFA00F02F
:104C500093F90028A2D1C8F80070BFF34F8FBFF3BB
:104C60006F8F9BE72046FFF77DFA00F085F995E707
:104C700004ED00E02DE9F0410C46050011D0C4B16F
:104C8000FFF786FB174BDA686E682068911B471C9C
:104C900017D02F681B6A9F4219D0964217D801245B
:104CA00010E0502080F31188BFF34F8FBFF36F8F58
:104CB000FEE7502080F31188BFF34F8FBFF36F8F53
:104CC000FEE70024FFF784FB2046BDE8F081884220
:104CD00005D9401A20602846FFF758FCF1E700206C
:104CE0002060DCE7200000202DE9FF5F8346DDE93E
:104CF0000E87994616468A469000FFF769FA050026
:104D00001CD05C20FFF764FA040014D00020256357
:104D100084F85900CDE90240CDE900874B46324680
:104D200051465846FFF718F82046FEF7B5FE012019
:104D300004B0BDE8F09F2846FFF75EFB4FF0FF3060
:104D4000F6E7F0B585B0DDE90B640A9DA6B1DCB1EC
:104D50005C2700972663022684F85960002604AF7A
:104D6000CDE90246CDE90057FEF7F6FF2046FEF7F3
:104D700093FE049805B0F0BD502080F31188BFF376
:104D80004F8FBFF36F8FFEE7502080F31188BFF382
:104D90004F8FBFF36F8FFEE70548416919B1006B74
:104DA00018B10020704701207047022070470000B2
:104DB000200000200148C06870470000200000204B
:104DC0002DE9F0412E4C0027206B28B1A069401C32
:104DD000A0613846BDE8F081E668761CE66013D134
:104DE000606B006838B1502080F31188BFF34F8F9B
:104DF000BFF36F8FFEE7606BA16B6163A063206AF6
:104E0000401C2062FFF72EF9A06ADFF87880864206
:104E100009D3606B0068A0B1606BC068C568686842
:104E2000864211D2A0622068C06A00EB800158F867
:104E30002100012800D90127E0690028C9D00127F5
:104E4000C7E74FF0FF30EDE7281DFFF745FAA86AE6
:104E500018B105F11800FFF73FFAE86A21698842A6
:104E600000D9206100EB800108EB8100291DFFF7CC
:104E700083FAE86A2168C96A8842CAD30127C8E769
:104E8000200000202404002070B504004FF0000131
:104E900033D01B4D2868844207D0502080F31188FE
:104EA000BFF34F8FBFF36F8FFEE7206D38B1401E09
:104EB0002065E36CE26A9A421FD040B11DE05020A9
:104EC00080F31188BFF34F8FBFF36F8FFEE7201D74
:104ED000FFF702FAE06CE062C0F13800A061E06A1E
:104EE0002969884200D92861064900EB800001EB5E
:104EF0008000211DFFF740FA0121084670BD000027
:104F0000200000202404002070B5C068C46854B19B
:104F100004F118000646FFF7DFF9144D286B50B175
:104F20003146134815E0502080F31188BFF34F8FAE
:104F3000BFF36F8FFEE7201DFFF7CEF9E06A296906
:104F4000884200D928610B4900EB800001EB80000A
:104F5000211DFFF711FAE06A2968C96A884202D95F
:104F60000120E86170BD002070BD0000200000201D
:104F7000AC080020240400202DE9F0472C4D00242B
:104F80002746286B38B1FFF703FA286B401E2863C9
:104F9000286B40B146E0502080F31188BFF34F8F5B
:104FA000BFF36F8FFEE7A968224E0120D1B3A6F5AB
:104FB000916980463068E0B1F068C46804F1180077
:104FC000FFF78AF9201DFFF787F9E06A296988420F
:104FD00000D9286100EB800109EB8100211DFFF75A
:104FE000CBF9E06A2968C96A8842E3D3C5F81C8016
:104FF000E0E70CB1FFF736F8AC694CB14FEA0806B0
:10500000FFF7DEFE00B1EE61641EF9D10020A86159
:10501000E86938B10849012738070860BFF34F8FA6
:10502000BFF36F8FFFF7D4F93846BDE8F087000073
:1050300020000020AC08002004ED00E010B586B090
:10504000FEF792FD114C2068B8B100200390049047
:1050500005AA04A903A8FFF75DF9DDE903210220F1
:105060008DE8070000230AA10B48059AFFF769FEA7
:10507000606010B106B0012010BD502080F311888F
:10508000BFF34F8FBFF36F8FFEE700005C0000207F
:10509000546D722053766300414100082DE9FF41B1
:1050A0001E46134602000A9D4FF0000016D0144C15
:1050B0002768002F0FD0CDE900130292062917DAD6
:1050C000FFF76AFE02284FF000030FD00022694666
:1050D0002068FFF723FC04B0BDE8F081502080F386
:1050E0001188BFF34F8FBFF36F8FFEE72A46EEE7BD
:1050F0000023324669463846FFF7C0FCEBE7000064
:105100005C0000204051000800000000000000008A
:105110000000000000000000000200001800000075
:10512000000000000000000000000000000000007F
:10513000010203040607080900000000010203043D
:105140004D50555F5441534B000000006C51000816
:1051500000000020A40000008C2C00081052000861
:10516000A4000020145400009C2C00080000000043
:10517000000000000000000001000000100000001E
:10518000000000000024F400000000000000000007
:10519000000000000000000000000000000000000F
:1051A00000000000000000000000000000000000FF
:1051B00000000000000000000000000000000000EF
:1051C00000000000000000000000000000000000DF
:1051D00000000000000000000000000000000000CF
:1051E00000000000000000000000000000000000BF
:1051F00000000000000000000000000000000000AF
:1052000000000000AAAAAAAA0000000000000000F6
:040000050800018965
:00000001FF
