:020000040800F2
:10000000D8230020990100089D23000859200008EA
:10001000E9220008D50900086D2900080000000049
:1000200000000000000000000000000001010008C6
:10003000D70900080000000045010008012400085D
:10004000B3010008B3010008B3010008B3010008C0
:10005000B3010008B3010008B3010008B3010008B0
:10006000B3010008B3010008B3010008B3010008A0
:10007000B3010008B3010008B3010008B301000890
:10008000B3010008B3010008B3010008B301000880
:10009000B3010008B3010008B3010008B301000870
:1000A000B3010008B3010008B3010008B301000860
:1000B000B30100088D24000800000000B30100080F
:1000C000B30100080000000000000000B3010008B8
:1000D0000000000061290008B301000800000000D2
:1000E000B3010008B3010008B3010008DFF80CD029
:1000F00000F05EFC00480047D5320008D8230020FD
:10010000224B19680868B0E8F00F80F30988BFF344
:100110006F8F4FF0000080F311884EF00D0E704786
:100120000000000006480068006880F3088862B696
:1001300061B6BFF34F8FBFF36F8F00DF00BF00BF0B
:1001400008ED00E0EFF30980BFF36F8F0F4B1A68E3
:1001500020E9F00F106008B54FF0500080F31188CF
:10016000BFF34F8FBFF36F8F04F032F84FF00000F2
:1001700080F31188BDE8084019680868B0E8F00FFE
:1001800080F30988BFF36F8F704700BF2000002005
:10019000EFF3058070470000064880470648004797
:1001A000FEE7FEE7FEE7FEE7FEE7FEE7FEE7FEE727
:1001B000FEE7FEE78B240008ED000008202A04DBA0
:1001C000203A21FA02F00021704721FA02F3D040D0
:1001D000C2F12002914008431946704740EA0103EA
:1001E0009B0703D009E008C9121F08C0042AFAD2ED
:1001F00003E011F8013B00F8013B521EF9D27047B1
:10020000D2B201E000F8012B491EFBD27047002258
:10021000F6E710B513460A4604461946FFF7F0FF05
:10022000204610BDF0B480EA0102D40F4200B2EBC8
:10023000410F02D20246084611464A0042D0C30D81
:10024000DDB2C1F3C752AD1A202D35DAC1F3160164
:1002500041F4000204B15242C5F1200602FA06F14F
:100260002A411044B3EBD05F23D0C4B1012DA0EBE1
:10027000C35009DCF0BC4FF0004202EAC352DBB2CB
:1002800000F5000000F0D9BA400000F1807000EBEA
:10029000C350A0F1807040EAD170490009E04908DC
:1002A00041EAC071A0EBC35000F50000400800EB2C
:1002B000C350F0BC00F0B8BA6142012202EB410128
:1002C000001BF6E7F0BC704781F00041AAE780F020
:1002D0000040A7E730B480EA010202F0004530F0A8
:1002E000004221F0004013D090B1C30DD40DC2F3F1
:1002F0001601C0F31600E41A41F4000140F40002B4
:100300007D34914201D3641C00E04900002C02DAE4
:1003100030BC002070474FF400000023914201D30D
:10032000891A034340084FEA4101F7D151B1914284
:1003300002D14FF0004105E002D24FF0010101E08F
:100340006FF0010103EBC450284430BC00F06CBADC
:100350002DE9FE4F804681EA0300C00F0C46009055
:1003600021F0004123F00045B8EB0200A94105D27D
:100370004046214690461C460B46024623F000406C
:10038000104347D0270DC7F30A00C3F30A51029068
:10039000401A019040286BDAC3F3130040F4801B2D
:1003A0000098924620B10023D2EB030A63EB0B0BBB
:1003B00001985946C0F14002504600F014FA064632
:1003C0000D4650465946019A00F01CFA10EB080001
:1003D0006141002487EA115284EAE7731A4340D04E
:1003E000009A62B3019A012A4FEA075215DC001BFA
:1003F00061EB02014FF0004202EA0752CDE90042F0
:10040000001C41F5801132462B4600F053FA03B030
:10041000BDE8F08F40462146F9E7001B61EB020181
:10042000001C41F5801300185B412018A2F500174D
:1004300047EB030140EAD570B6196D4111E06D0834
:100440004FEA360645EAC0754FEA0752001B61EBDA
:100450000201001C41F5801149084FEA30000019E3
:10046000514132462B4603B0BDE8F04F00F013BABD
:100470000098012240000023D0EB020263EBE073FE
:10048000009821464FEAE074B8EB000061EB0401EC
:10049000E9E783F000435BE781F0004158E72DE98D
:1004A000FE4F81EA030404F0004421F0004100946F
:1004B0004FF0000B23F0004350EA01045ED052EAF3
:1004C00003045BD0C3F30A54C1F30A552C44A4F2CD
:1004D000F3340194A0FB0254C1F3130141F48011E1
:1004E000C3F3130343F4801301FB024400FB034EE8
:1004F000840A970A44EA815447EA8357A4FB0768B1
:1005000002958D0A05FB07854FEA932C04FB0C54DA
:100510002705029D4FEA065847EA1637B5EB08054E
:100520006EEB070C870E920E47EA811742EA8312A0
:10053000A7FB0201B6EB0B0164EB00042B0D43EAB1
:100540000C335E1844EB1C50DA465146E7FB0201BF
:10055000C5F313044FEA0B3343EA14534FEA043252
:10056000019C43EA0603A4F10C040294009CCDE92B
:1005700000B400F09FF903B0BDE8F08F0020014601
:10058000F9E72DE9F04D81EA030404F0004B21F076
:10059000004514464FF0000A23F0004150EA0502DE
:1005A00020D054EA01021DD0C5F30A570246C5F314
:1005B0001303C1F31300C1F30A5640F4801543F44A
:1005C0008013A7EB0608101BD64608F2FD3873EB24
:1005D000050002D308F1010801E092185B41B8F16F
:1005E000000F03DA00200146BDE8F08D00204FF433
:1005F0008011064684460EE0171B73EB050705D3F2
:10060000121B63EB050306434CEA010C49084FEA51
:10061000300092185B4150EA0107EDD152EA030025
:1006200012D082EA040083EA0501084305D0101BBA
:10063000AB4106D20122002306E000224FF0004326
:1006400002E06FF0010253101AEB06004CEB085168
:1006500010EB0A0041EB0B01BDE8F04D00F01BB9B7
:10066000C10F80EAE0700844CA079623002100F019
:10067000E4B80EB5C10F80EAE0700844CA07002153
:1006800040F233438DE80E000A460B4600F012F9A3
:1006900003B000BD20F00040C10DC0F3160040F4CF
:1006A00000007F2901DA00207047962903DCC1F1A0
:1006B0009601C840704796398840704770B5C1F3BD
:1006C0000A5201F000450024C1F3130140F2FF3348
:1006D00041F480119A4201DA002070BD40F23343A8
:1006E0009A42A2F2334203DC5242FFF767FD00E078
:1006F00090402C43F1D0404270BD00F0004230F0F9
:1007000000400AD0C10D01F56071C0F3160042EA45
:100710000151C2084007114370470020014670474D
:1007200001F0004330B421F0004150EA010206D04C
:100730000A0DA2F56072C1F31301002A02DC30BC7D
:1007400000207047440F44EAC104C100E01830BCE7
:1007500000EBC25000F068B830B50B4601460020EF
:100760002022012409E021FA02F59D4205D303FA73
:1007700002F5491B04FA02F52844151EA2F10102F4
:10078000F1DC30BD2DE9F05F0546002092469B4626
:1007900088460646814640241BE028464146474697
:1007A0002246FFF70BFD53465A46C01A914110D31B
:1007B00011461846224600F016F82D1A67EB01087C
:1007C0004F4622460120002100F00DF817EB0009EA
:1007D0004E41201EA4F10104DFDC484631462A4682
:1007E0004346BDE8F09F202A04DB203A00FA02F1DC
:1007F000002070479140C2F1200320FA03F319430F
:1008000090407047202A06DBCB17203A41FA02F0CD
:1008100043EAE07306E041FA02F3D040C2F120025D
:1008200091400843194670470029A8BF7047401CF3
:10083000490008BF20F00100704710B4B0FA80FCF6
:1008400000FA0CF050EA010404BF10BC704749B133
:10085000CCF1200421FA04F411FA0CF118BF0121A3
:1008600021430843A3EB0C01CB1D4FEA00614FEA83
:10087000102042BF002010BC704700EBC350104452
:100880000029A4BF10BC7047401C490008BF20F0DD
:10089000010010BC704710B5141E73F1000408DA93
:1008A000401C41F1000192185B411A4301D120F034
:1008B000010010BD2DE9F04D92469B4611B1B1FAF1
:1008C00081F202E0B0FA80F220329046FFF78BFF0F
:1008D00004460F4640EA0A0041EA0B0153465A46D5
:1008E000084313D0114653EA010019D0C8F1400261
:1008F0005046FFF763FC05460E46504659464246B1
:10090000FFF771FF084305D0012004E02046394677
:10091000BDE8F08D0020054346EAE0762C433743DE
:100920000A986305E40AA0EB08000022FD0A44EAE5
:1009300047540A3002D500200146E9E701051019A5
:100940006941DDE9084500196941BDE8F04DA2E7BC
:10095000C1F30A52C1F3130140F2FF3341F4801195
:100960009A4202DA00200146704740F233439A422D
:10097000A2F2334202DC5242FFF720BCFFF733BF42
:1009800030B5041E71F1000404DB4FF00044404216
:1009900064EB0101141E73F1000405DB1C464FF0EB
:1009A0000043524263EB0403994208BF904230BDBA
:1009B000064C074D06E0E06840F0010394E80700AC
:1009C00098471034AC42F6D3FFF794FBAC4C0008C8
:1009D000CC4C0008FEE770472DE9FF412348016831
:1009E000486A00224A624EF66021884207DDFFF71E
:1009F00040FE1F4A1F4BFFF74CFDFFF75FFEFFF75E
:100A00002FFE1D4E80461D493060FFF763FCFFF747
:100A100074FE1B4A1B4BFFF742FD4FF033321A4B5B
:100A2000FFF73DFDFFF77CFE044621467068FFF7A7
:100A3000F9FB70602046FFF760FE0D460446134A3E
:100A4000134BFFF79EFDFFF76BFEB060FFF755FEFF
:100A500006460F464046FFF750FE8DE8F00002467E
:100A60000B460CA001F084FFBDE8FF81F0000020E0
:100A7000CDCCCCCC0400F0409C0000200000AF4462
:100A80004AD8124DFB210940333311407B14AE4745
:100A9000E17A743F252E30662020090909090925CD
:100AA0002E326620200909090909252E32662020E8
:100AB0000A00000072B6FEE710B590F8211000227F
:100AC000022905D00421816380F82020012010BD77
:100AD00001680B6823F00E030B6001680B6823F0BC
:100AE00001030B6090F84030C46B012101FA03F35D
:100AF000636080F8211080F82020104610BD0000AF
:100B000010B590F821100024022903D0042181633C
:100B100001243DE001680A6822F00E020A600168C3
:100B20000A6822F001020A601A4A0168914201D162
:100B3000012121E0174A1432914201D110211BE01A
:100B4000144A2832914201D1891515E0114A3C32EC
:100B5000914201D189140FE00E4A5032914202D1E4
:100B60004FF4803108E00B4A6432914202D14FF4D5
:100B7000801101E04FF08071064A083A516001216E
:100B800080F82110002180F82010416B01B18847C6
:100B9000204610BD080002402DE9F84FDFF89C9177
:100BA0000024A9F1040B23460F2709F1040AABF135
:100BB000040EBBE00125A5402A40AA4276D1DFF809
:100BC00080C14E68A6EB0C0866452BD00DDC032EC9
:100BD00034D005DC36B3012E19D0022E2FD11BE004
:100BE000112E16D0122E2AD119E0B8F5881F19D06F
:100BF00006DCB8F5803F15D0B8F5801F1FD111E095
:100C0000B8F5001F0ED0B8F5041F18D10AE0CB6864
:100C100015E0CB681B1D12E0CB6808330FE0CB68F2
:100C20000C330CE08B682BB1012B4FF0080303D081
:100C3000456104E0042302E0056100E00023FF2A8F
:100C400001D8064601E000F104064FEA840501D907
:100C5000A5F12005D6F8008007FA05FC28EA0C0863
:100C600003FA05F548EA0508C6F800804D68ED006E
:100C70005BD5344DAE6946F00106AE61AD6924F036
:100C8000030605F0010500952F4D06EB050CDCF879
:100C90000850A607360F07FA06F825EA0805DFF818
:100CA000AC80404503D14FF0000810E03DE0DFF894
:100CB000A080404502D14FF0010808E0DFF89480A1
:100CC000404502D14FF0020801E04FF0030808FA56
:100CD00006F848EA0508CCF808804D68D9F80060A5
:100CE000ED024D4601D5164300E096432E604D6857
:100CF000DAF80060AD02554601D5164300E0964390
:100D00002E604D68DBF80060AD035D4601D51643EB
:100D100000E096432E604D68DEF80060ED037546F6
:100D200001D5164300E096432E60641C0A6832FA2F
:100D300004F57FF43FAFBDE8F88F000008040140E0
:100D400000001110001002400000014000080140A6
:100D5000000C0140001001400AB101617047090414
:100D6000FBE7000001488068704700001000002089
:100D700002488168027811448160704710000020A9
:100D8000074810B5016841F010010160032000F030
:100D9000A7F80F2000F006F800F050F8002010BD72
:100DA0000020024030B505461F4887B0C16941F0B8
:100DB0000201C161C06906A900F00200009001A80B
:100DC00000F036F90498B0B100F052F9400017492C
:100DD000174AB0FBF1F11748491E0260416040F22A
:100DE000E7320021C0E903218160816100F072FBDC
:100DF000040003D015E000F03BF9E8E70D4800F0EF
:100E0000ABFB04000DD11D2000F03CF8102D07D2E3
:100E1000002229461D2000F043F80748056000E045
:100E2000012407B0204630BD0010024040420F00B0
:100E300000040040C8010020140000200F4808B53D
:100E4000816941F001018161816901F00101009135
:100E5000C16941F08051C161C069002200F0805039
:100E600000900F21901E00F01BF80548416821F00A
:100E7000E06141F00071416008BD000000100240D7
:100E800000000140002809DB00F01F020121914011
:100E90004009800000F1E020C0F800117047000018
:100EA000F0B40E4B1B680C46C3F30223C3F10705D5
:100EB000042D00D90425191D072901D2002300E0C3
:100EC000DB1E012606FA05F1491E214099409E408D
:100ED000761E16403143F0BC01F05ABD0CED00E027
:100EE000064900F0070208684FF6FF03184040EA81
:100EF0000220034A10430860704700000CED00E038
:100F00000000FA052DE9F0470F46050061D0434E79
:100F1000306800F00700B84209D2306820F00700BE
:100F200038433060306800F00700B84251D128687B
:100F30003B4C810712D5400703D5606840F4E06060
:100F400060602878000703D5606840F460506060F6
:100F50006068A96820F0F000084360602878C00746
:100F600028D06868012810D02168022810D089078D
:100F700000292EDA616821F0030101436160FFF767
:100F8000F1FE804641F288390DE021688903EFE7E0
:100F90008901EDE7FFF7E6FEA0EB0801494502D91C
:100FA0000320BDE8F0876068696800F00C00B0EBD2
:100FB000810FEFD1306800F00700B8420BD93068DC
:100FC00020F0070038433060306800F00700B84276
:100FD00001D00120E5E72878400705D56068E96879
:100FE00020F4E060084360602878000706D5606858
:100FF000296920F4605040EAC100606000F058F8B0
:101000006168084AC1F30311515CC8400649086091
:1010100006480068FFF7C6FE0020C2E70020024035
:10102000001002406A4C00081C0000201400002040
:101030000F2202600C4A536803F0030343605368B5
:1010400003F0F0038360536803F4E063C360526805
:101050004FF4E06303EAD20202610448006800F042
:1010600007000860704700000010024000200240A6
:101070000448054900684968044AC1F30221515CEB
:10108000C84070471C000020001002407A4C000845
:101090000448054900684968044AC1F3C221515C0B
:1010A000C84070471C000020001002407A4C000825
:1010B0000E4A51680E4801F00C03042B11D0082B86
:1010C0000FD10C48C1F38343C903C05C0AD55168F2
:1010D000084AC1F34041921E515C054A5043B0FB9F
:1010E000F1F0704704494843704700000010024087
:1010F00000127A005A4C000800093D002DE9F84F13
:10110000040070D02078C04DC00749D06868C0F393
:101110008100012807D06868C0F38100022809D146
:101120006868C00306D52868800339D56068002840
:10113000E7D035E06068B0F5803F0BD010B1B0F576
:10114000A02F11D0286820F480302860286820F46F
:10115000802002E0286840F480302860606890B108
:10116000FFF700FE06460AE0286840F48020286069
:10117000F0E700BFFFF7F6FD801B642873D82868EE
:101180008003F7D50CE0FFF7EDFD064605E000BF54
:10119000FFF7E8FD801B6428F0D828688003F7D4A7
:1011A00020789A4E80074FF001094FF0000839D59A
:1011B000686810F00C0F07D06868C0F3810002283F
:1011C00009D16868C00306D42868800714D520694F
:1011D000012808D110E02069B0B1C6F80090FFF7EF
:1011E000C1FD074605E00AE1FFF7BCFDC01B022870
:1011F000C4D828688007F7D52868616920F0F8000E
:1012000040EAC10028600DE0C6F80080FFF7AAFDA3
:10121000074604E0FFF7A6FDC01B022823D8286874
:101220008007F7D4207800072CD57948A169D9B177
:10123000C0F80090FFF796FD074604E0FFF792FD27
:10124000C01B02280FD8686A8007F7D571484FF491
:10125000FA510068B0FBF1F0009000BF0098411E09
:101260000091FAD20EE080E0C0F80080FFF77AFD2E
:10127000074604E0FFF776FDC01B022875D8686AB0
:101280008007F7D42078400760D5E8690027C000C0
:1012900008D4E86940F08050E861E869012700F06F
:1012A000805000905C480168C90513D401688346EA
:1012B00041F480710160FFF755FD824606E000BFF2
:1012C000FFF750FDA0EB0A0064284ED8DBF80000C1
:1012D000C005F5D5E06801280AD008B1052813D06B
:1012E000286A20F001002862286A20F0040002E049
:1012F000286A40F001002862E06841F2883B98B11A
:10130000FFF730FD82460BE0286A40F004002862B7
:10131000EEE700BFFFF726FDA0EB0A0159455AD8BA
:10132000286A8007F6D50CE0FFF71CFD824605E031
:10133000FFF718FDA0EB0A0159454CD8286A800731
:10134000F6D41FB1E86920F08050E861E06988B305
:101350006968C1F38101022944D00228C6F860807F
:1013600004D0FFF7FFFC044638E034E0FFF7FAFC56
:10137000074604E0FFF7F6FCC01B02282BD82868BC
:101380008001F7D4206AB0F5803F05D16868A16874
:1013900020F4003008436860D4E908010843696814
:1013A00021F4741108436860C6F86090FFF7DAFC16
:1013B000044606E025E000BFFFF7D4FC001B02282E
:1013C00009D828688001F7D51BE000BFFFF7CAFCE9
:1013D000001B022802D90320BDE8F88F286880018D
:1013E000F4D40EE00128F7D06868226A00F4803156
:1013F000914204D1616A00F47010884201D001204A
:10140000EAE70020E8E70000001002400000424246
:10141000800442421C00002000700040704770476A
:1014200010B590F83C20012A22D0012280F83C20FF
:10143000CA688C6822F4407222434C6822F48062AD
:1014400022430C6822F4006222430C6922F4805289
:1014500022434C6922F400522243C969002322F43A
:1014600080420A4301684A6480F83C30002010BD85
:10147000022010BD70B590F83C20012A23D0012431
:1014800080F83C40022280F83D2003685A689D683D
:1014900022F070060A6832435A600C4B02689A4286
:1014A00005D0B2F1804F02D0094B9A4204D149686D
:1014B00025F080031943916080F83D40002180F8B9
:1014C0003C10084670BD022070BD0000002C014099
:1014D0000004004010B5040003D094F83D0010B1A2
:1014E00007E0012010BD002084F83C00204600F0F9
:1014F0001FF8022084F83D00211D206800F0CCFF79
:10150000012084F8460084F83E0084F83F0084F807
:10151000400084F8410084F8420084F8430084F8D5
:10152000440084F8450084F83D00002010BD000010
:1015300008B500680649884208D10648816941F427
:1015400000618161806900F40060009008BD0000C6
:10155000002C01400010024090F83D10012901D0FC
:1015600001207047022180F83D100168CA6842F0EE
:101570000102CA6000680A49884205D0B0F1804F74
:1015800002D00849884204D1816801F00701062988
:1015900003D0016841F001010160002070470000A4
:1015A000002C01400004004070B5044690F83C0057
:1015B0000025012817D0012684F83C60022084F819
:1015C0003D002068826822F0770222F47F42826028
:1015D0000868502838D00DDC20284FD005DC90B3A7
:1015E000102811D14AE0022070BD302846D0402892
:1015F0000AD13BE060282FD070280DD0B0F5805F75
:1016000003D0B0F5005F12D0012584F83D600020C2
:1016100084F83C00284670BDCB68D1E901212068E0
:1016200000F075FF2068816841F0770109E0CB6820
:10163000D1E90121206800F06AFF2068816841F447
:1016400080418160E1E719E0CA684968206801F0DB
:1016500013F85021206806E0CA684968206801F044
:101660001CF86021206800F05CFFCEE7CA6849687A
:10167000206801F001F840212068F4E72268014663
:101680001046F0E72DE9F0410D46040003D094F830
:101690003D0018B108E00120BDE8F081002084F889
:1016A0003C00204600F040F8022084F83D0020680D
:1016B000816844F2070291438160211D206800F097
:1016C000EBFE226890689169166A2B68AF69034344
:1016D00040F20330814341EA0721A868EF690843DB
:1016E0004FF6FC418843E96840EA07200143286936
:1016F0002F6A000140EA0730084369686D6926F0E7
:10170000220646EA0515294393602268906154F841
:10171000460B0162012004F81F09E0752076E0768F
:101720002077A0750020B7E700B585B000210091B3
:101730000191029103910068B0F1804F16D10C48DD
:10174000C16941F00101C161C16901F00101049168
:10175000816941F0040181618069694600F00400FB
:101760000490032000900348FFF716FA05B000BD6F
:10177000001002400008014070B590F83E60044639
:1017800090F83F5090F8423090F84320022021B169
:10179000042914D0012E25D11EE0012E22D1012BC7
:1017A00020D184F83E0084F8420001220021206804
:1017B00000F0A0FE2068C16841F002012FE0012D79
:1017C00010D1012A0ED184F83F0084F8430004218F
:1017D000206800F08FFE1EE0012D03D1012B01D106
:1017E000012A01D0012070BD84F83E0084F83F003A
:1017F00084F8420084F8430001220021206800F0B0
:1018000079FE01220421206800F074FE2068C1687E
:1018100041F00201C1602068C16841F00401C1606B
:101820002068016841F001010160002070BD70472F
:1018300070B50446006801694FF00005C943890787
:1018400015D4C168C943890711D4E91E016101207B
:101850002077206880698007204602D0FFF7E7FFE5
:1018600004E000F0C1F8204600F053F92577206825
:101870000169C943490717D4C168C943490713D44B
:101880006FF004010161022020772068806910F464
:10189000407F204602D0FFF7CAFF04E000F0A4F822
:1018A000204600F036F9257720680169C943090709
:1018B00016D4C168C943090712D46FF00801016149
:1018C000042020772068C0698007204602D0FFF7F7
:1018D000AEFF04E000F088F8204600F01AF9257702
:1018E00020680169C943C90617D4C168C943C9063C
:1018F00013D46FF010010161082020772068C069BF
:1019000010F4407F204602D0FFF791FF04E000F082
:101910006BF8204600F0FDF8257720680169C9437F
:10192000C90708D1C168C943C90704D1891E01612B
:10193000204600F039F920680169C943090609D435
:10194000C168C943090605D46FF0800101612046D2
:10195000FFF764FD20680169C943490609D4C168DD
:10196000C943490605D46FF040010161204600F0EB
:1019700025F920680169C94389060BD4C168C943A8
:10198000890607D46FF0200101612046BDE8704050
:10199000FFF745BD70BD000000B585B00021009186
:1019A00001910291039100680C49884213D10C48BF
:1019B000816941F0040181618069694600F0040099
:1019C00004904FF440700090022001900320039097
:1019D0000448FFF7E1F805B000BD0000002C01400D
:1019E0000010024000080140704770B5044690F8AE
:1019F0003C0000260D4601280FD0012084F83C0051
:101A00006AB1042A1DD0082A2FD00C2A3FD0012603
:101A1000002084F83C00304670BD022070BD206874
:101A200000F088FD2068816941F00801816120682B
:101A3000816921F004018161206881692A6911436B
:101A400011E0206800F09EFD2068816941F400618A
:101A500081612068816921F48061816120688169E8
:101A60002A6941EA02218161D2E7206800F0B6FDCF
:101A70002068C16941F00801C1612068C16921F095
:101A80000401C1612068C1692A69114311E020681D
:101A900000F0D0FD2068C16941F40061C161206897
:101AA000C16921F48061C1612068C1692A6941EA84
:101AB0000221C161ACE710B5040003D094F83D00E9
:101AC00010B107E0012010BD002084F83C00204642
:101AD00000F01EF8022084F83D00211D206800F06F
:101AE000DBFC012084F8460084F83E0084F83F00C7
:101AF00084F8400084F8410084F8420084F84300F0
:101B000084F8440084F8450084F83D00002010BDAE
:101B10007047704710B50446022249B104290ED01F
:101B2000082913D094F84100012816D0012010BDD7
:101B300094F83E000128F9D184F83E200FE094F893
:101B40003F000128F2D184F83F2008E094F84000DB
:101B50000128EBD184F8402001E084F841200122E3
:101B6000206800F0C7FC0E492068884203D1426C0F
:101B700042F4004242642068884205D0B0F1804FB0
:101B800002D00849884204D1816801F00701062982
:101B900003D0016841F001010160002010BD000088
:101BA000002C01400004004000680349884201D134
:101BB000FFF7DEB870470000000400407047704730
:101BC00070470000F8B5016804460868CA684B69A8
:101BD00010F00F0F4FF0000559D003F0010602F48A
:101BE0009077374365D0C10705D0D10503D5616C27
:101BF00041F001016164410705D5D90703D0616C4B
:101C000041F002016164810705D5D90703D0616CF9
:101C100041F004016164010707D502F0200131435E
:101C200003D0616C41F008016164616C00293AD015
:101C3000800604D5900602D5204600F07BFD206882
:101C40004069616CC0F38010090700D460B320467E
:101C500000F049FD20684069400621D52068143015
:101C600050E8001F21F0400140E80012002AF5D1A1
:101C7000E06BA8B16D494163E06BFEF741FF0028BE
:101C800011D0E06B416B01B0BDE8F040084783061E
:101C90000FD593060DD52046BDE8F84000F04ABDAB
:101CA0002046FFF78DFFF8BD2046FFF789FF6564EA
:101CB000F8BD266B2023012E7CD1C6067AD5D60628
:101CC00078D508684868009048694FF002064006D9
:101CD00040D5E16B086840680004000CE8D0A28D94
:101CE0008242E5D9E085886920282DD020680C3013
:101CF00050E8001F21F4807140E80012002AF5D15D
:101D00002068143050E8001F21F0010140E8001263
:101D1000002AF5D12068143050E8001F21F040015E
:101D200040E80012002AF5D184F84230256320688B
:101D30000C3050E8001F21F0100140E80012002A8A
:101D4000F5D1E06BFEF7B8FE6663A08DE18D401A19
:101D500081B22AE0A08DE18D401A81B2E08D002889
:101D6000A6D00029A4D022680C3252E8000F20F43B
:101D7000907042E80007002FF5D12068143050E839
:101D8000002F22F0010240E80027002FF5D184F84F
:101D90004230256320680C3050E8002F22F01002FA
:101DA00040E80023002BF5D166632046FFF707FFCC
:101DB000F8BDFFE705062BD5150629D594F8410097
:101DC0002128F5D1A068B0F5805F01D12069B0B1BC
:101DD000206A411C2162216800784860E08C401E26
:101DE0000004000CE084E3D12068C16821F0800188
:101DF000C1602068C16841F04001C160D8E7206A35
:101E00000088C0F308004860206A801C2062E5E773
:101E10004006CDD55006CBD5CA68204622F04002F8
:101E2000CA6084F8413000F016F9C1E7D7260008EF
:101E300070B5040004D094F84100002510B106E00C
:101E4000012070BD84F84050204600F023F8242083
:101E500084F841002068C16821F40051C160204627
:101E600000F0CAFC2068016921F4904101612068FA
:101E7000416921F02A0141612068C16841F40051A3
:101E8000C1606564202084F8410084F842006563E5
:101E9000002070BD30B585B00024009401940294F8
:101EA00003942F4D03682F4802210322AB4231D106
:101EB000836943F480438361836903F4804304931B
:101EC000836943F0080383618069274D00F00800AF
:101ED00004904020CDE90001039269462846FEF7B0
:101EE0005BFE8020CDE90004694628460294FEF797
:101EF00053FE1E48416841F0E06141F00401416039
:101F0000002205212520FEF7CBFF2520FEF7BAFF92
:101F100005B030BD164DAB42FAD1C36943F400336E
:101F2000C361C36903F400330493836943F004037A
:101F3000836180690F4D00F0040004900420CDE916
:101F40000001039269462846FEF726FE0820CDE9E7
:101F50000004694628460294FEF71EFED8E70000FA
:101F60000038014000100240000C01400000014018
:101F7000004400400008014090F84230202B01D07E
:101F80000220704721B11AB10023036300F090BC16
:101F900001207047074910B5884203D10121064846
:101FA00001F070F9BDE81040012203490148FFF734
:101FB000E3BF0000380100200C0000202DE9F843A9
:101FC000044690F841001F4616460D46202802D0D0
:101FD0000220BDE8F8837DB176B100206064212045
:101FE00084F84100FEF7BEFEA6848046E684A06821
:101FF000B0F5805F02D003E00120EAE7206910B16C
:102000002E4600250EE000260CE08021204600F040
:102010006AFCA0B9AEB116F8010B21684860E08CEB
:10202000401EE084E08C43464FF0000200970028F9
:10203000EBD14FF04001204600F055FC30B10320B9
:10204000C7E735F8020BC0F30800E6E7202084F864
:1020500041000020BDE77047FEE7000010B5104BBF
:10206000002201210F4801F013FA0F4C0C4B002203
:102070006060103301210D4801F00AFAA0600521CB
:10208000606801F047FA0721A06801F043FA044AAA
:102090000021243A064801F0A9F9206010BD000093
:1020A000384C0008D9090008000000209F230008D0
:1020B000F923000870B586B000241C4800940194F0
:1020C00002940394816941F010018161816901F0FA
:1020D00010010491816941F020018161816901F061
:1020E00020010491816941F004018161816901F05D
:1020F00004010491816941F00801816180690C4EFD
:1021000000F008004FF400550490002229463046A4
:10211000FEF722FE01200095CDE901040220039084
:1021200069463046FEF738FD06B070BD001002402B
:102130000010014010B596B000240F941094119433
:10214000129413941C2168461494FEF760F8202121
:1021500007A8FEF75CF82C482A490160B321C0E9C2
:10216000011440F2E731C0E9031444618461FFF7D0
:10217000B1F908B1FEF79EFC4FF480500F900FA903
:102180002148FFF711FA08B1FEF794FC1E48FFF74B
:1021900092FC08B1FEF78EFC139413A91A4814940C
:1021A000FFF768F908B1FEF785FC6020CDE900046F
:1021B00002940394049405940022694612480694FC
:1021C000FFF713FC08B1FEF775FC042269460E48C0
:1021D000FFF70BFC08B1FEF76DFC07940894099417
:1021E0004FF400500A94CDE90B4007A906480E941D
:1021F000FFF716F908B1FEF75DFC0348FFF7CCFBCB
:1022000016B010BD002C0140A800002010B58CB005
:1022100024216846FDF7FBFF0024164809944FF07F
:1022200080410A94C0E900144FF6FF71C0E90241F1
:10223000046184610320CDE900040120CDE902049A
:1022400005210491CDE90540CDE9074169460948DA
:10225000FFF718FA08B1FEF72DFC099409A9054803
:102260000A94FFF707F9002801D0FEF723FC0CB011
:1022700010BD0000F00000200C4810B50A490160B4
:102280004FF4E1314160002181600C22C160C0E95E
:1022900004128161C161FFF7CBFD002803D0BDE8C6
:1022A0001040FEF707BC10BD003801403801002087
:1022B0000C4810B50A4901604FF4E131416000213A
:1022C00081600C22C160C0E904128161C161FFF725
:1022D000AFFD002803D0BDE81040FEF7EBBB10BDFA
:1022E0000044004080010020FEE700002DE9F04797
:1022F0004FF40008244DDFF894900C4606464FF446
:102300007A7740450FDA286887632148864200D9EA
:10231000064649463046FDF785FFFEF7BBF92968BA
:10232000486346450DDB286847631A48864200DD4E
:10233000064649463046FDF7CAFFFEF7ABF9296865
:1023400088634646B4420FDA2868C763124884425D
:1023500000D9044649462046FDF764FFFEF79AF986
:1023600029680864B4420CDB286807644846844244
:1023700000DD4C462146FDF7A7FFFEF78BF92968E3
:10238000C863BDE8F0870000A800002000007A4480
:10239000008009C40080094400007AC4FEE7704749
:1023A00010490F48104AC8600020086148618861E0
:1023B000C861C1E909020D4ACA624FF080420A634E
:1023C00034314860086088608861C861086248628A
:1023D0004FF0814088620648C8620648086370472B
:1023E00000008C42980200209A99D93F17B7D13942
:1023F000CDCCCC3D0000A040012000F0A1FFFBE7C8
:1024000010B5502080F31188BFF34F8FBFF36F8F4B
:1024100002F02CFA18B104494FF0805008600020F7
:1024200080F3118810BD000004ED00E030B58FB0DE
:1024300028216846FDF7EBFE14210AA8FDF7E7FE08
:1024400001210804CDE90010002402940225049122
:10245000CDE907504FF4E01009906846FEF74EFEB4
:1024600008B172B6FEE70F20CDE90A054FF480608F
:10247000CDE90C4002210AA80E94FEF743FD002886
:1024800001D072B6FEE70FB030BD70470148FFF7CC
:10249000CFB90000C801002070B50268134B144C7E
:1024A0004FF08046984203D0B04201D0A04203D101
:1024B00022F070054A682A43984203D0B04201D006
:1024C000A04203D122F44074CA6822434C6922F02E
:1024D0008002224302608A68C2620A68826298426D
:1024E00001D1096901630121416170BD002C0140E6
:1024F0000004004010B501F01F030121046A994057
:102500008C430462016A9A401143016210BD10B508
:10251000846842EA032224F47F440A43224382600F
:1025200010BD826822F070020A4342F00701816008
:102530007047000030B5036A026A22F001020262AD
:102540004268846924F073050C682C4323F002056B
:102550008B682B430A4DA8420BD123F00805CB68AA
:1025600022F440722B434D6923F0040315438A691A
:102570002A434260846149684163036230BD0000C0
:10258000002C014030B5026A036A23F01003036295
:10259000436884690D6824F4E64444EA05248D68A0
:1025A00022F0200242EA05120B4DA8420ED1CD685E
:1025B00022F0800242EA05124D6923F4406343EAA7
:1025C00085038D6922F0400243EA850343608461FC
:1025D00049688163026230BD002C014030B5036A56
:1025E000026A22F4807202624268C46923F40073B2
:1025F00024F073050C682C438D6843EA05230C4DC9
:10260000A8420ED1CD6823F4006343EA05234D6947
:1026100022F4405242EA05128D6923F4806342EAB3
:1026200005124260C4614968C163036230BD0000A5
:10263000002C014030B5046A026A22F48052026222
:102640004268C3690D6823F4E64343EA05238D68B5
:1026500024F4005444EA0534064DA84204D14D69DF
:1026600022F4804242EA85124260C36149680164F3
:10267000046230BD002C014010B5036A046A24F0E6
:1026800001040462846924F0F00444EA021423F093
:102690000A020A438461026210BD10B5036A046A2B
:1026A00024F010040462846923F0A00324F470442D
:1026B00044EA023243EA01118261016210BD10B5A1
:1026C00001F07EFB002805D0D0E90021BDE81040D4
:1026D0000846104710BD10B5406A0021C185C1846D
:1026E000FFF76EFA10BD01680C3151E8002F22F49B
:1026F000907241E80023002BF5D10168143151E8B4
:10270000002F22F0010241E80023002BF5D1016BDC
:10271000012909D101680C3151E8002F22F0100283
:1027200041E80023002BF5D1202180F84210002140
:102730000163704708B590F84210222901D00220A9
:1027400008BD82684FF480539A4201D1016921B1DA
:10275000816A9A421BD04AB10AE00268816A5268D3
:10276000C2F308020A80816A891C08E0026972B11A
:102770000268526802F07F020A70816A491C816215
:10278000C18D491E0904090CC18503D01BE00268F4
:102790005268F1E70168CA6822F02002CA60016845
:1027A000CA6822F48072CA6001684A6922F0010294
:1027B0004A61202180F8421000214163026B012A06
:1027C00003D0FFF7E7FB002008BD016301680C316F
:1027D00051E8002F22F0100241E80023002BF5D130
:1027E00001680A68D20602D50A6849680091818D9D
:1027F000FFF7E5F9E7E7000070B5044600680169F6
:10280000E26821F44051114301612169A068084345
:10281000616908432168CA6841F20C639A43024324
:10282000CA6020684169A26921F440711143416185
:102830001E492068884202D1FEF72AFC01E0FEF71B
:1028400017FC00EBC00101EB0012606864218000FE
:10285000B2FBF0F3B3FBF1F36FF018067343B2FB76
:10286000F0F5B2FBF0F605EB8305322303EB05151B
:10287000B5FBF1F5B6FBF1F605F0F00505EB061535
:10288000B2FBF0F6B2FBF0F0B0FBF1F06FF0180223
:10289000504306EB800003EB0010B0FBF1F0216821
:1028A00000F00F002844886070BD0000003801402F
:1028B00081628285C28500214164222180F8421014
:1028C000016921B10168CA6842F48072CA60016876
:1028D0004A6942F001024A610068C16841F0200182
:1028E000C160002070472DE9F041984617460E461A
:1028F0000446069D27E0681C25D02DB1FEF732FA6C
:10290000A0EB0800A8421ED920680C3050E8001F38
:1029100021F4D07140E80012002AF5D1206814306B
:1029200050E8001F21F0010140E80012002AF5D113
:10293000202084F8410084F84200002084F8400000
:102940000320BDE8F0812068006836EA000004D06A
:102950000020B842CFD00020F3E70120F9E70000C3
:102960000148FFF72FB9000038010020FEE7000002
:102970000FB4054B10B503A9044A029800F0EAF819
:1029800010BC5DF814FB0000BD3200089800002068
:102990000907090E002804DB00F1E02080F800148C
:1029A000704700F00F0000F1E02080F8141D704720
:1029B00002E008C8121F08C1002AFAD17047704708
:1029C000002001E001C1121F002AFBD17047000066
:1029D0002DE9FF5F82B00021DDE90430020DDDF852
:1029E00040B0034318D044F61050A2F2FF324243E5
:1029F0001514119801281FD0A5EB0B00401C5FEAAD
:102A0000000A4FF000064E4FDFF83891B0465046AE
:102A100015D5CAF1000413E0119801244AA3012836
:102A200001D16FEA0B010298119AC0E90031C0E9A7
:102A3000024206B0BDE8F09FCBF10000DFE704469C
:102A40000021404A491842EB0450CDE9001012E041
:102A5000E00707D032463B4640464946FDF71FFD9A
:102A60008046894632463B4610461946FDF717FD1B
:102A700006460F466410002CEAD1DDE90401DDE9C9
:102A80000023BAF1000F06DAFDF709FD42464B4676
:102A9000FDF705FD05E0FDF774FD42464B46FDF7E9
:102AA00070FD04460E460022284BFDF769FF03D84F
:102AB0004FF0FF30014607E00022254B204631460B
:102AC000FDF746FCFDF744FF102409E0002C0ADB6B
:102AD0000A220023FDF756FE039B30321A55641E6E
:102AE00050EA0102F2D1641C039AC4F111031444A8
:102AF000119A012A03D0012208430DD10AE00843AC
:102B000004D000204FF0110B119072E7A3EB0B05DE
:102B10006D1E0DE05B4504DD4FF0000205F101057F
:102B200004E003DA4FF00002A5F10105002AECD021
:102B300002981199C0E90231C0E9004579E7000027
:102B4000000014400000F03F300000000000F0439F
:102B50000000E03F2DE9FF4F95B09B4689460646B1
:102B600000250FE2252877D100242746F84A0121C5
:102B7000059400E0044316F8013F203B01FA03F0FE
:102B80001042F7D130782A2811D06FF02F03307817
:102B9000A0F13002092A16D8059A44F0020402EB8B
:102BA000820203EB42021044761C0590EFE759F8CD
:102BB000042B0592002A03DA504244F40054059095
:102BC00044F00204761C30782E2816D116F8010F36
:102BD00044F004042A280DD06FF02F023078A0F1C1
:102BE0003003092B09D807EB870302EB4303C7180F
:102BF000761CF3E759F8047B761C30786C280FD0EC
:102C000006DC4C2817D068280DD06A2814D104E0BF
:102C1000742810D07A280FD10DE044F400140AE093
:102C200044F4801401E044F440147278824202D1EA
:102C300004F58014761C761C307866280BD013DCE3
:102C4000582877D009DC002875D04528F6D04628CA
:102C5000F4D047281AD19DE118E0632835D06428C4
:102C600079D0652812D195E1702873D008DC6728E7
:102C7000F1D069286FD06E280DD06F2806D1B5E04D
:102C800073282CD0752875D0782874D05A46179997
:102C900090476D1C75E1C4F30250022809D0032847
:102CA0000DD0D9F8001004280DD00D6009F10409E9
:102CB00067E1D9F80010EA17C1E90052F6E7D9F840
:102CC00000100D80F2E70D70F0E719F8041B8DF885
:102CD000001000208DF80100EA46012003E059F8B9
:102CE00004AB4FF0FF3061074FF0000102D40DE05C
:102CF00008F101018846B9420FDA8045F8DB1AF87D
:102D000008100029F4D108E008F101018846814249
:102D1000FADB1AF808100029F6D105985B46A0EBFB
:102D2000080721463846179A00F094FA284400EB29
:102D3000080507E04DE029E10DE01AF8010B5A46BD
:102D400017999047B8F10108F7D25B4621463846FB
:102D5000179A13E142E00A220092C4F302524FF0A4
:102D6000000A022A08D059F804CB032A4FEAEC7172
:102D70000AD00DE029E02AE009F1070121F007025D
:102D8000F2E802C1914609E00FFA8CFC4FEAEC71BF
:102D9000042A03D14FFA8CFC4FEAEC71002907DAC0
:102DA0000A460021DCF1000C61EB02012D2202E059
:102DB000220504D52B228DF80420012203E0E2072E
:102DC00001D02022F7E7904659E00A2102E01022C4
:102DD0000DE010214FF0000A00910BE010224FF09F
:102DE000000A44F004040827009203E008224FF090
:102DF000000A0092C4F30252022A05D059F804CB0B
:102E00000021032A08D009E009F1070121F0070297
:102E1000F2E802C1914605E01FFA8CFC042A01D1B8
:102E20000CF0FF0C4FF00008220728D5702806D0C0
:102E3000009B83F0100353EA0A0305D00EE0402202
:102E40008DF80420012208E05CEA010206D030225D
:102E50008DF804208DF8050002229046009B83F037
:102E6000080353EA0A030AD15CEA010201D16207AE
:102E700005D530228DF804204FF001087F1E582818
:102E800004D034A003900EA802900DE036A0F9E71C
:102E900053466046009AFDF775FC84460398825CB1
:102EA0000298401E029002705CEA0100F0D1029884
:102EB00006A9081A00F1200A600702D524F480341C
:102EC00000E00127574502DDA7EB0A0000E00020E3
:102ED00000EB0A01009005984144401A0590E00378
:102EE00006D45B462146179A059800F0B3F90544CD
:102EF000002706E001A85A46C05D179990476D1C4F
:102F00007F1C4745F6DBE0030CD55B462146179A4C
:102F1000059800F09FF9054404E030205A461799BF
:102F200090476D1C0099481E00900029F5DC08E0D0
:102F3000029802995A460078491C029117999047C5
:102F40006D1CBAF10001AAF1010AF1DC65E1000093
:102F5000092801003031323334353637383961626F
:102F60006364656600000000303132333435363733
:102F700038394142434445460000000000F058F90A
:102F80000544761C307800287FF4ECAD19B0284653
:102F9000BDE8F08F620700D4062709F1070222F08E
:102FA000070CFCE80223E14603F000485FEA080C46
:102FB00002D00FF2702C0DE05FEA045C02D50FF234
:102FC000682C07E05FEAC47C02D00FF2602C01E0BD
:102FD000AFF2700C4FF0FF3823F00043CDF850C033
:102FE00065280CD006DC452809D046281DD0472886
:102FF0003DD13DE0662818D067287ED138E0002119
:10300000112F01DB112000E0781CCDE9000106A999
:103010000EA8FFF7DDFCDDE90F010E9A03910021F8
:10302000009207F1010A04914DE04FF00040009733
:10303000CDE9011006A90EA8FFF7CAFCDDE90F02D1
:1030400003920E9B11990022DDF80CA000930492CC
:1030500011B9791C00EB010AB7EB0A0004D4C0F1E6
:10306000FF3007F1010A0490AAEB0700019044E049
:10307000012F00DA01270021112F01DD112000E0CE
:103080003846CDE9000106A90EA8FFF7A1FCDDE94D
:103090000F010E9A0391002104910092BA46210774
:1030A0000CD40399514500DA8A46BAF1010F05DDC7
:1030B000009AAAF10101515C302908D0B84202DA25
:1030C00010F1040F06DA0121CDE9011015E0AAF193
:1030D0000101E9E7002805DC049901440491AAEB09
:1030E000000102E0411C514500DD8A460499401A66
:1030F000401C01904FF000400290200704D401983A
:10310000504501DBCDF8048000208DF84F00029877
:103110000DF14F07B0F1004F25D02B200E900298F3
:103120004FF0020800280CDA404202902D200E9049
:1031300007E00A210298FDF70FFB3031029007F8F3
:10314000011DB8F10001A8F10108F2DC0298002885
:10315000EFD1791E0E980870307800F0200040F012
:10316000450007F8020D12A8C01B00F107081498CB
:10317000007800B1012000EB0A01019801EBE07139
:1031800005984144401A401E0590E00306D45B4672
:103190002146179A059800F05DF8054414980078C8
:1031A00018B15A46179990476D1CE00324D55B4629
:1031B0002146179A059800F04DF805441CE0049844
:1031C000002807DBDDE90301884203DD0098405C4D
:1031D000179901E0179930205A469047049805F155
:1031E0000105401C04900198401E019004D12E203E
:1031F0005A46179990476D1CBAF10001AAF1010ACD
:10320000DDDC05E017F8010B5A46179990476D1C55
:10321000B8F10001A8F10108F4DC5B462146179AD9
:103220000598ABE62D0000002B00000020000000F8
:103230002DE9F041044600251E461746880404D4B3
:1032400005E039462020B0476D1C641EF9D528469C
:10325000BDE8F0812DE9F041044600251E46904668
:10326000C80301D5302700E02027880404D505E0F5
:1032700041463846B0476D1C641EF9D52846BDE866
:10328000F081000070B500220B4B10E0B3F88450C1
:10329000845C5C55B3F88440B3F88050641CB4FB84
:1032A000F5F605FB1644521CA3F8844092B28A42FC
:1032B000ECD3002070BD00001002002013B54FF6C3
:1032C000FF73012269460248FEF778FE00981CBD94
:1032D00080010020FDF754FDFFF7A8F8FEF7EAFE95
:1032E000FEF7CAFFFEF726FFFEF790FFFEF7E0FFAE
:1032F00001220E490E48FEF73FFE00210D48FEF761
:1033000009FC04210B48FEF705FC3C210A48FEF7A6
:1033100033FAFFF745F800210848FEF7E7FF00F011
:1033200029F8FEF79BFE00F041F8FEE70C000020B4
:1033300038010020A8000020F00000200000964383
:1033400010B5EFF3058149B9EFF3108131B90849A0
:103350000968022905D1EFF3118111B16FF005045D
:1033600003E0002408B100F07FFE204610BD0000FD
:1033700070000020EFF3058058B9EFF3108040B9DA
:1033800009490868022801D030B109E0EFF3118043
:1033900030B16FF0050070470120086000207047D1
:1033A0004FF0FF30704700007000002010B5EFF3C1
:1033B000058060B9EFF3108048B90B49086802280E
:1033C00002D0012806D00BE0EFF3118040B16FF07E
:1033D000050010BD0220086000F0AEFE002010BD08
:1033E0004FF0FF3010BD000070000020F0B585B038
:1033F0004FEA01034FF00004EFF305810394A1BBF2
:10340000EFF3108189BB21490968022902D1EFF34A
:10341000118151BB48B3802618218DF8104004ADAE
:1034200042B3176807B13D4697691FB139467F1E01
:10343000382F02D21779FF0702D0002005B0F0BD67
:10344000576907B1BE08D2F808C0BCF1000F0DD013
:10345000D4685C2C18D312693AB137B18DE80610E4
:103460003246294601F0C3F903900DE0D7685FB9F1
:1034700012694AB903AACDE90012B2B2294601F095
:1034800089F9012800D003940398D7E77000002041
:103490002DE9FC411C461746884606464FF00005BC
:1034A000EFF3058078BBEFF3108060BB174800682E
:1034B000022802D1EFF3118028BB26B3082000F0C8
:1034C00013FC03001FD0B8F1000FC3E9006711D04F
:1034D00001220F4E00208CB1216801B10846A1687D
:1034E00051B1E468302C0ED3CDE90061012101F027
:1034F00015FB07E00022ECE7E16821B90121009605
:1035000001F0F2FA05462846BDE8FC817000002073
:10351000BF26000808B5EFF305824AB9EFF3108221
:1035200032B90E4A1268022A05D1EFF3118212B1A4
:103530006FF0050008BD58B10022134600920A46FC
:10354000042101F033FB012805D06FF0020008BD13
:103550006FF0030008BD002008BD000070000020CF
:103560002DE9F041134C0F46054666692068001DA1
:1035700000F04AFC681C07D137B12168BDE8F04172
:103580000D48091D00F090BC20683544B5424560E7
:10359000216805D2A068BDE8F041091D00F06CBCAF
:1035A0006068091D00F068FC206B854200D225632D
:1035B000BDE8F08120000020F00700202DE9F04157
:1035C000054600F07DFC2D4C2069401C20612068E0
:1035D0002B4F10B1E06930B32BE025602069012842
:1035E00027D1002606EB860007EB800000F036FCB2
:1035F000761C382EF6D3234800F030FC21481430D6
:1036000000F02CFC1F48283000F028FC1D483C30FE
:1036100000F024FC1B48503000F020FC194860608A
:103620001430A06005E02068E96AC06A884200D8CA
:103630002560E06A401CE0626864E86AA16988422B
:1036400000D9A06100EB800007EB8000291D00F08D
:103650002BFC00F055FCE06900280CD02068E96ADA
:10366000C06A884207D208494FF080500860BFF313
:103670004F8FBFF36F8FBDE8F08100002000002066
:1036800040030020A007002004ED00E038B500F062
:1036900017FC104CA068C8B90F4800F0DFFB0E48BB
:1036A000143000F0DBFB0C482060143060600A4BE3
:1036B00000202833009003F1500210210A2000F06E
:1036C0000DFEA06010B105A100F098FCBDE83840E7
:1036D00000F016BC5C00002004080020546D7251FC
:1036E0000000000030B4026C0B46002A0BD0C16809
:1036F0001144C1604468A14201D30168C16030BC7B
:103700001846FCF76BBD30BC70472DE9F041856B66
:10371000174604460026026C82B1C7B1E068FCF788
:103720005DFDE168206C091AE1602268914202D2D5
:103730006168081AE060022F16D017E02068A8B967
:10374000606801F0F7F80646002060600EE0A068AF
:10375000FCF744FD216CA0680844A06061688842C1
:1037600004D32068A06001E005B16D1E6D1CA56347
:103770003046BDE8F08110B5044690F8590058B1C4
:1037800001280CD002280FD0502080F31188BFF3FD
:103790004F8FBFF36F8FFEE7206B00F0C5FB204615
:1037A000BDE8104000F0C0BB10BD000010484FF451
:1037B0004061420706D0C01D0D4920F00700411AA4
:1037C000C1F540610B4A00230144C2E900030839F6
:1037D000103A21F0070111604B600B600B1AC0E931
:1037E000001393604FF000405360D06070470000BA
:1037F000D40F002084000020144E154CA6F29C47E4
:103800004FF08058DFF84C9012E000BF00F058FBFA
:10381000F068C568281D00F0F7FA2069401E206195
:10382000E068401EE06000F06BFB2846FFF7A3FF56
:10383000E0680028EAD138680128F9D9C9F8008081
:10384000BFF34F8FBFF36F8FF2E70000DC0700205C
:103850002000002004ED00E070B51D46049C51B12D
:10386000C4F80020C4E90F010121204600F06AFDE0
:1038700084F84C5070BD2460F4E72DE9F0470E4603
:10388000DDE909841746824691009946089DA522E4
:10389000206BFCF7B5FC6FF00301206B01EB870197
:1038A000084420F00707780707D0502080F31188DC
:1038B000BFF34F8FBFF36F8FFEE72218315C82F8A2
:1038C0003410315C11B1401C1028F6D3002684F866
:1038D0004360382D00D33725E562C4E91356201D17
:1038E00000F0C7FA04F1180000F0C3FA2461C5F132
:1038F00038006462A061666584F858604A465146A3
:10390000384600F06FFA2060B8F1000F01D0C8F817
:103910000040BDE8F0872DE9F0471E46DDE9089438
:1039200017460D0080460ED0002C14D0FFF7AEFED7
:10393000C4F80080C4E90657C4E90869201DBDE841
:10394000F04700F096BA502080F31188BFF34F8FF4
:10395000BFF36F8FFEE7BDE8F087000030B5114977
:1039600000E011460A688242FBD34B685C1884422F
:1039700003D1406818444860084643681C189442C4
:1039800009D1084C103C2468A24209D052681A445C
:1039900042600A6812680260814200D0086030BD4F
:1039A0000460F9E78400002070B5002441600B4DED
:1039B0000061914206D8D11A8269914206D2011D56
:1039C000686807E09A4203D2994201D3012403E0D8
:1039D000011D286800F050FA204670BD5C000020F0
:1039E00010B5044600F06CFAA06B28B15FF000043B
:1039F00000F086FA204610BD0124F9E730B589B001
:103A0000304D55E00498002806DADDE90601059AF4
:103A10009047049800284BDB069C606910B1201D7C
:103A200000F0F2F902A800F0B9F8024604980A285A
:103A30003ED2DFE800F00505053D263705053D26A9
:103A40000598A169034601442046FFF7ADFF00B386
:103A5000616A20468847E069012829D1002000904A
:103A60000598A169002342181946204601F09EF8E6
:103A700078B9502080F31188BFF34F8FBFF36F8F59
:103A8000FEE70598A06128B1811813462046FFF78C
:103A90008BFF0DE0502080F31188BFF34F8FBFF3F1
:103AA0006F8FFEE794F82C0010B9204600F03CFA26
:103AB000002204A9A86800F097FD0028A2D109B04F
:103AC00030BD00005C0000202DE9FC410F4605469A
:103AD00000F076FB01A800F061F80446019818B1E7
:103AE00000F0A0FFBDE8FC81224EAFB17068006815
:103AF000A8B30027291B3A46B06800F093FA00F0FB
:103B000091FF0028EED11C494FF080500860BFF3B0
:103B10004F8FBFF36F8FE5E7A542EBD800F082FF30
:103B200030682746C068C468201D00F06DF9E06960
:103B3000012810D1A0692B4641193A462046FFF7CB
:103B400033FF40B100200346014600902A4620463C
:103B500001F02CF820B1616A20468847C2E707E0EF
:103B6000502080F31188BFF34F8FBFF36F8FFEE7B4
:103B70000127BFE75C00002004ED00E00648416833
:103B8000096829B14168C968C96849680163704713
:103B90004FF0FF31FAE700002000002070B5054625
:103BA00000F05EFE064E04463069844203D200F007
:103BB00009F8012000E0002028602046346170BD33
:103BC0005C000020F8B5194D1FE0C068C4680668A5
:103BD000201D00F019F9616A20468847E069012834
:103BE00013D1A0693044B04206D924616060211D20
:103BF000286800F041F908E00020034601460090E3
:103C00003246204600F0D2FF38B12868016800290A
:103C1000DBD16968C5E90010F8BD502080F3118838
:103C2000BFF34F8FBFF36F8FFEE700005C000020F3
:103C300008484068401C4FF0500080F3118804D0C1
:103C4000BFF34F8FBFF36F8FFEE7BFF34F8FBFF30D
:103C50006F8FFEE78C000020074C2068016841B19F
:103C6000C0680021D0F80000FFF72EFFFFF7C6FE66
:103C7000F3E701210020F7E75C0000202DE9F04187
:103C8000044600F01DF994F9455004F1240609E0BA
:103C9000606A48B1304600F08DFE08B100F012FABB
:103CA0006D1E6DB2002DF3DC4FF0FF3684F84560D9
:103CB00000F026F900F004F994F9445004F11007DB
:103CC00009E0206948B1384600F074FE08B100F000
:103CD000F9F96D1E6DB2002DF3DC84F84460BDE887
:103CE000F04100F00DB900002DE9F0410546002734
:103CF00000F066FA314E306808B9FFF757FDF068FA
:103D000005424BD1C5B3083568070ED005F0070052
:103D1000C0F108000544680707D0502080F31188DF
:103D2000BFF34F8FBFF36F8FFEE72DB370688542EF
:103D300034D82248103001460C6801E020460C4679
:103D40006168A94202D221680029F7D131688C420A
:103D500024D007682168016060680837411B10297A
:103D60000FD96019420708D0502080F31188BFF3A3
:103D70004F8FBFF36F8FFEE710E041606560FFF784
:103D8000EDFD61687068401A7060B268904200D2C0
:103D9000B060F06801430020C4E9000100F042FE79
:103DA000780707D0502080F31188BFF34F8FBFF3FF
:103DB0006F8FFEE73846BDE8F081000074000020F8
:103DC00010B5040006D000F07BF8246A00F098F8E3
:103DD000204610BD502080F31188BFF34F8FBFF3F2
:103DE0006F8FFEE710B5031F4FF080741C601B1F20
:103DF00021F001011960191F024B0B601439403882
:103E00000A6010BD313C0008D0E9013201699A60B6
:103E1000D0E901235A604A68824201D182684A602F
:103E2000002202610868401E0860086870470000B0
:103E3000034B036003F15C00086080201060704752
:103E40001C090020044B036003F15C0008604FF480
:103E50008070106070470000780B002000F10801AE
:103E60004FF0FF32C0E90112C16001610021016021
:103E7000704700210161704730B50B685A1C02D0B1
:103E800000F1080202E0026904E022465468256855
:103E90009D42FAD953684B6099608A60516008610D
:103EA0000168491C016030BD42684A6093688B60BC
:103EB00093685960916008610168491C016070470E
:103EC000502080F31188BFF34F8FBFF36F8F0A49E3
:103ED0004868401C486001280CD10848006810F070
:103EE000FF0F07D0502080F31188BFF34F8FBFF32F
:103EF0006F8FFEE7704700008C00002004ED00E0AB
:103F00000849486828B1401E486001D180F31188F3
:103F10007047502080F31188BFF34F8FBFF36F8F2E
:103F2000FEE700008C00002070B5002827D0144D5B
:103F3000A0F108046168E868014207D1502080F3CD
:103F40001188BFF34F8FBFF36F8FFEE722683AB13E
:103F5000502080F31188BFF34F8FBFF36F8FFEE7C0
:103F60008143616000F02CF960686968084468600A
:103F70002046FFF7F3FCBDE8704000F053BD70BD74
:103F8000740000204FF0E0200021016181610549AB
:103F90004FF47A720968B1FBF2F1491E41610721C1
:103FA000016170471C00002010B5FCF7F1F81149C1
:103FB00010280ED300F1E02090F8F0030A78904228
:103FC00007D2502080F31188BFF34F8FBFF36F8F5C
:103FD000FEE709480068896800F4E060884207D974
:103FE000502080F31188BFF34F8FBFF36F8FFEE730
:103FF00010BD00008C0000200CED00E010B5084B57
:10400000002200BF53F832401CB1521C082AF9D3D9
:1040100010BD43F8321003EBC201486010BD000030
:104020000003002070B515460E460446FFF748FF12
:1040300094F944100020491C01D184F8440094F9FB
:104040004510491C01D184F84500FFF759FFA06BCA
:1040500028B92A46314604F1240000F051F82046E0
:10406000BDE87040FFF70ABE10B5020014D00F483B
:10407000806B38B1502080F31188BFF34F8FBFF3AE
:104080006F8FFEE700F09CF800211046FFF768FAFA
:1040900000F0C8FC002807D105494FF080500860A7
:1040A000BFF34F8FBFF36F8F10BD000020000020C3
:1040B00004ED00E002498A6A026049694160704784
:1040C00020000020014901204862704720000020A4
:1040D00010B50C4650B1094909681831FFF7CCFEFC
:1040E0002046BDE810400121FFF73ABA502080F386
:1040F0001188BFF34F8FBFF36F8FFEE720000020C2
:1041000070B514460D4668B10A4909681831FFF7C1
:10411000CBFE0CB14FF0FF3521462846BDE870407C
:10412000FFF71EBA502080F31188BFF34F8FBFF303
:104130006F8FFEE72000002030B587B00024039485
:1041400005AA04A903A80494FFF772FEDDE90301A0
:104150000094CDE90110002315A11748059A00F03D
:1041600046FB164D002868631FD000F0EFFC0128C5
:1041700009D0401C19D1502080F31188BFF34F8F14
:10418000BFF36F8FFEE7502080F31188BFF34F8F8E
:10419000BFF36F8F4FF0FF3028630120E8616C613F
:1041A00007B0BDE8304000F045B807B030BD0000B2
:1041B00049444C4500000000F93700082000002069
:1041C0000248816B491C8163704700002000002079
:1041D000164810B5816B11B10121416210BD00215B
:1041E00041628169124A01E0B9B1491E01EB8103C4
:1041F00052F82330002BF7D001EB810302EB83024E
:1042000002F1080453685B685360A34201D15B6804
:104210005360DA680260816110BD502080F311881C
:10422000BFF34F8FBFF36F8FFEE700002000002029
:10423000400300201CB5264908780190FF20087033
:1042400008788DF800009DF800009DF8002000F02F
:10425000F000904207D0502080F31188BFF34F8FB9
:10426000BFF36F8FFEE79DF800001A4B00F050007F
:1042700018700720986005E09DF8002052008DF826
:104280000020401E9DF800201206F5D498600328F7
:1042900007D0502080F31188BFF34F8FBFF36F8F8B
:1042A000FEE74FF440709860019808700A48016872
:1042B00041F470010160016841F070410160FFF755
:1042C00061FE00205860FBF72DFF00201CBD0000A0
:1042D00000E400E08C00002020ED00E038B5049DF3
:1042E00018B153B1CAB181B120E0502080F31188D8
:1042F000BFF34F8FBFF36F8FFEE7502080F311881D
:10430000BFF34F8FBFF36F8FFEE7502080F311880C
:10431000BFF34F8FBFF36F8FFEE739B1502080F3AB
:104320001188BFF34F8FBFF36F8FFEE750241C46F9
:10433000012384F846302B460094FFF78DFA20467F
:1043400038BD000070B50D46040025D0FFF7B8FD5C
:10435000D4E90F20216802FB001161600021A163F4
:104360002168A1600A46D4E90F01401E00FB01212B
:10437000E16021464FF0FF3001F8440F487004F12E
:1043800010008DB1FFF76AFD04F12400FFF766FD10
:10439000FFF7B6FD012070BD502080F31188BFF3F8
:1043A0004F8FBFF36F8FFEE721690029F0D000F037
:1043B00001FB0028ECD004494FF080500860BFF3A7
:1043C0004F8FBFF36F8FE3E704ED00E02DE9FF4768
:1043D00082B01D468A464FF00008040003D0BAF1AF
:1043E000000F08D011E0502080F31188BFF34F8FE9
:1043F000BFF36F8FFEE7206C38B1502080F3118837
:10440000BFF34F8FBFF36F8FFEE7022D0AD1E06B32
:10441000012807D0502080F31188BFF34F8FBFF3DE
:104420006F8FFEE700F00EFA3F4F4FF000094FF09C
:10443000805648B9049838B1502080F31188BFF3F2
:104440004F8FBFF36F8FFEE7FFF73AFDA06BE16B75
:10445000884207D3022D05D00498D0B1B8F1000FDF
:104460001AD01EE02A4651462046FFF74EF9616AEF
:1044700019B104F1240000F09DFA20B13E60BFF3B1
:104480004F8FBFF36F8FFFF73BFD012006B0BDE8F4
:10449000F087FFF735FD22E06846FFF70BFE4FF08F
:1044A0000108FFF72DFDFFF78BFEFFF709FD94F9DB
:1044B0004400401C01D184F8449094F94500401C0C
:1044C00001D184F84590FFF71BFD04A9684600F070
:1044D00027F930B12046FFF7D1FB00F0A3FA002006
:1044E000D4E7FFF7EDFCA06BE16B884213D1FFF737
:1044F00007FD04F110000499FFF7EAFD2046FFF7DD
:10450000BDFB00F08FFA00289ED13E60BFF34F8FB5
:10451000BFF36F8F98E7FFF7F3FC2046FFF7AEFB82
:1045200000F080FA90E7000004ED00E02DE9F0478C
:104530001F4690468946040003D0B9F1000F08D009
:1045400011E0502080F31188BFF34F8FBFF36F8FBE
:10455000FEE7206C38B1502080F31188BFF34F8FF5
:10456000BFF36F8FFEE7022F0AD1E06B012807D05F
:10457000502080F31188BFF34F8FBFF36F8FFEE79A
:10458000FFF712FD5020EFF3118680F31188BFF37F
:104590004F8FBFF36F8FA06BE16B884206D3022F62
:1045A00004D0002086F31188BDE8F08794F94550C7
:1045B0003A4649462046FFF7A8F8681C04D06D1C0F
:1045C00084F845500120EDE7606A0028FAD004F134
:1045D000240000F0EFF90028F4D0B8F1000FF1D07A
:1045E0000121C8F80010EDE72DE9F747002683B058
:1045F0008A46040003D0BAF1000F08D011E0502021
:1046000080F31188BFF34F8FBFF36F8FFEE7206CED
:1046100038B1502080F31188BFF34F8FBFF36F8FF5
:10462000FEE700F00FF9DFF8F4804FF000094FF0DB
:10463000805748B9059838B1502080F31188BFF3EE
:104640004F8FBFF36F8FFEE7FFF73AFCA56BC5B145
:1046500051462046FFF746F86D1EA563206950B10C
:1046600004F1100000F0A6F928B1C8F80070BFF3FB
:104670004F8FBFF36F8FFFF743FC012006B0BDE8FB
:10468000F087059808B11EB106E0FFF739FC27E076
:104690006846FFF70FFD0126FFF732FCFFF790FD9C
:1046A000FFF70EFC94F94400401C01D184F84490BB
:1046B00094F94500401C01D184F84590FFF720FC97
:1046C00005A9684600F02CF8002820460AD0FFF71C
:1046D000D5FA00F0A7F92046FFF782F90028B3D0F9
:1046E0000020CBE7FFF77CF990B104F12400059995
:1046F000FFF7EEFC2046FFF7C1FA00F093F900281F
:10470000A2D1C8F80070BFF34F8FBFF36F8F9BE744
:104710002046FFF7B3FA00F085F995E704ED00E0D5
:104720002DE9F0410C46050011D0C4B1FFF7C8FBDC
:10473000174B5A696E682068911B471C17D02F6869
:104740009B6A9F4219D0964217D8012410E050204E
:1047500080F31188BFF34F8FBFF36F8FFEE75020B8
:1047600080F31188BFF34F8FBFF36F8FFEE70024F4
:10477000FFF7C6FB2046BDE8F081884205D9401A04
:1047800020602846FFF796FCF1E700202060DCE778
:10479000200000202DE9FF5F8346DDE90E87994662
:1047A00016468A469000FFF79FFA05001CD05C2051
:1047B000FFF79AFA040014D00020256384F859000A
:1047C000CDE90240CDE900874B4632465146584676
:1047D000FFF753F82046FEF7F1FE012004B0BDE8D4
:1047E000F09F2846FFF7A0FB4FF0FF30F6E7F0B54B
:1047F00085B0DDE90B640A9DA6B1DCB15C270097AA
:104800002663022684F85960002604AFCDE90246EB
:10481000CDE90057FFF731F82046FEF7CFFE0498A8
:1048200005B0F0BD502080F31188BFF34F8FBFF368
:104830006F8FFEE7502080F31188BFF34F8FBFF3D7
:104840006F8FFEE70548C16919B1806B18B1002070
:1048500070470120704702207047000020000020B0
:104860000148406970470000200000202DE9F04118
:104870002E4C0027A06B40B1206A401C2062606A69
:1048800000B101273846BDE8F0816669761C666193
:1048900013D16068006838B1502080F31188BFF3ED
:1048A0004F8FBFF36F8FFEE76068A1686160A06003
:1048B000A06A401CA062FFF761F9206BDFF87080EE
:1048C000864209D36068006880B16068C068C568C6
:1048D000686886420DD220632068C06A00EB8001C0
:1048E00058F821000128CAD90127C8E74FF0FF3046
:1048F000F1E7281DFFF788FAA86A18B105F118003A
:10490000FFF782FAE86AA169884200D9A06100EB4A
:10491000800108EB8100291DFFF7C6FAE86A2168CB
:10492000C96A8842CED30127CCE7000020000020CE
:104930004003002070B504004FF0000133D01B4D40
:104940002868844207D0502080F31188BFF34F8F2E
:10495000BFF36F8FFEE7206D38B1401E2065E36C1A
:10496000E26A9A421FD040B11DE0502080F31188C6
:10497000BFF34F8FBFF36F8FFEE7201DFFF744FAA1
:10498000E06CE062C0F13800A061E06AA969884289
:1049900000D9A861064900EB800001EB8000211DD1
:1049A000FFF782FA0121084670BD000020000020B8
:1049B0004003002070B5C068C46854B104F1180009
:1049C0000646FFF721FA144DA86B50B13146134843
:1049D00015E0502080F31188BFF34F8FBFF36F8F26
:1049E000FEE7201DFFF710FAE06AA969884200D9A6
:1049F000A8610B4900EB800001EB8000211DFFF74F
:104A000053FAE06A2968C96A884202D901206862BB
:104A100070BD002070BD000020000020C8070020ED
:104A2000400300202DE9F0472C4D00242746A86BB9
:104A300038B1FFF745FAA86B401EA863A86B40B1D8
:104A400046E0502080F31188BFF34F8FBFF36F8F84
:104A5000FEE72969224E0120D1B3A6F5916980466F
:104A60003068E0B1F068C46804F11800FFF7CCF9D1
:104A7000201DFFF7C9F9E06AA969884200D9A86139
:104A800000EB800109EB8100211DFFF70DFAE06AC0
:104A90002968C96A8842E3D3C5F82480E0E70CB1ED
:104AA000FFF76CF82C6A4CB14FEA0806FFF7DEFE00
:104AB00000B16E62641EF9D100202862686A38B1C4
:104AC0000849012738070860BFF34F8FBFF36F8F86
:104AD000FFF716FA3846BDE8F087000020000020F6
:104AE000C807002004ED00E02DE9FC4781461E4682
:104AF0001746884630200A9DFFF7F6F804000AD0D2
:104B0000CDE9005433463A4641464846FEF703FF96
:104B1000002084F82C002046BDE8FC877CB53026B8
:104B2000DDE90654009644B1CDE90054FEF7F3FEEA
:104B3000012084F82C0020467CBD502080F3118891
:104B4000BFF34F8FBFF36F8FFEE7000010B586B045
:104B5000FEF79CFD114CA068B8B1002003900490B2
:104B600005AA04A903A8FFF76DF9DDE903210220D6
:104B70008DE8070000230AA10B48059AFFF737FECE
:104B8000E06010B106B0012010BD502080F3118804
:104B9000BFF34F8FBFF36F8FFEE700005C00002074
:104BA000546D722053766300593C00082DE9FF4193
:104BB0001E46134602000A9D4FF0000016D0144C0A
:104BC000A768002F0FD0CDE900130292062917DA4B
:104BD000FFF738FE02284FF000030FD0002269468D
:104BE000A068FFF7F3FB04B0BDE8F081502080F32C
:104BF0001188BFF34F8FBFF36F8FFEE72A46EEE7B2
:104C00000023324669463846FFF790FCEBE7000088
:104C10005C000020A04C0008000000000000000024
:104C2000000000000000000000020000180000006A
:104C30000000000000000000904C00080000000090
:104C40000000000000000000844C0008000000008C
:104C50000000000000000000010202030405060736
:104C600008090A0B0C0D0E0F1010000000000000C8
:104C70000000010203040607080900000000010209
:104C8000030400005049445F5441534B00000000AE
:104C9000454E434F4445525F5441534B0000000082
:104CA00064656661756C745461736B00CC4C00086C
:104CB000000000209C000000B0290008684D00089A
:104CC0009C0000203C230000C029000800000000D8
:104CD00000000000000000000000000001000000D3
:104CE00010000000000000000024F400000000009C
:104CF00000000000000000000000000000000000B4
:104D000000000000000000000000000000000000A3
:104D10000000000000000000000000000000000093
:104D20000000000000000000000000000000000083
:104D30000000000000000000000000000000000073
:104D40000000000000000000000000000000000063
:104D5000000000000000000000000000AAAAAAAAAB
:084D600000000000000000004B
:04000005080000ED02
:00000001FF
